{"contracts/TournamentManagement.sol":{"TournamentManagement":{"abi":[{"inputs":[],"stateMutability":"nonpayable","type":"constructor"},{"inputs":[{"internalType":"address","name":"owner","type":"address"}],"name":"OwnableInvalidOwner","type":"error"},{"inputs":[{"internalType":"address","name":"account","type":"address"}],"name":"OwnableUnauthorizedAccount","type":"error"},{"anonymous":false,"inputs":[{"indexed":true,"internalType":"address","name":"previousOwner","type":"address"},{"indexed":true,"internalType":"address","name":"newOwner","type":"address"}],"name":"OwnershipTransferred","type":"event"},{"anonymous":false,"inputs":[{"indexed":false,"internalType":"address","name":"tournament","type":"address"}],"name":"_withdrawAward","type":"event"},{"anonymous":false,"inputs":[{"indexed":false,"internalType":"uint256","name":"tournamentId","type":"uint256"}],"name":"creatTournament","type":"event"},{"anonymous":false,"inputs":[{"indexed":false,"internalType":"address","name":"tournament","type":"address"},{"indexed":false,"internalType":"address","name":"player","type":"address"}],"name":"join","type":"event"},{"stateMutability":"payable","type":"fallback"},{"inputs":[{"internalType":"string","name":"name","type":"string"},{"internalType":"uint256","name":"timeStart","type":"uint256"},{"internalType":"uint256","name":"timeEnd","type":"uint256"},{"internalType":"uint256","name":"fee","type":"uint256"},{"internalType":"uint256","name":"award","type":"uint256"}],"name":"createNewTournament","outputs":[],"stateMutability":"nonpayable","type":"function"},{"inputs":[{"internalType":"uint256","name":"tournamentId","type":"uint256"},{"internalType":"string","name":"newName","type":"string"},{"internalType":"uint256","name":"newTimeStart","type":"uint256"},{"internalType":"uint256","name":"newTimeEnd","type":"uint256"},{"internalType":"uint256","name":"newFee","type":"uint256"},{"internalType":"uint256","name":"newAward","type":"uint256"}],"name":"editTournament","outputs":[],"stateMutability":"nonpayable","type":"function"},{"inputs":[{"internalType":"uint256","name":"tournamentId","type":"uint256"},{"internalType":"uint256","name":"randomNumber","type":"uint256"}],"name":"joinTournament","outputs":[],"stateMutability":"payable","type":"function"},{"inputs":[],"name":"owner","outputs":[{"internalType":"address","name":"","type":"address"}],"stateMutability":"view","type":"function"},{"inputs":[],"name":"renounceOwnership","outputs":[],"stateMutability":"nonpayable","type":"function"},{"inputs":[{"internalType":"uint256","name":"tournamentId","type":"uint256"},{"internalType":"uint256","name":"matchId","type":"uint256"},{"internalType":"uint32[]","name":"moves","type":"uint32[]"},{"internalType":"uint8","name":"result","type":"uint8"}],"name":"setGame","outputs":[],"stateMutability":"nonpayable","type":"function"},{"inputs":[{"internalType":"uint256","name":"tournamentId","type":"uint256"},{"internalType":"address","name":"manager","type":"address"}],"name":"setManagerTournament","outputs":[],"stateMutability":"nonpayable","type":"function"},{"inputs":[{"internalType":"uint256","name":"tournamentId","type":"uint256"},{"internalType":"uint32","name":"player1","type":"uint32"},{"internalType":"uint32","name":"player2","type":"uint32"}],"name":"setMatch","outputs":[],"stateMutability":"nonpayable","type":"function"},{"inputs":[{"internalType":"uint256","name":"tournamentId","type":"uint256"},{"internalType":"address","name":"referee","type":"address"}],"name":"setRefereeTournament","outputs":[],"stateMutability":"nonpayable","type":"function"},{"inputs":[{"internalType":"uint256","name":"tournamentId","type":"uint256"},{"internalType":"address","name":"referee","type":"address"}],"name":"setWinnerTournament","outputs":[],"stateMutability":"nonpayable","type":"function"},{"inputs":[{"internalType":"address payable","name":"_withdrawWallet","type":"address"}],"name":"setWithdrawWallet","outputs":[],"stateMutability":"nonpayable","type":"function"},{"inputs":[{"internalType":"address","name":"newOwner","type":"address"}],"name":"transferOwnership","outputs":[],"stateMutability":"nonpayable","type":"function"},{"inputs":[{"internalType":"uint256","name":"tournamentId","type":"uint256"},{"internalType":"address","name":"winner","type":"address"}],"name":"withdrawAward","outputs":[],"stateMutability":"nonpayable","type":"function"},{"inputs":[{"internalType":"uint256","name":"amout","type":"uint256"}],"name":"withdrawTournamentFee","outputs":[],"stateMutability":"nonpayable","type":"function"},{"stateMutability":"payable","type":"receive"}],"evm":{"bytecode":{"linkReferences":{},"object":"60806040523480156200001157600080fd5b5033600073ffffffffffffffffffffffffffffffffffffffff168173ffffffffffffffffffffffffffffffffffffffff1603620000885760006040517f1e4fbdf70000000000000000000000000000000000000000000000000000000081526004016200007f9190620001ea565b60405180910390fd5b6200009981620000e160201b60201c565b5033600160006101000a81548173ffffffffffffffffffffffffffffffffffffffff021916908373ffffffffffffffffffffffffffffffffffffffff16021790555062000207565b60008060009054906101000a900473ffffffffffffffffffffffffffffffffffffffff169050816000806101000a81548173ffffffffffffffffffffffffffffffffffffffff021916908373ffffffffffffffffffffffffffffffffffffffff1602179055508173ffffffffffffffffffffffffffffffffffffffff168173ffffffffffffffffffffffffffffffffffffffff167f8be0079c531659141344cd1fd0a4f28419497f9722a3daafe3b4186f6b6457e060405160405180910390a35050565b600073ffffffffffffffffffffffffffffffffffffffff82169050919050565b6000620001d282620001a5565b9050919050565b620001e481620001c5565b82525050565b6000602082019050620002016000830184620001d9565b92915050565b6158ce80620002176000396000f3fe608060405260043610620000f75760003560e01c80639373f432116200008b578063b5c99c401162000061578063b5c99c4014620002ad578063df9de10514620002db578063f2fde38b1462000309578063fcfb350d146200033757620000ff565b80639373f4321462000223578063a97d17e61462000251578063b3d2efe1146200027f57620000ff565b8063715018a611620000cd578063715018a6146200017d57806380220efd146200019757806384f89fa814620001c55780638da5cb5b14620001f357620000ff565b8063203ee51414620001015780635875c61c146200012f5780636159d2e6146200014f57620000ff565b36620000ff57005b005b3480156200010e57600080fd5b506200012d6004803603810190620001279190620016e9565b62000365565b005b6200014d600480360381019062000147919062001745565b6200052c565b005b3480156200015c57600080fd5b506200017b6004803603810190620001759190620018ee565b620006e5565b005b3480156200018a57600080fd5b50620001956200089d565b005b348015620001a457600080fd5b50620001c36004803603810190620001bd9190620019a9565b620008b5565b005b348015620001d257600080fd5b50620001f16004803603810190620001eb919062001a50565b62000a18565b005b3480156200020057600080fd5b506200020b62000ae4565b6040516200021a919062001ac7565b60405180910390f35b3480156200023057600080fd5b506200024f600480360381019062000249919062001b29565b62000b0d565b005b3480156200025e57600080fd5b506200027d600480360381019062000277919062001b8c565b62000b5b565b005b3480156200028c57600080fd5b50620002ab6004803603810190620002a5919062001b8c565b62000cea565b005b348015620002ba57600080fd5b50620002d96004803603810190620002d3919062001b8c565b62000da0565b005b348015620002e857600080fd5b5062000307600480360381019062000301919062001b8c565b62000f64565b005b3480156200031657600080fd5b506200033560048036038101906200032f919062001bd3565b62001298565b005b3480156200034457600080fd5b506200036360048036038101906200035d919062001d1e565b62001325565b005b826004600082815260200190815260200160002060009054906101000a900473ffffffffffffffffffffffffffffffffffffffff1673ffffffffffffffffffffffffffffffffffffffff166391d148547f241ecf16d79d0f8dbfb92cbc07fe17840425976cf0667f022fe9877caa831b08336040518363ffffffff1660e01b8152600401620003f692919062001dca565b602060405180830381865afa15801562000414573d6000803e3d6000fd5b505050506040513d601f19601f820116820180604052508101906200043a919062001e34565b6200047c576040517f08c379a0000000000000000000000000000000000000000000000000000000008152600401620004739062001eed565b60405180910390fd5b60006004600086815260200190815260200160002060009054906101000a900473ffffffffffffffffffffffffffffffffffffffff1690508073ffffffffffffffffffffffffffffffffffffffff16630ca31d3a85856040518363ffffffff1660e01b8152600401620004f192919062001f20565b600060405180830381600087803b1580156200050c57600080fd5b505af115801562000521573d6000803e3d6000fd5b505050505050505050565b60006004600084815260200190815260200160002060009054906101000a900473ffffffffffffffffffffffffffffffffffffffff16905060008173ffffffffffffffffffffffffffffffffffffffff16631e0197e26040518163ffffffff1660e01b8152600401600060405180830381865afa158015620005b2573d6000803e3d6000fd5b505050506040513d6000823e3d601f19601f82011682018060405250810190620005dd91906200200e565b909192935090919250909150508091505080341462000633576040517f08c379a00000000000000000000000000000000000000000000000000000000081526004016200062a906200212b565b60405180910390fd5b8173ffffffffffffffffffffffffffffffffffffffff1663014892a433856040518363ffffffff1660e01b8152600401620006709291906200215e565b600060405180830381600087803b1580156200068b57600080fd5b505af1158015620006a0573d6000803e3d6000fd5b505050507fb1c49079a0d59012846675cc20a8bbf8d52b2207a01bc968e01c89cb3571de5e8233604051620006d79291906200218b565b60405180910390a150505050565b620006ef620014ef565b6000806004600089815260200190815260200160002060009054906101000a900473ffffffffffffffffffffffffffffffffffffffff1690508073ffffffffffffffffffffffffffffffffffffffff16631e0197e26040518163ffffffff1660e01b8152600401600060405180830381865afa15801562000774573d6000803e3d6000fd5b505050506040513d6000823e3d601f19601f820116820180604052508101906200079f91906200200e565b9091929350909192509091509050809250508183600254620007c29190620021e7565b620007ce919062002222565b6002819055506002544710156200081c576040517f08c379a00000000000000000000000000000000000000000000000000000000081526004016200081390620022ad565b60405180910390fd5b8073ffffffffffffffffffffffffffffffffffffffff16638bee4d3e88888888886040518663ffffffff1660e01b81526004016200085f9594939291906200231b565b600060405180830381600087803b1580156200087a57600080fd5b505af11580156200088f573d6000803e3d6000fd5b505050505050505050505050565b620008a7620014ef565b620008b360006200157f565b565b620008bf620014ef565b8060026000828254620008d39190620021e7565b9250508190555060036000815480929190620008ef906200237f565b91905055506002544710156200093c576040517f08c379a00000000000000000000000000000000000000000000000000000000081526004016200093390620022ad565b60405180910390fd5b6000858585858560405162000951906200164b565b620009619594939291906200231b565b604051809103906000f0801580156200097e573d6000803e3d6000fd5b5090508060046000600354815260200190815260200160002060006101000a81548173ffffffffffffffffffffffffffffffffffffffff021916908373ffffffffffffffffffffffffffffffffffffffff1602179055507f6cc0c3f2d754103e39fbdf8d0bfadca4a4edb26680b1715f5133a23a6a59ae1d60035460405162000a089190620023cc565b60405180910390a1505050505050565b62000a22620014ef565b6002548162000a329190620021e7565b47101562000a77576040517f08c379a000000000000000000000000000000000000000000000000000000000815260040162000a6e906200245f565b60405180910390fd5b600160009054906101000a900473ffffffffffffffffffffffffffffffffffffffff1673ffffffffffffffffffffffffffffffffffffffff166108fc829081150290604051600060405180830381858888f1935050505015801562000ae0573d6000803e3d6000fd5b5050565b60008060009054906101000a900473ffffffffffffffffffffffffffffffffffffffff16905090565b62000b17620014ef565b80600160006101000a81548173ffffffffffffffffffffffffffffffffffffffff021916908373ffffffffffffffffffffffffffffffffffffffff16021790555050565b60006004600084815260200190815260200160002060009054906101000a900473ffffffffffffffffffffffffffffffffffffffff1690508073ffffffffffffffffffffffffffffffffffffffff166391d148547faef88082b8671e875d97d0d6c81d06fb9e76f97b3ad7523a55a378e5298aeeee336040518363ffffffff1660e01b815260040162000bf092919062001dca565b602060405180830381865afa15801562000c0e573d6000803e3d6000fd5b505050506040513d601f19601f8201168201806040525081019062000c34919062001e34565b62000c76576040517f08c379a000000000000000000000000000000000000000000000000000000000815260040162000c6d90620024f7565b60405180910390fd5b8073ffffffffffffffffffffffffffffffffffffffff1663c4a796c1836040518263ffffffff1660e01b815260040162000cb1919062001ac7565b600060405180830381600087803b15801562000ccc57600080fd5b505af115801562000ce1573d6000803e3d6000fd5b50505050505050565b62000cf4620014ef565b60006004600084815260200190815260200160002060009054906101000a900473ffffffffffffffffffffffffffffffffffffffff1690508073ffffffffffffffffffffffffffffffffffffffff1663d0ebdbe7836040518263ffffffff1660e01b815260040162000d67919062001ac7565b600060405180830381600087803b15801562000d8257600080fd5b505af115801562000d97573d6000803e3d6000fd5b50505050505050565b816004600082815260200190815260200160002060009054906101000a900473ffffffffffffffffffffffffffffffffffffffff1673ffffffffffffffffffffffffffffffffffffffff166391d148547f241ecf16d79d0f8dbfb92cbc07fe17840425976cf0667f022fe9877caa831b08336040518363ffffffff1660e01b815260040162000e3192919062001dca565b602060405180830381865afa15801562000e4f573d6000803e3d6000fd5b505050506040513d601f19601f8201168201806040525081019062000e75919062001e34565b62000eb7576040517f08c379a000000000000000000000000000000000000000000000000000000000815260040162000eae9062001eed565b60405180910390fd5b60006004600085815260200190815260200160002060009054906101000a900473ffffffffffffffffffffffffffffffffffffffff1690508073ffffffffffffffffffffffffffffffffffffffff1663c4a796c1846040518263ffffffff1660e01b815260040162000f2a919062001ac7565b600060405180830381600087803b15801562000f4557600080fd5b505af115801562000f5a573d6000803e3d6000fd5b5050505050505050565b62000f6e620014ef565b60006004600084815260200190815260200160002060009054906101000a900473ffffffffffffffffffffffffffffffffffffffff169050600073ffffffffffffffffffffffffffffffffffffffff168173ffffffffffffffffffffffffffffffffffffffff1663dfbf53ae6040518163ffffffff1660e01b8152600401602060405180830381865afa1580156200100a573d6000803e3d6000fd5b505050506040513d601f19601f8201168201806040525081019062001030919062002530565b73ffffffffffffffffffffffffffffffffffffffff160362001089576040517f08c379a00000000000000000000000000000000000000000000000000000000081526004016200108090620025d8565b60405180910390fd5b8173ffffffffffffffffffffffffffffffffffffffff168173ffffffffffffffffffffffffffffffffffffffff1663dfbf53ae6040518163ffffffff1660e01b8152600401602060405180830381865afa158015620010ec573d6000803e3d6000fd5b505050506040513d601f19601f8201168201806040525081019062001112919062002530565b73ffffffffffffffffffffffffffffffffffffffff16146200116b576040517f08c379a0000000000000000000000000000000000000000000000000000000008152600401620011629062002670565b60405180910390fd5b60008173ffffffffffffffffffffffffffffffffffffffff16631e0197e26040518163ffffffff1660e01b8152600401600060405180830381865afa158015620011b9573d6000803e3d6000fd5b505050506040513d6000823e3d601f19601f82011682018060405250810190620011e491906200200e565b90919293509091925090915090508091505080600260008282546200120a919062002222565b925050819055508273ffffffffffffffffffffffffffffffffffffffff166108fc829081150290604051600060405180830381858888f1935050505015801562001258573d6000803e3d6000fd5b507f5a29a91de26266a33ab4fa77689e193d9659a6c21a97b43609cce1767a54a02a826040516200128a919062001ac7565b60405180910390a150505050565b620012a2620014ef565b600073ffffffffffffffffffffffffffffffffffffffff168173ffffffffffffffffffffffffffffffffffffffff1603620013175760006040517f1e4fbdf70000000000000000000000000000000000000000000000000000000081526004016200130e919062001ac7565b60405180910390fd5b62001322816200157f565b50565b836004600082815260200190815260200160002060009054906101000a900473ffffffffffffffffffffffffffffffffffffffff1673ffffffffffffffffffffffffffffffffffffffff166391d148547f241ecf16d79d0f8dbfb92cbc07fe17840425976cf0667f022fe9877caa831b08336040518363ffffffff1660e01b8152600401620013b692919062001dca565b602060405180830381865afa158015620013d4573d6000803e3d6000fd5b505050506040513d601f19601f82011682018060405250810190620013fa919062001e34565b6200143c576040517f08c379a0000000000000000000000000000000000000000000000000000000008152600401620014339062001eed565b60405180910390fd5b60006004600087815260200190815260200160002060009054906101000a900473ffffffffffffffffffffffffffffffffffffffff1690508073ffffffffffffffffffffffffffffffffffffffff1663b62a0ac08686866040518463ffffffff1660e01b8152600401620014b39392919062002771565b600060405180830381600087803b158015620014ce57600080fd5b505af1158015620014e3573d6000803e3d6000fd5b50505050505050505050565b620014f962001643565b73ffffffffffffffffffffffffffffffffffffffff166200151962000ae4565b73ffffffffffffffffffffffffffffffffffffffff16146200157d576200153f62001643565b6040517f118cdaa700000000000000000000000000000000000000000000000000000000815260040162001574919062001ac7565b60405180910390fd5b565b60008060009054906101000a900473ffffffffffffffffffffffffffffffffffffffff169050816000806101000a81548173ffffffffffffffffffffffffffffffffffffffff021916908373ffffffffffffffffffffffffffffffffffffffff1602179055508173ffffffffffffffffffffffffffffffffffffffff168173ffffffffffffffffffffffffffffffffffffffff167f8be0079c531659141344cd1fd0a4f28419497f9722a3daafe3b4186f6b6457e060405160405180910390a35050565b600033905090565b6130e380620027b683390190565b6000604051905090565b600080fd5b600080fd5b6000819050919050565b62001682816200166d565b81146200168e57600080fd5b50565b600081359050620016a28162001677565b92915050565b600063ffffffff82169050919050565b620016c381620016a8565b8114620016cf57600080fd5b50565b600081359050620016e381620016b8565b92915050565b60008060006060848603121562001705576200170462001663565b5b6000620017158682870162001691565b93505060206200172886828701620016d2565b92505060406200173b86828701620016d2565b9150509250925092565b600080604083850312156200175f576200175e62001663565b5b60006200176f8582860162001691565b9250506020620017828582860162001691565b9150509250929050565b600080fd5b600080fd5b6000601f19601f8301169050919050565b7f4e487b7100000000000000000000000000000000000000000000000000000000600052604160045260246000fd5b620017e18262001796565b810181811067ffffffffffffffff82111715620018035762001802620017a7565b5b80604052505050565b60006200181862001659565b9050620018268282620017d6565b919050565b600067ffffffffffffffff821115620018495762001848620017a7565b5b620018548262001796565b9050602081019050919050565b82818337600083830152505050565b60006200188762001881846200182b565b6200180c565b905082815260208101848484011115620018a657620018a562001791565b5b620018b384828562001861565b509392505050565b600082601f830112620018d357620018d26200178c565b5b8135620018e584826020860162001870565b91505092915050565b60008060008060008060c087890312156200190e576200190d62001663565b5b60006200191e89828a0162001691565b965050602087013567ffffffffffffffff81111562001942576200194162001668565b5b6200195089828a01620018bb565b95505060406200196389828a0162001691565b94505060606200197689828a0162001691565b93505060806200198989828a0162001691565b92505060a06200199c89828a0162001691565b9150509295509295509295565b600080600080600060a08688031215620019c857620019c762001663565b5b600086013567ffffffffffffffff811115620019e957620019e862001668565b5b620019f788828901620018bb565b955050602062001a0a8882890162001691565b945050604062001a1d8882890162001691565b935050606062001a308882890162001691565b925050608062001a438882890162001691565b9150509295509295909350565b60006020828403121562001a695762001a6862001663565b5b600062001a798482850162001691565b91505092915050565b600073ffffffffffffffffffffffffffffffffffffffff82169050919050565b600062001aaf8262001a82565b9050919050565b62001ac18162001aa2565b82525050565b600060208201905062001ade600083018462001ab6565b92915050565b600062001af18262001a82565b9050919050565b62001b038162001ae4565b811462001b0f57600080fd5b50565b60008135905062001b238162001af8565b92915050565b60006020828403121562001b425762001b4162001663565b5b600062001b528482850162001b12565b91505092915050565b62001b668162001aa2565b811462001b7257600080fd5b50565b60008135905062001b868162001b5b565b92915050565b6000806040838503121562001ba65762001ba562001663565b5b600062001bb68582860162001691565b925050602062001bc98582860162001b75565b9150509250929050565b60006020828403121562001bec5762001beb62001663565b5b600062001bfc8482850162001b75565b91505092915050565b600067ffffffffffffffff82111562001c235762001c22620017a7565b5b602082029050602081019050919050565b600080fd5b600062001c5062001c4a8462001c05565b6200180c565b9050808382526020820190506020840283018581111562001c765762001c7562001c34565b5b835b8181101562001ca3578062001c8e8882620016d2565b84526020840193505060208101905062001c78565b5050509392505050565b600082601f83011262001cc55762001cc46200178c565b5b813562001cd784826020860162001c39565b91505092915050565b600060ff82169050919050565b62001cf88162001ce0565b811462001d0457600080fd5b50565b60008135905062001d188162001ced565b92915050565b6000806000806080858703121562001d3b5762001d3a62001663565b5b600062001d4b8782880162001691565b945050602062001d5e8782880162001691565b935050604085013567ffffffffffffffff81111562001d825762001d8162001668565b5b62001d908782880162001cad565b925050606062001da38782880162001d07565b91505092959194509250565b6000819050919050565b62001dc48162001daf565b82525050565b600060408201905062001de1600083018562001db9565b62001df0602083018462001ab6565b9392505050565b60008115159050919050565b62001e0e8162001df7565b811462001e1a57600080fd5b50565b60008151905062001e2e8162001e03565b92915050565b60006020828403121562001e4d5762001e4c62001663565b5b600062001e5d8482850162001e1d565b91505092915050565b600082825260208201905092915050565b7f4f6e6c79206d616e616765722063616e20646f20746869732066756e6374696f60008201527f6e00000000000000000000000000000000000000000000000000000000000000602082015250565b600062001ed560218362001e66565b915062001ee28262001e77565b604082019050919050565b6000602082019050818103600083015262001f088162001ec6565b9050919050565b62001f1a81620016a8565b82525050565b600060408201905062001f37600083018562001f0f565b62001f46602083018462001f0f565b9392505050565b60005b8381101562001f6d57808201518184015260208101905062001f50565b60008484015250505050565b600062001f9062001f8a846200182b565b6200180c565b90508281526020810184848401111562001faf5762001fae62001791565b5b62001fbc84828562001f4d565b509392505050565b600082601f83011262001fdc5762001fdb6200178c565b5b815162001fee84826020860162001f79565b91505092915050565b600081519050620020088162001677565b92915050565b600080600080600060a086880312156200202d576200202c62001663565b5b600086015167ffffffffffffffff8111156200204e576200204d62001668565b5b6200205c8882890162001fc4565b95505060206200206f8882890162001ff7565b9450506040620020828882890162001ff7565b9350506060620020958882890162001ff7565b9250506080620020a88882890162001ff7565b9150509295509295909350565b7f7472616e736665722076616c756520646964206e6f74206d617463682077697460008201527f6820666565000000000000000000000000000000000000000000000000000000602082015250565b60006200211360258362001e66565b91506200212082620020b5565b604082019050919050565b60006020820190508181036000830152620021468162002104565b9050919050565b62002158816200166d565b82525050565b600060408201905062002175600083018562001ab6565b6200218460208301846200214d565b9392505050565b6000604082019050620021a2600083018562001ab6565b620021b1602083018462001ab6565b9392505050565b7f4e487b7100000000000000000000000000000000000000000000000000000000600052601160045260246000fd5b6000620021f4826200166d565b915062002201836200166d565b92508282019050808211156200221c576200221b620021b8565b5b92915050565b60006200222f826200166d565b91506200223c836200166d565b9250828203905081811115620022575762002256620021b8565b5b92915050565b7f4e6f7420656e6f75676820746f6b656e20746f20637265617420617761726400600082015250565b600062002295601f8362001e66565b9150620022a2826200225d565b602082019050919050565b60006020820190508181036000830152620022c88162002286565b9050919050565b600081519050919050565b6000620022e782620022cf565b620022f3818562001e66565b93506200230581856020860162001f4d565b620023108162001796565b840191505092915050565b600060a0820190508181036000830152620023378188620022da565b90506200234860208301876200214d565b6200235760408301866200214d565b6200236660608301856200214d565b6200237560808301846200214d565b9695505050505050565b60006200238c826200166d565b91507fffffffffffffffffffffffffffffffffffffffffffffffffffffffffffffffff8203620023c157620023c0620021b8565b5b600182019050919050565b6000602082019050620023e360008301846200214d565b92915050565b7f436f6e74726163742062616c616e63652068617320746f206265206d6f72652060008201527f7468616e20746f74616c20617761726400000000000000000000000000000000602082015250565b60006200244760308362001e66565b91506200245482620023e9565b604082019050919050565b600060208201905081810360008301526200247a8162002438565b9050919050565b7f4f6e6c7920726566657265652063616e20646f20746869732066756e6374696f60008201527f6e00000000000000000000000000000000000000000000000000000000000000602082015250565b6000620024df60218362001e66565b9150620024ec8262002481565b604082019050919050565b600060208201905081810360008301526200251281620024d0565b9050919050565b6000815190506200252a8162001b5b565b92915050565b60006020828403121562002549576200254862001663565b5b6000620025598482850162002519565b91505092915050565b7f5468697320746f75726e616d656e7420646964206e6f7420686176652077696e60008201527f6e65720000000000000000000000000000000000000000000000000000000000602082015250565b6000620025c060238362001e66565b9150620025cd8262002562565b604082019050919050565b60006020820190508181036000830152620025f381620025b1565b9050919050565b7f54686973206164647265737320617265206e6f742077696e6e6572206f66207460008201527f68697320746f75726e616d656e74000000000000000000000000000000000000602082015250565b600062002658602e8362001e66565b91506200266582620025fa565b604082019050919050565b600060208201905081810360008301526200268b8162002649565b9050919050565b600081519050919050565b600082825260208201905092915050565b6000819050602082019050919050565b620026c981620016a8565b82525050565b6000620026dd8383620026be565b60208301905092915050565b6000602082019050919050565b6000620027038262002692565b6200270f81856200269d565b93506200271c83620026ae565b8060005b8381101562002753578151620027378882620026cf565b97506200274483620026e9565b92505060018101905062002720565b5085935050505092915050565b6200276b8162001ce0565b82525050565b60006060820190506200278860008301866200214d565b81810360208301526200279c8185620026f6565b9050620027ad604083018462002760565b94935050505056fe60806040523480156200001157600080fd5b50604051620030e3380380620030e3833981810160405281019062000037919062000505565b620000697f241ecf16d79d0f8dbfb92cbc07fe17840425976cf0667f022fe9877caa831b0833620001c260201b60201c565b506200007f6000801b33620001c260201b60201c565b50428411620000c5576040517f08c379a0000000000000000000000000000000000000000000000000000000008152600401620000bc9062000633565b60405180910390fd5b8383116200010a576040517f08c379a00000000000000000000000000000000000000000000000000000000081526004016200010190620006cb565b60405180910390fd5b6040518060a0016040528086815260200185815260200184815260200183815260200182815250600360008201518160000190816200014a91906200092e565b50602082015181600101556040820151816002015560608201518160030155608082015181600401559050507f3b74d2c591a501617cec92c77aebcf079bdf90cedf6f9c583cad47a2d516f0de8585858585604051620001af95949392919062000a67565b60405180910390a1505050505062000acb565b6000620001d68383620002c560201b60201c565b620002ba57600160008085815260200190815260200160002060000160008473ffffffffffffffffffffffffffffffffffffffff1673ffffffffffffffffffffffffffffffffffffffff16815260200190815260200160002060006101000a81548160ff021916908315150217905550620002566200032f60201b60201c565b73ffffffffffffffffffffffffffffffffffffffff168273ffffffffffffffffffffffffffffffffffffffff16847f2f8788117e7eff1d82e926ec794901d17c78024a50270940304540a733656f0d60405160405180910390a460019050620002bf565b600090505b92915050565b600080600084815260200190815260200160002060000160008373ffffffffffffffffffffffffffffffffffffffff1673ffffffffffffffffffffffffffffffffffffffff16815260200190815260200160002060009054906101000a900460ff16905092915050565b600033905090565b6000604051905090565b600080fd5b600080fd5b600080fd5b600080fd5b6000601f19601f8301169050919050565b7f4e487b7100000000000000000000000000000000000000000000000000000000600052604160045260246000fd5b620003a08262000355565b810181811067ffffffffffffffff82111715620003c257620003c162000366565b5b80604052505050565b6000620003d762000337565b9050620003e5828262000395565b919050565b600067ffffffffffffffff82111562000408576200040762000366565b5b620004138262000355565b9050602081019050919050565b60005b838110156200044057808201518184015260208101905062000423565b60008484015250505050565b6000620004636200045d84620003ea565b620003cb565b90508281526020810184848401111562000482576200048162000350565b5b6200048f84828562000420565b509392505050565b600082601f830112620004af57620004ae6200034b565b5b8151620004c18482602086016200044c565b91505092915050565b6000819050919050565b620004df81620004ca565b8114620004eb57600080fd5b50565b600081519050620004ff81620004d4565b92915050565b600080600080600060a0868803121562000524576200052362000341565b5b600086015167ffffffffffffffff81111562000545576200054462000346565b5b620005538882890162000497565b95505060206200056688828901620004ee565b94505060406200057988828901620004ee565b93505060606200058c88828901620004ee565b92505060806200059f88828901620004ee565b9150509295509295909350565b600082825260208201905092915050565b7f546f75726e616d656e742068617320746f20737461727420617420746865206660008201527f7574757265000000000000000000000000000000000000000000000000000000602082015250565b60006200061b602583620005ac565b91506200062882620005bd565b604082019050919050565b600060208201905081810360008301526200064e816200060c565b9050919050565b7f546f75726e616d656e742068617320746f20656e64206166746572207374617260008201527f7400000000000000000000000000000000000000000000000000000000000000602082015250565b6000620006b3602183620005ac565b9150620006c08262000655565b604082019050919050565b60006020820190508181036000830152620006e681620006a4565b9050919050565b600081519050919050565b7f4e487b7100000000000000000000000000000000000000000000000000000000600052602260045260246000fd5b600060028204905060018216806200074057607f821691505b602082108103620007565762000755620006f8565b5b50919050565b60008190508160005260206000209050919050565b60006020601f8301049050919050565b600082821b905092915050565b600060088302620007c07fffffffffffffffffffffffffffffffffffffffffffffffffffffffffffffffff8262000781565b620007cc868362000781565b95508019841693508086168417925050509392505050565b6000819050919050565b60006200080f620008096200080384620004ca565b620007e4565b620004ca565b9050919050565b6000819050919050565b6200082b83620007ee565b620008436200083a8262000816565b8484546200078e565b825550505050565b600090565b6200085a6200084b565b6200086781848462000820565b505050565b5b818110156200088f576200088360008262000850565b6001810190506200086d565b5050565b601f821115620008de57620008a8816200075c565b620008b38462000771565b81016020851015620008c3578190505b620008db620008d28562000771565b8301826200086c565b50505b505050565b600082821c905092915050565b60006200090360001984600802620008e3565b1980831691505092915050565b60006200091e8383620008f0565b9150826002028217905092915050565b6200093982620006ed565b67ffffffffffffffff81111562000955576200095462000366565b5b62000961825462000727565b6200096e82828562000893565b600060209050601f831160018114620009a6576000841562000991578287015190505b6200099d858262000910565b86555062000a0d565b601f198416620009b6866200075c565b60005b82811015620009e057848901518255600182019150602085019450602081019050620009b9565b8683101562000a005784890151620009fc601f891682620008f0565b8355505b6001600288020188555050505b505050505050565b600062000a2282620006ed565b62000a2e8185620005ac565b935062000a4081856020860162000420565b62000a4b8162000355565b840191505092915050565b62000a6181620004ca565b82525050565b600060a082019050818103600083015262000a83818862000a15565b905062000a94602083018762000a56565b62000aa3604083018662000a56565b62000ab2606083018562000a56565b62000ac1608083018462000a56565b9695505050505050565b6126088062000adb6000396000f3fe608060405234801561001057600080fd5b50600436106101425760003560e01c806391d14854116100b8578063d0ebdbe71161007c578063d0ebdbe714610367578063d547741f14610383578063d9fca7691461039f578063dfbf53ae146103bb578063ec87621c146103d9578063f77fc801146103f757610142565b806391d14854146102c3578063a217fddf146102f3578063af74bc1414610311578063b62a0ac01461032f578063c4a796c11461034b57610142565b8063248a9ca31161010a578063248a9ca3146101ef5780632f2ff15d1461021f57806336568abe1461023b5780634768d4ef1461025757806379c4264b146102895780638bee4d3e146102a757610142565b8063014892a41461014757806301ffc9a7146101635780630ca31d3a1461019357806316c30ebc146101af5780631e0197e2146101cd575b600080fd5b610161600480360381019061015c919061153c565b610427565b005b61017d600480360381019061017891906115d4565b6105ea565b60405161018a919061161c565b60405180910390f35b6101ad60048036038101906101a89190611673565b610664565b005b6101b76106c7565b6040516101c491906116cc565b60405180910390f35b6101d56106eb565b6040516101e6959493929190611786565b60405180910390f35b6102096004803603810190610204919061180c565b610797565b60405161021691906116cc565b60405180910390f35b61023960048036038101906102349190611839565b6107b6565b005b61025560048036038101906102509190611839565b6107d8565b005b610271600480360381019061026c9190611879565b610853565b604051610280939291906118b5565b60405180910390f35b6102916108ad565b60405161029e91906118ec565b60405180910390f35b6102c160048036038101906102bc9190611a3c565b6108b3565b005b6102dd60048036038101906102d89190611839565b610a3c565b6040516102ea919061161c565b60405180910390f35b6102fb610aa6565b60405161030891906116cc565b60405180910390f35b610319610aad565b60405161032691906116cc565b60405180910390f35b61034960048036038101906103449190611bd4565b610ad1565b005b61036560048036038101906103609190611c43565b610b37565b005b610381600480360381019061037c9190611c43565b610b73565b005b61039d60048036038101906103989190611839565b610baf565b005b6103b960048036038101906103b49190611c43565b610bd1565b005b6103c3610ca1565b6040516103d09190611c7f565b60405180910390f35b6103e1610cc7565b6040516103ee91906116cc565b60405180910390f35b610411600480360381019061040c9190611c9a565b610ceb565b60405161041e9190611c7f565b60405180910390f35b6000801b61043481610d1e565b426003600101541161047b576040517f08c379a000000000000000000000000000000000000000000000000000000000815260040161047290611d13565b60405180910390fd5b6104a57fce04d177cfe9f73a7157bda35b0add7251966ad70509ceaef76ad7d5e6c4504284610a3c565b156104e5576040517f08c379a00000000000000000000000000000000000000000000000000000000081526004016104dc90611d7f565b60405180910390fd5b6009600081819054906101000a900463ffffffff168092919061050790611dce565b91906101000a81548163ffffffff021916908363ffffffff160217905550506105507fce04d177cfe9f73a7157bda35b0add7251966ad70509ceaef76ad7d5e6c4504284610d32565b506000826103e8600960009054906101000a900463ffffffff166105749190611dfa565b63ffffffff166105849190611e37565b905083600860008363ffffffff1663ffffffff16815260200190815260200160002060006101000a81548173ffffffffffffffffffffffffffffffffffffffff021916908373ffffffffffffffffffffffffffffffffffffffff16021790555050505050565b60007f7965db0b000000000000000000000000000000000000000000000000000000007bffffffffffffffffffffffffffffffffffffffffffffffffffffffff1916827bffffffffffffffffffffffffffffffffffffffffffffffffffffffff1916148061065d575061065c82610e23565b5b9050919050565b6000801b61067181610d1e565b42600360020154116106b8576040517f08c379a00000000000000000000000000000000000000000000000000000000081526004016106af90611eb7565b60405180910390fd5b6106c28383610e8d565b505050565b7fce04d177cfe9f73a7157bda35b0add7251966ad70509ceaef76ad7d5e6c4504281565b60038060000180546106fc90611f06565b80601f016020809104026020016040519081016040528092919081815260200182805461072890611f06565b80156107755780601f1061074a57610100808354040283529160200191610775565b820191906000526020600020905b81548152906001019060200180831161075857829003601f168201915b5050505050908060010154908060020154908060030154908060040154905085565b6000806000838152602001908152602001600020600101549050919050565b6107bf82610797565b6107c881610d1e565b6107d28383610d32565b50505050565b6107e061104d565b73ffffffffffffffffffffffffffffffffffffffff168173ffffffffffffffffffffffffffffffffffffffff1614610844576040517f6697b23200000000000000000000000000000000000000000000000000000000815260040160405180910390fd5b61084e8282611055565b505050565b60026020528060005260406000206000915090508060000160009054906101000a900463ffffffff16908060000160049054906101000a900463ffffffff16908060020160009054906101000a900463ffffffff16905083565b60015481565b6000801b6108c081610d1e565b4260036001015411610907576040517f08c379a00000000000000000000000000000000000000000000000000000000081526004016108fe90611d13565b60405180910390fd5b428511610949576040517f08c379a000000000000000000000000000000000000000000000000000000000815260040161094090611fa9565b60405180910390fd5b84841161098b576040517f08c379a00000000000000000000000000000000000000000000000000000000081526004016109829061203b565b60405180910390fd5b6040518060a0016040528087815260200186815260200185815260200184815260200183815250600360008201518160000190816109c99190612207565b50602082015181600101556040820151816002015560608201518160030155608082015181600401559050507f3b74d2c591a501617cec92c77aebcf079bdf90cedf6f9c583cad47a2d516f0de8686868686604051610a2c959493929190611786565b60405180910390a1505050505050565b600080600084815260200190815260200160002060000160008373ffffffffffffffffffffffffffffffffffffffff1673ffffffffffffffffffffffffffffffffffffffff16815260200190815260200160002060009054906101000a900460ff16905092915050565b6000801b81565b7faef88082b8671e875d97d0d6c81d06fb9e76f97b3ad7523a55a378e5298aeeee81565b6000801b610ade81610d1e565b426003600101541115610b26576040517f08c379a0000000000000000000000000000000000000000000000000000000008152600401610b1d90612325565b60405180910390fd5b610b31848484611147565b50505050565b6000801b610b4481610d1e565b610b6e7faef88082b8671e875d97d0d6c81d06fb9e76f97b3ad7523a55a378e5298aeeee83610d32565b505050565b6000801b610b8081610d1e565b610baa7f241ecf16d79d0f8dbfb92cbc07fe17840425976cf0667f022fe9877caa831b0883610d32565b505050565b610bb882610797565b610bc181610d1e565b610bcb8383611055565b50505050565b6000801b610bde81610d1e565b4260036002015410610c25576040517f08c379a0000000000000000000000000000000000000000000000000000000008152600401610c1c90612391565b60405180910390fd5b81600960046101000a81548173ffffffffffffffffffffffffffffffffffffffff021916908373ffffffffffffffffffffffffffffffffffffffff1602179055507f12bead0c51e5c766fb9cbd4b33032a5fad309c1929a6baa8a80db13134d16a2382604051610c959190611c7f565b60405180910390a15050565b600960049054906101000a900473ffffffffffffffffffffffffffffffffffffffff1681565b7f241ecf16d79d0f8dbfb92cbc07fe17840425976cf0667f022fe9877caa831b0881565b60086020528060005260406000206000915054906101000a900473ffffffffffffffffffffffffffffffffffffffff1681565b610d2f81610d2a61104d565b611376565b50565b6000610d3e8383610a3c565b610e1857600160008085815260200190815260200160002060000160008473ffffffffffffffffffffffffffffffffffffffff1673ffffffffffffffffffffffffffffffffffffffff16815260200190815260200160002060006101000a81548160ff021916908315150217905550610db561104d565b73ffffffffffffffffffffffffffffffffffffffff168273ffffffffffffffffffffffffffffffffffffffff16847f2f8788117e7eff1d82e926ec794901d17c78024a50270940304540a733656f0d60405160405180910390a460019050610e1d565b600090505b92915050565b60007f01ffc9a7000000000000000000000000000000000000000000000000000000007bffffffffffffffffffffffffffffffffffffffffffffffffffffffff1916827bffffffffffffffffffffffffffffffffffffffffffffffffffffffff1916149050919050565b60016000815480929190610ea0906123b1565b919050555060008263ffffffff16141580610ec2575060008163ffffffff1614155b610f01576040517f08c379a0000000000000000000000000000000000000000000000000000000008152600401610ef890612445565b60405180910390fd5b8063ffffffff168263ffffffff1603610f4f576040517f08c379a0000000000000000000000000000000000000000000000000000000008152600401610f46906124b1565b60405180910390fd5b8160026000600154815260200190815260200160002060000160006101000a81548163ffffffff021916908363ffffffff1602179055508060026000600154815260200190815260200160002060000160046101000a81548163ffffffff021916908363ffffffff16021790555060008263ffffffff1603611003578060026000600154815260200190815260200160002060020160006101000a81548163ffffffff021916908363ffffffff1602179055505b60008163ffffffff1603611049578160026000600154815260200190815260200160002060020160006101000a81548163ffffffff021916908363ffffffff1602179055505b5050565b600033905090565b60006110618383610a3c565b1561113c57600080600085815260200190815260200160002060000160008473ffffffffffffffffffffffffffffffffffffffff1673ffffffffffffffffffffffffffffffffffffffff16815260200190815260200160002060006101000a81548160ff0219169083151502179055506110d961104d565b73ffffffffffffffffffffffffffffffffffffffff168273ffffffffffffffffffffffffffffffffffffffff16847ff6391f5c32d9c69d2a47ea670b442974b53935d1edc7fd64eb21e047a839171b60405160405180910390a460019050611141565b600090505b92915050565b60006002600085815260200190815260200160002060020160009054906101000a900463ffffffff1663ffffffff16146111b6576040517f08c379a00000000000000000000000000000000000000000000000000000000081526004016111ad9061251d565b60405180910390fd5b60008160ff161180156111cd575060038160ff1611155b61120c576040517f08c379a000000000000000000000000000000000000000000000000000000000815260040161120390612589565b60405180910390fd5b6002600084815260200190815260200160002060010160405180604001604052808481526020018360ff168152509080600181540180825580915050600190039060005260206000209060020201600090919091909150600082015181600001908051906020019061127f9291906113c7565b5060208201518160010160006101000a81548160ff021916908360ff160217905550505060018160ff160361130a576002600084815260200190815260200160002060000160009054906101000a900463ffffffff166002600085815260200190815260200160002060020160006101000a81548163ffffffff021916908363ffffffff1602179055505b60038160ff1603611371576002600084815260200190815260200160002060000160049054906101000a900463ffffffff166002600085815260200190815260200160002060020160006101000a81548163ffffffff021916908363ffffffff1602179055505b505050565b6113808282610a3c565b6113c35780826040517fe2517d3f0000000000000000000000000000000000000000000000000000000081526004016113ba9291906125a9565b60405180910390fd5b5050565b828054828255906000526020600020906007016008900481019282156114665791602002820160005b8382111561143457835183826101000a81548163ffffffff021916908363ffffffff16021790555092602001926004016020816003010492830192600103026113f0565b80156114645782816101000a81549063ffffffff0219169055600401602081600301049283019260010302611434565b505b5090506114739190611477565b5090565b5b80821115611490576000816000905550600101611478565b5090565b6000604051905090565b600080fd5b600080fd5b600073ffffffffffffffffffffffffffffffffffffffff82169050919050565b60006114d3826114a8565b9050919050565b6114e3816114c8565b81146114ee57600080fd5b50565b600081359050611500816114da565b92915050565b6000819050919050565b61151981611506565b811461152457600080fd5b50565b60008135905061153681611510565b92915050565b600080604083850312156115535761155261149e565b5b6000611561858286016114f1565b925050602061157285828601611527565b9150509250929050565b60007fffffffff0000000000000000000000000000000000000000000000000000000082169050919050565b6115b18161157c565b81146115bc57600080fd5b50565b6000813590506115ce816115a8565b92915050565b6000602082840312156115ea576115e961149e565b5b60006115f8848285016115bf565b91505092915050565b60008115159050919050565b61161681611601565b82525050565b6000602082019050611631600083018461160d565b92915050565b600063ffffffff82169050919050565b61165081611637565b811461165b57600080fd5b50565b60008135905061166d81611647565b92915050565b6000806040838503121561168a5761168961149e565b5b60006116988582860161165e565b92505060206116a98582860161165e565b9150509250929050565b6000819050919050565b6116c6816116b3565b82525050565b60006020820190506116e160008301846116bd565b92915050565b600081519050919050565b600082825260208201905092915050565b60005b83811015611721578082015181840152602081019050611706565b60008484015250505050565b6000601f19601f8301169050919050565b6000611749826116e7565b61175381856116f2565b9350611763818560208601611703565b61176c8161172d565b840191505092915050565b61178081611506565b82525050565b600060a08201905081810360008301526117a0818861173e565b90506117af6020830187611777565b6117bc6040830186611777565b6117c96060830185611777565b6117d66080830184611777565b9695505050505050565b6117e9816116b3565b81146117f457600080fd5b50565b600081359050611806816117e0565b92915050565b6000602082840312156118225761182161149e565b5b6000611830848285016117f7565b91505092915050565b600080604083850312156118505761184f61149e565b5b600061185e858286016117f7565b925050602061186f858286016114f1565b9150509250929050565b60006020828403121561188f5761188e61149e565b5b600061189d84828501611527565b91505092915050565b6118af81611637565b82525050565b60006060820190506118ca60008301866118a6565b6118d760208301856118a6565b6118e460408301846118a6565b949350505050565b60006020820190506119016000830184611777565b92915050565b600080fd5b600080fd5b7f4e487b7100000000000000000000000000000000000000000000000000000000600052604160045260246000fd5b6119498261172d565b810181811067ffffffffffffffff8211171561196857611967611911565b5b80604052505050565b600061197b611494565b90506119878282611940565b919050565b600067ffffffffffffffff8211156119a7576119a6611911565b5b6119b08261172d565b9050602081019050919050565b82818337600083830152505050565b60006119df6119da8461198c565b611971565b9050828152602081018484840111156119fb576119fa61190c565b5b611a068482856119bd565b509392505050565b600082601f830112611a2357611a22611907565b5b8135611a338482602086016119cc565b91505092915050565b600080600080600060a08688031215611a5857611a5761149e565b5b600086013567ffffffffffffffff811115611a7657611a756114a3565b5b611a8288828901611a0e565b9550506020611a9388828901611527565b9450506040611aa488828901611527565b9350506060611ab588828901611527565b9250506080611ac688828901611527565b9150509295509295909350565b600067ffffffffffffffff821115611aee57611aed611911565b5b602082029050602081019050919050565b600080fd5b6000611b17611b1284611ad3565b611971565b90508083825260208201905060208402830185811115611b3a57611b39611aff565b5b835b81811015611b635780611b4f888261165e565b845260208401935050602081019050611b3c565b5050509392505050565b600082601f830112611b8257611b81611907565b5b8135611b92848260208601611b04565b91505092915050565b600060ff82169050919050565b611bb181611b9b565b8114611bbc57600080fd5b50565b600081359050611bce81611ba8565b92915050565b600080600060608486031215611bed57611bec61149e565b5b6000611bfb86828701611527565b935050602084013567ffffffffffffffff811115611c1c57611c1b6114a3565b5b611c2886828701611b6d565b9250506040611c3986828701611bbf565b9150509250925092565b600060208284031215611c5957611c5861149e565b5b6000611c67848285016114f1565b91505092915050565b611c79816114c8565b82525050565b6000602082019050611c946000830184611c70565b92915050565b600060208284031215611cb057611caf61149e565b5b6000611cbe8482850161165e565b91505092915050565b7f546f75726e616d656e742068617320616c647265616479207374617274656400600082015250565b6000611cfd601f836116f2565b9150611d0882611cc7565b602082019050919050565b60006020820190508181036000830152611d2c81611cf0565b9050919050565b7f54686973206164647265737320697320616c726561647920706c617965720000600082015250565b6000611d69601e836116f2565b9150611d7482611d33565b602082019050919050565b60006020820190508181036000830152611d9881611d5c565b9050919050565b7f4e487b7100000000000000000000000000000000000000000000000000000000600052601160045260246000fd5b6000611dd982611637565b915063ffffffff8203611def57611dee611d9f565b5b600182019050919050565b6000611e0582611637565b9150611e1083611637565b9250828202611e1e81611637565b9150808214611e3057611e2f611d9f565b5b5092915050565b6000611e4282611506565b9150611e4d83611506565b9250828201905080821115611e6557611e64611d9f565b5b92915050565b7f546f75726e616d656e742068617320616c64726561647920656e646564000000600082015250565b6000611ea1601d836116f2565b9150611eac82611e6b565b602082019050919050565b60006020820190508181036000830152611ed081611e94565b9050919050565b7f4e487b7100000000000000000000000000000000000000000000000000000000600052602260045260246000fd5b60006002820490506001821680611f1e57607f821691505b602082108103611f3157611f30611ed7565b5b50919050565b7f546f75726e616d656e742068617320746f20737461727420617420746865206660008201527f7574757265000000000000000000000000000000000000000000000000000000602082015250565b6000611f936025836116f2565b9150611f9e82611f37565b604082019050919050565b60006020820190508181036000830152611fc281611f86565b9050919050565b7f546f75726e616d656e742068617320746f20656e64206166746572207374617260008201527f7400000000000000000000000000000000000000000000000000000000000000602082015250565b60006120256021836116f2565b915061203082611fc9565b604082019050919050565b6000602082019050818103600083015261205481612018565b9050919050565b60008190508160005260206000209050919050565b60006020601f8301049050919050565b600082821b905092915050565b6000600883026120bd7fffffffffffffffffffffffffffffffffffffffffffffffffffffffffffffffff82612080565b6120c78683612080565b95508019841693508086168417925050509392505050565b6000819050919050565b60006121046120ff6120fa84611506565b6120df565b611506565b9050919050565b6000819050919050565b61211e836120e9565b61213261212a8261210b565b84845461208d565b825550505050565b600090565b61214761213a565b612152818484612115565b505050565b5b818110156121765761216b60008261213f565b600181019050612158565b5050565b601f8211156121bb5761218c8161205b565b61219584612070565b810160208510156121a4578190505b6121b86121b085612070565b830182612157565b50505b505050565b600082821c905092915050565b60006121de600019846008026121c0565b1980831691505092915050565b60006121f783836121cd565b9150826002028217905092915050565b612210826116e7565b67ffffffffffffffff81111561222957612228611911565b5b6122338254611f06565b61223e82828561217a565b600060209050601f831160018114612271576000841561225f578287015190505b61226985826121eb565b8655506122d1565b601f19841661227f8661205b565b60005b828110156122a757848901518255600182019150602085019450602081019050612282565b868310156122c457848901516122c0601f8916826121cd565b8355505b6001600288020188555050505b505050505050565b7f546f75726e616d656e7420646964206e6f742073746172740000000000000000600082015250565b600061230f6018836116f2565b915061231a826122d9565b602082019050919050565b6000602082019050818103600083015261233e81612302565b9050919050565b7f546f75726e616d656e7420646964206e6f7420656e6400000000000000000000600082015250565b600061237b6016836116f2565b915061238682612345565b602082019050919050565b600060208201905081810360008301526123aa8161236e565b9050919050565b60006123bc82611506565b91507fffffffffffffffffffffffffffffffffffffffffffffffffffffffffffffffff82036123ee576123ed611d9f565b5b600182019050919050565b7f506c6179657220706f736974696f6e2063616e206e6f74206265207a65726f00600082015250565b600061242f601f836116f2565b915061243a826123f9565b602082019050919050565b6000602082019050818103600083015261245e81612422565b9050919050565b7f4f7665726c617020706f736974696f6e00000000000000000000000000000000600082015250565b600061249b6010836116f2565b91506124a682612465565b602082019050919050565b600060208201905081810360008301526124ca8161248e565b9050919050565b7f4d6174636820616c726561647920686173207468652077696e6e657200000000600082015250565b6000612507601c836116f2565b9150612512826124d1565b602082019050919050565b60006020820190508181036000830152612536816124fa565b9050919050565b7f57726f6e672074797065206f6620726573756c74000000000000000000000000600082015250565b60006125736014836116f2565b915061257e8261253d565b602082019050919050565b600060208201905081810360008301526125a281612566565b9050919050565b60006040820190506125be6000830185611c70565b6125cb60208301846116bd565b939250505056fea26469706673582212205c59f7d210bcee7149d98023b34f9dcb5b80cdfaaf1672ed531f67816d5930a164736f6c63430008180033a2646970667358221220d5304d8f3bd073a8a68979df0e7223b4c44d3e533dff30112b833b452abe8ba064736f6c63430008180033","opcodes":"PUSH1 0x80 PUSH1 0x40 MSTORE CALLVALUE DUP1 ISZERO PUSH3 0x11 JUMPI PUSH1 0x0 DUP1 REVERT JUMPDEST POP CALLER PUSH1 0x0 PUSH20 0xFFFFFFFFFFFFFFFFFFFFFFFFFFFFFFFFFFFFFFFF AND DUP2 PUSH20 0xFFFFFFFFFFFFFFFFFFFFFFFFFFFFFFFFFFFFFFFF AND SUB PUSH3 0x88 JUMPI PUSH1 0x0 PUSH1 0x40 MLOAD PUSH32 0x1E4FBDF700000000000000000000000000000000000000000000000000000000 DUP2 MSTORE PUSH1 0x4 ADD PUSH3 0x7F SWAP2 SWAP1 PUSH3 0x1EA JUMP JUMPDEST PUSH1 0x40 MLOAD DUP1 SWAP2 SUB SWAP1 REVERT JUMPDEST PUSH3 0x99 DUP2 PUSH3 0xE1 PUSH1 0x20 SHL PUSH1 0x20 SHR JUMP JUMPDEST POP CALLER PUSH1 0x1 PUSH1 0x0 PUSH2 0x100 EXP DUP2 SLOAD DUP2 PUSH20 0xFFFFFFFFFFFFFFFFFFFFFFFFFFFFFFFFFFFFFFFF MUL NOT AND SWAP1 DUP4 PUSH20 0xFFFFFFFFFFFFFFFFFFFFFFFFFFFFFFFFFFFFFFFF AND MUL OR SWAP1 SSTORE POP PUSH3 0x207 JUMP JUMPDEST PUSH1 0x0 DUP1 PUSH1 0x0 SWAP1 SLOAD SWAP1 PUSH2 0x100 EXP SWAP1 DIV PUSH20 0xFFFFFFFFFFFFFFFFFFFFFFFFFFFFFFFFFFFFFFFF AND SWAP1 POP DUP2 PUSH1 0x0 DUP1 PUSH2 0x100 EXP DUP2 SLOAD DUP2 PUSH20 0xFFFFFFFFFFFFFFFFFFFFFFFFFFFFFFFFFFFFFFFF MUL NOT AND SWAP1 DUP4 PUSH20 0xFFFFFFFFFFFFFFFFFFFFFFFFFFFFFFFFFFFFFFFF AND MUL OR SWAP1 SSTORE POP DUP2 PUSH20 0xFFFFFFFFFFFFFFFFFFFFFFFFFFFFFFFFFFFFFFFF AND DUP2 PUSH20 0xFFFFFFFFFFFFFFFFFFFFFFFFFFFFFFFFFFFFFFFF AND PUSH32 0x8BE0079C531659141344CD1FD0A4F28419497F9722A3DAAFE3B4186F6B6457E0 PUSH1 0x40 MLOAD PUSH1 0x40 MLOAD DUP1 SWAP2 SUB SWAP1 LOG3 POP POP JUMP JUMPDEST PUSH1 0x0 PUSH20 0xFFFFFFFFFFFFFFFFFFFFFFFFFFFFFFFFFFFFFFFF DUP3 AND SWAP1 POP SWAP2 SWAP1 POP JUMP JUMPDEST PUSH1 0x0 PUSH3 0x1D2 DUP3 PUSH3 0x1A5 JUMP JUMPDEST SWAP1 POP SWAP2 SWAP1 POP JUMP JUMPDEST PUSH3 0x1E4 DUP2 PUSH3 0x1C5 JUMP JUMPDEST DUP3 MSTORE POP POP JUMP JUMPDEST PUSH1 0x0 PUSH1 0x20 DUP3 ADD SWAP1 POP PUSH3 0x201 PUSH1 0x0 DUP4 ADD DUP5 PUSH3 0x1D9 JUMP JUMPDEST SWAP3 SWAP2 POP POP JUMP JUMPDEST PUSH2 0x58CE DUP1 PUSH3 0x217 PUSH1 0x0 CODECOPY PUSH1 0x0 RETURN INVALID PUSH1 0x80 PUSH1 0x40 MSTORE PUSH1 0x4 CALLDATASIZE LT PUSH3 0xF7 JUMPI PUSH1 0x0 CALLDATALOAD PUSH1 0xE0 SHR DUP1 PUSH4 0x9373F432 GT PUSH3 0x8B JUMPI DUP1 PUSH4 0xB5C99C40 GT PUSH3 0x61 JUMPI DUP1 PUSH4 0xB5C99C40 EQ PUSH3 0x2AD JUMPI DUP1 PUSH4 0xDF9DE105 EQ PUSH3 0x2DB JUMPI DUP1 PUSH4 0xF2FDE38B EQ PUSH3 0x309 JUMPI DUP1 PUSH4 0xFCFB350D EQ PUSH3 0x337 JUMPI PUSH3 0xFF JUMP JUMPDEST DUP1 PUSH4 0x9373F432 EQ PUSH3 0x223 JUMPI DUP1 PUSH4 0xA97D17E6 EQ PUSH3 0x251 JUMPI DUP1 PUSH4 0xB3D2EFE1 EQ PUSH3 0x27F JUMPI PUSH3 0xFF JUMP JUMPDEST DUP1 PUSH4 0x715018A6 GT PUSH3 0xCD JUMPI DUP1 PUSH4 0x715018A6 EQ PUSH3 0x17D JUMPI DUP1 PUSH4 0x80220EFD EQ PUSH3 0x197 JUMPI DUP1 PUSH4 0x84F89FA8 EQ PUSH3 0x1C5 JUMPI DUP1 PUSH4 0x8DA5CB5B EQ PUSH3 0x1F3 JUMPI PUSH3 0xFF JUMP JUMPDEST DUP1 PUSH4 0x203EE514 EQ PUSH3 0x101 JUMPI DUP1 PUSH4 0x5875C61C EQ PUSH3 0x12F JUMPI DUP1 PUSH4 0x6159D2E6 EQ PUSH3 0x14F JUMPI PUSH3 0xFF JUMP JUMPDEST CALLDATASIZE PUSH3 0xFF JUMPI STOP JUMPDEST STOP JUMPDEST CALLVALUE DUP1 ISZERO PUSH3 0x10E JUMPI PUSH1 0x0 DUP1 REVERT JUMPDEST POP PUSH3 0x12D PUSH1 0x4 DUP1 CALLDATASIZE SUB DUP2 ADD SWAP1 PUSH3 0x127 SWAP2 SWAP1 PUSH3 0x16E9 JUMP JUMPDEST PUSH3 0x365 JUMP JUMPDEST STOP JUMPDEST PUSH3 0x14D PUSH1 0x4 DUP1 CALLDATASIZE SUB DUP2 ADD SWAP1 PUSH3 0x147 SWAP2 SWAP1 PUSH3 0x1745 JUMP JUMPDEST PUSH3 0x52C JUMP JUMPDEST STOP JUMPDEST CALLVALUE DUP1 ISZERO PUSH3 0x15C JUMPI PUSH1 0x0 DUP1 REVERT JUMPDEST POP PUSH3 0x17B PUSH1 0x4 DUP1 CALLDATASIZE SUB DUP2 ADD SWAP1 PUSH3 0x175 SWAP2 SWAP1 PUSH3 0x18EE JUMP JUMPDEST PUSH3 0x6E5 JUMP JUMPDEST STOP JUMPDEST CALLVALUE DUP1 ISZERO PUSH3 0x18A JUMPI PUSH1 0x0 DUP1 REVERT JUMPDEST POP PUSH3 0x195 PUSH3 0x89D JUMP JUMPDEST STOP JUMPDEST CALLVALUE DUP1 ISZERO PUSH3 0x1A4 JUMPI PUSH1 0x0 DUP1 REVERT JUMPDEST POP PUSH3 0x1C3 PUSH1 0x4 DUP1 CALLDATASIZE SUB DUP2 ADD SWAP1 PUSH3 0x1BD SWAP2 SWAP1 PUSH3 0x19A9 JUMP JUMPDEST PUSH3 0x8B5 JUMP JUMPDEST STOP JUMPDEST CALLVALUE DUP1 ISZERO PUSH3 0x1D2 JUMPI PUSH1 0x0 DUP1 REVERT JUMPDEST POP PUSH3 0x1F1 PUSH1 0x4 DUP1 CALLDATASIZE SUB DUP2 ADD SWAP1 PUSH3 0x1EB SWAP2 SWAP1 PUSH3 0x1A50 JUMP JUMPDEST PUSH3 0xA18 JUMP JUMPDEST STOP JUMPDEST CALLVALUE DUP1 ISZERO PUSH3 0x200 JUMPI PUSH1 0x0 DUP1 REVERT JUMPDEST POP PUSH3 0x20B PUSH3 0xAE4 JUMP JUMPDEST PUSH1 0x40 MLOAD PUSH3 0x21A SWAP2 SWAP1 PUSH3 0x1AC7 JUMP JUMPDEST PUSH1 0x40 MLOAD DUP1 SWAP2 SUB SWAP1 RETURN JUMPDEST CALLVALUE DUP1 ISZERO PUSH3 0x230 JUMPI PUSH1 0x0 DUP1 REVERT JUMPDEST POP PUSH3 0x24F PUSH1 0x4 DUP1 CALLDATASIZE SUB DUP2 ADD SWAP1 PUSH3 0x249 SWAP2 SWAP1 PUSH3 0x1B29 JUMP JUMPDEST PUSH3 0xB0D JUMP JUMPDEST STOP JUMPDEST CALLVALUE DUP1 ISZERO PUSH3 0x25E JUMPI PUSH1 0x0 DUP1 REVERT JUMPDEST POP PUSH3 0x27D PUSH1 0x4 DUP1 CALLDATASIZE SUB DUP2 ADD SWAP1 PUSH3 0x277 SWAP2 SWAP1 PUSH3 0x1B8C JUMP JUMPDEST PUSH3 0xB5B JUMP JUMPDEST STOP JUMPDEST CALLVALUE DUP1 ISZERO PUSH3 0x28C JUMPI PUSH1 0x0 DUP1 REVERT JUMPDEST POP PUSH3 0x2AB PUSH1 0x4 DUP1 CALLDATASIZE SUB DUP2 ADD SWAP1 PUSH3 0x2A5 SWAP2 SWAP1 PUSH3 0x1B8C JUMP JUMPDEST PUSH3 0xCEA JUMP JUMPDEST STOP JUMPDEST CALLVALUE DUP1 ISZERO PUSH3 0x2BA JUMPI PUSH1 0x0 DUP1 REVERT JUMPDEST POP PUSH3 0x2D9 PUSH1 0x4 DUP1 CALLDATASIZE SUB DUP2 ADD SWAP1 PUSH3 0x2D3 SWAP2 SWAP1 PUSH3 0x1B8C JUMP JUMPDEST PUSH3 0xDA0 JUMP JUMPDEST STOP JUMPDEST CALLVALUE DUP1 ISZERO PUSH3 0x2E8 JUMPI PUSH1 0x0 DUP1 REVERT JUMPDEST POP PUSH3 0x307 PUSH1 0x4 DUP1 CALLDATASIZE SUB DUP2 ADD SWAP1 PUSH3 0x301 SWAP2 SWAP1 PUSH3 0x1B8C JUMP JUMPDEST PUSH3 0xF64 JUMP JUMPDEST STOP JUMPDEST CALLVALUE DUP1 ISZERO PUSH3 0x316 JUMPI PUSH1 0x0 DUP1 REVERT JUMPDEST POP PUSH3 0x335 PUSH1 0x4 DUP1 CALLDATASIZE SUB DUP2 ADD SWAP1 PUSH3 0x32F SWAP2 SWAP1 PUSH3 0x1BD3 JUMP JUMPDEST PUSH3 0x1298 JUMP JUMPDEST STOP JUMPDEST CALLVALUE DUP1 ISZERO PUSH3 0x344 JUMPI PUSH1 0x0 DUP1 REVERT JUMPDEST POP PUSH3 0x363 PUSH1 0x4 DUP1 CALLDATASIZE SUB DUP2 ADD SWAP1 PUSH3 0x35D SWAP2 SWAP1 PUSH3 0x1D1E JUMP JUMPDEST PUSH3 0x1325 JUMP JUMPDEST STOP JUMPDEST DUP3 PUSH1 0x4 PUSH1 0x0 DUP3 DUP2 MSTORE PUSH1 0x20 ADD SWAP1 DUP2 MSTORE PUSH1 0x20 ADD PUSH1 0x0 KECCAK256 PUSH1 0x0 SWAP1 SLOAD SWAP1 PUSH2 0x100 EXP SWAP1 DIV PUSH20 0xFFFFFFFFFFFFFFFFFFFFFFFFFFFFFFFFFFFFFFFF AND PUSH20 0xFFFFFFFFFFFFFFFFFFFFFFFFFFFFFFFFFFFFFFFF AND PUSH4 0x91D14854 PUSH32 0x241ECF16D79D0F8DBFB92CBC07FE17840425976CF0667F022FE9877CAA831B08 CALLER PUSH1 0x40 MLOAD DUP4 PUSH4 0xFFFFFFFF AND PUSH1 0xE0 SHL DUP2 MSTORE PUSH1 0x4 ADD PUSH3 0x3F6 SWAP3 SWAP2 SWAP1 PUSH3 0x1DCA JUMP JUMPDEST PUSH1 0x20 PUSH1 0x40 MLOAD DUP1 DUP4 SUB DUP2 DUP7 GAS STATICCALL ISZERO DUP1 ISZERO PUSH3 0x414 JUMPI RETURNDATASIZE PUSH1 0x0 DUP1 RETURNDATACOPY RETURNDATASIZE PUSH1 0x0 REVERT JUMPDEST POP POP POP POP PUSH1 0x40 MLOAD RETURNDATASIZE PUSH1 0x1F NOT PUSH1 0x1F DUP3 ADD AND DUP3 ADD DUP1 PUSH1 0x40 MSTORE POP DUP2 ADD SWAP1 PUSH3 0x43A SWAP2 SWAP1 PUSH3 0x1E34 JUMP JUMPDEST PUSH3 0x47C JUMPI PUSH1 0x40 MLOAD PUSH32 0x8C379A000000000000000000000000000000000000000000000000000000000 DUP2 MSTORE PUSH1 0x4 ADD PUSH3 0x473 SWAP1 PUSH3 0x1EED JUMP JUMPDEST PUSH1 0x40 MLOAD DUP1 SWAP2 SUB SWAP1 REVERT JUMPDEST PUSH1 0x0 PUSH1 0x4 PUSH1 0x0 DUP7 DUP2 MSTORE PUSH1 0x20 ADD SWAP1 DUP2 MSTORE PUSH1 0x20 ADD PUSH1 0x0 KECCAK256 PUSH1 0x0 SWAP1 SLOAD SWAP1 PUSH2 0x100 EXP SWAP1 DIV PUSH20 0xFFFFFFFFFFFFFFFFFFFFFFFFFFFFFFFFFFFFFFFF AND SWAP1 POP DUP1 PUSH20 0xFFFFFFFFFFFFFFFFFFFFFFFFFFFFFFFFFFFFFFFF AND PUSH4 0xCA31D3A DUP6 DUP6 PUSH1 0x40 MLOAD DUP4 PUSH4 0xFFFFFFFF AND PUSH1 0xE0 SHL DUP2 MSTORE PUSH1 0x4 ADD PUSH3 0x4F1 SWAP3 SWAP2 SWAP1 PUSH3 0x1F20 JUMP JUMPDEST PUSH1 0x0 PUSH1 0x40 MLOAD DUP1 DUP4 SUB DUP2 PUSH1 0x0 DUP8 DUP1 EXTCODESIZE ISZERO DUP1 ISZERO PUSH3 0x50C JUMPI PUSH1 0x0 DUP1 REVERT JUMPDEST POP GAS CALL ISZERO DUP1 ISZERO PUSH3 0x521 JUMPI RETURNDATASIZE PUSH1 0x0 DUP1 RETURNDATACOPY RETURNDATASIZE PUSH1 0x0 REVERT JUMPDEST POP POP POP POP POP POP POP POP POP JUMP JUMPDEST PUSH1 0x0 PUSH1 0x4 PUSH1 0x0 DUP5 DUP2 MSTORE PUSH1 0x20 ADD SWAP1 DUP2 MSTORE PUSH1 0x20 ADD PUSH1 0x0 KECCAK256 PUSH1 0x0 SWAP1 SLOAD SWAP1 PUSH2 0x100 EXP SWAP1 DIV PUSH20 0xFFFFFFFFFFFFFFFFFFFFFFFFFFFFFFFFFFFFFFFF AND SWAP1 POP PUSH1 0x0 DUP2 PUSH20 0xFFFFFFFFFFFFFFFFFFFFFFFFFFFFFFFFFFFFFFFF AND PUSH4 0x1E0197E2 PUSH1 0x40 MLOAD DUP2 PUSH4 0xFFFFFFFF AND PUSH1 0xE0 SHL DUP2 MSTORE PUSH1 0x4 ADD PUSH1 0x0 PUSH1 0x40 MLOAD DUP1 DUP4 SUB DUP2 DUP7 GAS STATICCALL ISZERO DUP1 ISZERO PUSH3 0x5B2 JUMPI RETURNDATASIZE PUSH1 0x0 DUP1 RETURNDATACOPY RETURNDATASIZE PUSH1 0x0 REVERT JUMPDEST POP POP POP POP PUSH1 0x40 MLOAD RETURNDATASIZE PUSH1 0x0 DUP3 RETURNDATACOPY RETURNDATASIZE PUSH1 0x1F NOT PUSH1 0x1F DUP3 ADD AND DUP3 ADD DUP1 PUSH1 0x40 MSTORE POP DUP2 ADD SWAP1 PUSH3 0x5DD SWAP2 SWAP1 PUSH3 0x200E JUMP JUMPDEST SWAP1 SWAP2 SWAP3 SWAP4 POP SWAP1 SWAP2 SWAP3 POP SWAP1 SWAP2 POP POP DUP1 SWAP2 POP POP DUP1 CALLVALUE EQ PUSH3 0x633 JUMPI PUSH1 0x40 MLOAD PUSH32 0x8C379A000000000000000000000000000000000000000000000000000000000 DUP2 MSTORE PUSH1 0x4 ADD PUSH3 0x62A SWAP1 PUSH3 0x212B JUMP JUMPDEST PUSH1 0x40 MLOAD DUP1 SWAP2 SUB SWAP1 REVERT JUMPDEST DUP2 PUSH20 0xFFFFFFFFFFFFFFFFFFFFFFFFFFFFFFFFFFFFFFFF AND PUSH4 0x14892A4 CALLER DUP6 PUSH1 0x40 MLOAD DUP4 PUSH4 0xFFFFFFFF AND PUSH1 0xE0 SHL DUP2 MSTORE PUSH1 0x4 ADD PUSH3 0x670 SWAP3 SWAP2 SWAP1 PUSH3 0x215E JUMP JUMPDEST PUSH1 0x0 PUSH1 0x40 MLOAD DUP1 DUP4 SUB DUP2 PUSH1 0x0 DUP8 DUP1 EXTCODESIZE ISZERO DUP1 ISZERO PUSH3 0x68B JUMPI PUSH1 0x0 DUP1 REVERT JUMPDEST POP GAS CALL ISZERO DUP1 ISZERO PUSH3 0x6A0 JUMPI RETURNDATASIZE PUSH1 0x0 DUP1 RETURNDATACOPY RETURNDATASIZE PUSH1 0x0 REVERT JUMPDEST POP POP POP POP PUSH32 0xB1C49079A0D59012846675CC20A8BBF8D52B2207A01BC968E01C89CB3571DE5E DUP3 CALLER PUSH1 0x40 MLOAD PUSH3 0x6D7 SWAP3 SWAP2 SWAP1 PUSH3 0x218B JUMP JUMPDEST PUSH1 0x40 MLOAD DUP1 SWAP2 SUB SWAP1 LOG1 POP POP POP POP JUMP JUMPDEST PUSH3 0x6EF PUSH3 0x14EF JUMP JUMPDEST PUSH1 0x0 DUP1 PUSH1 0x4 PUSH1 0x0 DUP10 DUP2 MSTORE PUSH1 0x20 ADD SWAP1 DUP2 MSTORE PUSH1 0x20 ADD PUSH1 0x0 KECCAK256 PUSH1 0x0 SWAP1 SLOAD SWAP1 PUSH2 0x100 EXP SWAP1 DIV PUSH20 0xFFFFFFFFFFFFFFFFFFFFFFFFFFFFFFFFFFFFFFFF AND SWAP1 POP DUP1 PUSH20 0xFFFFFFFFFFFFFFFFFFFFFFFFFFFFFFFFFFFFFFFF AND PUSH4 0x1E0197E2 PUSH1 0x40 MLOAD DUP2 PUSH4 0xFFFFFFFF AND PUSH1 0xE0 SHL DUP2 MSTORE PUSH1 0x4 ADD PUSH1 0x0 PUSH1 0x40 MLOAD DUP1 DUP4 SUB DUP2 DUP7 GAS STATICCALL ISZERO DUP1 ISZERO PUSH3 0x774 JUMPI RETURNDATASIZE PUSH1 0x0 DUP1 RETURNDATACOPY RETURNDATASIZE PUSH1 0x0 REVERT JUMPDEST POP POP POP POP PUSH1 0x40 MLOAD RETURNDATASIZE PUSH1 0x0 DUP3 RETURNDATACOPY RETURNDATASIZE PUSH1 0x1F NOT PUSH1 0x1F DUP3 ADD AND DUP3 ADD DUP1 PUSH1 0x40 MSTORE POP DUP2 ADD SWAP1 PUSH3 0x79F SWAP2 SWAP1 PUSH3 0x200E JUMP JUMPDEST SWAP1 SWAP2 SWAP3 SWAP4 POP SWAP1 SWAP2 SWAP3 POP SWAP1 SWAP2 POP SWAP1 POP DUP1 SWAP3 POP POP DUP2 DUP4 PUSH1 0x2 SLOAD PUSH3 0x7C2 SWAP2 SWAP1 PUSH3 0x21E7 JUMP JUMPDEST PUSH3 0x7CE SWAP2 SWAP1 PUSH3 0x2222 JUMP JUMPDEST PUSH1 0x2 DUP2 SWAP1 SSTORE POP PUSH1 0x2 SLOAD SELFBALANCE LT ISZERO PUSH3 0x81C JUMPI PUSH1 0x40 MLOAD PUSH32 0x8C379A000000000000000000000000000000000000000000000000000000000 DUP2 MSTORE PUSH1 0x4 ADD PUSH3 0x813 SWAP1 PUSH3 0x22AD JUMP JUMPDEST PUSH1 0x40 MLOAD DUP1 SWAP2 SUB SWAP1 REVERT JUMPDEST DUP1 PUSH20 0xFFFFFFFFFFFFFFFFFFFFFFFFFFFFFFFFFFFFFFFF AND PUSH4 0x8BEE4D3E DUP9 DUP9 DUP9 DUP9 DUP9 PUSH1 0x40 MLOAD DUP7 PUSH4 0xFFFFFFFF AND PUSH1 0xE0 SHL DUP2 MSTORE PUSH1 0x4 ADD PUSH3 0x85F SWAP6 SWAP5 SWAP4 SWAP3 SWAP2 SWAP1 PUSH3 0x231B JUMP JUMPDEST PUSH1 0x0 PUSH1 0x40 MLOAD DUP1 DUP4 SUB DUP2 PUSH1 0x0 DUP8 DUP1 EXTCODESIZE ISZERO DUP1 ISZERO PUSH3 0x87A JUMPI PUSH1 0x0 DUP1 REVERT JUMPDEST POP GAS CALL ISZERO DUP1 ISZERO PUSH3 0x88F JUMPI RETURNDATASIZE PUSH1 0x0 DUP1 RETURNDATACOPY RETURNDATASIZE PUSH1 0x0 REVERT JUMPDEST POP POP POP POP POP POP POP POP POP POP POP POP JUMP JUMPDEST PUSH3 0x8A7 PUSH3 0x14EF JUMP JUMPDEST PUSH3 0x8B3 PUSH1 0x0 PUSH3 0x157F JUMP JUMPDEST JUMP JUMPDEST PUSH3 0x8BF PUSH3 0x14EF JUMP JUMPDEST DUP1 PUSH1 0x2 PUSH1 0x0 DUP3 DUP3 SLOAD PUSH3 0x8D3 SWAP2 SWAP1 PUSH3 0x21E7 JUMP JUMPDEST SWAP3 POP POP DUP2 SWAP1 SSTORE POP PUSH1 0x3 PUSH1 0x0 DUP2 SLOAD DUP1 SWAP3 SWAP2 SWAP1 PUSH3 0x8EF SWAP1 PUSH3 0x237F JUMP JUMPDEST SWAP2 SWAP1 POP SSTORE POP PUSH1 0x2 SLOAD SELFBALANCE LT ISZERO PUSH3 0x93C JUMPI PUSH1 0x40 MLOAD PUSH32 0x8C379A000000000000000000000000000000000000000000000000000000000 DUP2 MSTORE PUSH1 0x4 ADD PUSH3 0x933 SWAP1 PUSH3 0x22AD JUMP JUMPDEST PUSH1 0x40 MLOAD DUP1 SWAP2 SUB SWAP1 REVERT JUMPDEST PUSH1 0x0 DUP6 DUP6 DUP6 DUP6 DUP6 PUSH1 0x40 MLOAD PUSH3 0x951 SWAP1 PUSH3 0x164B JUMP JUMPDEST PUSH3 0x961 SWAP6 SWAP5 SWAP4 SWAP3 SWAP2 SWAP1 PUSH3 0x231B JUMP JUMPDEST PUSH1 0x40 MLOAD DUP1 SWAP2 SUB SWAP1 PUSH1 0x0 CREATE DUP1 ISZERO DUP1 ISZERO PUSH3 0x97E JUMPI RETURNDATASIZE PUSH1 0x0 DUP1 RETURNDATACOPY RETURNDATASIZE PUSH1 0x0 REVERT JUMPDEST POP SWAP1 POP DUP1 PUSH1 0x4 PUSH1 0x0 PUSH1 0x3 SLOAD DUP2 MSTORE PUSH1 0x20 ADD SWAP1 DUP2 MSTORE PUSH1 0x20 ADD PUSH1 0x0 KECCAK256 PUSH1 0x0 PUSH2 0x100 EXP DUP2 SLOAD DUP2 PUSH20 0xFFFFFFFFFFFFFFFFFFFFFFFFFFFFFFFFFFFFFFFF MUL NOT AND SWAP1 DUP4 PUSH20 0xFFFFFFFFFFFFFFFFFFFFFFFFFFFFFFFFFFFFFFFF AND MUL OR SWAP1 SSTORE POP PUSH32 0x6CC0C3F2D754103E39FBDF8D0BFADCA4A4EDB26680B1715F5133A23A6A59AE1D PUSH1 0x3 SLOAD PUSH1 0x40 MLOAD PUSH3 0xA08 SWAP2 SWAP1 PUSH3 0x23CC JUMP JUMPDEST PUSH1 0x40 MLOAD DUP1 SWAP2 SUB SWAP1 LOG1 POP POP POP POP POP POP JUMP JUMPDEST PUSH3 0xA22 PUSH3 0x14EF JUMP JUMPDEST PUSH1 0x2 SLOAD DUP2 PUSH3 0xA32 SWAP2 SWAP1 PUSH3 0x21E7 JUMP JUMPDEST SELFBALANCE LT ISZERO PUSH3 0xA77 JUMPI PUSH1 0x40 MLOAD PUSH32 0x8C379A000000000000000000000000000000000000000000000000000000000 DUP2 MSTORE PUSH1 0x4 ADD PUSH3 0xA6E SWAP1 PUSH3 0x245F JUMP JUMPDEST PUSH1 0x40 MLOAD DUP1 SWAP2 SUB SWAP1 REVERT JUMPDEST PUSH1 0x1 PUSH1 0x0 SWAP1 SLOAD SWAP1 PUSH2 0x100 EXP SWAP1 DIV PUSH20 0xFFFFFFFFFFFFFFFFFFFFFFFFFFFFFFFFFFFFFFFF AND PUSH20 0xFFFFFFFFFFFFFFFFFFFFFFFFFFFFFFFFFFFFFFFF AND PUSH2 0x8FC DUP3 SWAP1 DUP2 ISZERO MUL SWAP1 PUSH1 0x40 MLOAD PUSH1 0x0 PUSH1 0x40 MLOAD DUP1 DUP4 SUB DUP2 DUP6 DUP9 DUP9 CALL SWAP4 POP POP POP POP ISZERO DUP1 ISZERO PUSH3 0xAE0 JUMPI RETURNDATASIZE PUSH1 0x0 DUP1 RETURNDATACOPY RETURNDATASIZE PUSH1 0x0 REVERT JUMPDEST POP POP JUMP JUMPDEST PUSH1 0x0 DUP1 PUSH1 0x0 SWAP1 SLOAD SWAP1 PUSH2 0x100 EXP SWAP1 DIV PUSH20 0xFFFFFFFFFFFFFFFFFFFFFFFFFFFFFFFFFFFFFFFF AND SWAP1 POP SWAP1 JUMP JUMPDEST PUSH3 0xB17 PUSH3 0x14EF JUMP JUMPDEST DUP1 PUSH1 0x1 PUSH1 0x0 PUSH2 0x100 EXP DUP2 SLOAD DUP2 PUSH20 0xFFFFFFFFFFFFFFFFFFFFFFFFFFFFFFFFFFFFFFFF MUL NOT AND SWAP1 DUP4 PUSH20 0xFFFFFFFFFFFFFFFFFFFFFFFFFFFFFFFFFFFFFFFF AND MUL OR SWAP1 SSTORE POP POP JUMP JUMPDEST PUSH1 0x0 PUSH1 0x4 PUSH1 0x0 DUP5 DUP2 MSTORE PUSH1 0x20 ADD SWAP1 DUP2 MSTORE PUSH1 0x20 ADD PUSH1 0x0 KECCAK256 PUSH1 0x0 SWAP1 SLOAD SWAP1 PUSH2 0x100 EXP SWAP1 DIV PUSH20 0xFFFFFFFFFFFFFFFFFFFFFFFFFFFFFFFFFFFFFFFF AND SWAP1 POP DUP1 PUSH20 0xFFFFFFFFFFFFFFFFFFFFFFFFFFFFFFFFFFFFFFFF AND PUSH4 0x91D14854 PUSH32 0xAEF88082B8671E875D97D0D6C81D06FB9E76F97B3AD7523A55A378E5298AEEEE CALLER PUSH1 0x40 MLOAD DUP4 PUSH4 0xFFFFFFFF AND PUSH1 0xE0 SHL DUP2 MSTORE PUSH1 0x4 ADD PUSH3 0xBF0 SWAP3 SWAP2 SWAP1 PUSH3 0x1DCA JUMP JUMPDEST PUSH1 0x20 PUSH1 0x40 MLOAD DUP1 DUP4 SUB DUP2 DUP7 GAS STATICCALL ISZERO DUP1 ISZERO PUSH3 0xC0E JUMPI RETURNDATASIZE PUSH1 0x0 DUP1 RETURNDATACOPY RETURNDATASIZE PUSH1 0x0 REVERT JUMPDEST POP POP POP POP PUSH1 0x40 MLOAD RETURNDATASIZE PUSH1 0x1F NOT PUSH1 0x1F DUP3 ADD AND DUP3 ADD DUP1 PUSH1 0x40 MSTORE POP DUP2 ADD SWAP1 PUSH3 0xC34 SWAP2 SWAP1 PUSH3 0x1E34 JUMP JUMPDEST PUSH3 0xC76 JUMPI PUSH1 0x40 MLOAD PUSH32 0x8C379A000000000000000000000000000000000000000000000000000000000 DUP2 MSTORE PUSH1 0x4 ADD PUSH3 0xC6D SWAP1 PUSH3 0x24F7 JUMP JUMPDEST PUSH1 0x40 MLOAD DUP1 SWAP2 SUB SWAP1 REVERT JUMPDEST DUP1 PUSH20 0xFFFFFFFFFFFFFFFFFFFFFFFFFFFFFFFFFFFFFFFF AND PUSH4 0xC4A796C1 DUP4 PUSH1 0x40 MLOAD DUP3 PUSH4 0xFFFFFFFF AND PUSH1 0xE0 SHL DUP2 MSTORE PUSH1 0x4 ADD PUSH3 0xCB1 SWAP2 SWAP1 PUSH3 0x1AC7 JUMP JUMPDEST PUSH1 0x0 PUSH1 0x40 MLOAD DUP1 DUP4 SUB DUP2 PUSH1 0x0 DUP8 DUP1 EXTCODESIZE ISZERO DUP1 ISZERO PUSH3 0xCCC JUMPI PUSH1 0x0 DUP1 REVERT JUMPDEST POP GAS CALL ISZERO DUP1 ISZERO PUSH3 0xCE1 JUMPI RETURNDATASIZE PUSH1 0x0 DUP1 RETURNDATACOPY RETURNDATASIZE PUSH1 0x0 REVERT JUMPDEST POP POP POP POP POP POP POP JUMP JUMPDEST PUSH3 0xCF4 PUSH3 0x14EF JUMP JUMPDEST PUSH1 0x0 PUSH1 0x4 PUSH1 0x0 DUP5 DUP2 MSTORE PUSH1 0x20 ADD SWAP1 DUP2 MSTORE PUSH1 0x20 ADD PUSH1 0x0 KECCAK256 PUSH1 0x0 SWAP1 SLOAD SWAP1 PUSH2 0x100 EXP SWAP1 DIV PUSH20 0xFFFFFFFFFFFFFFFFFFFFFFFFFFFFFFFFFFFFFFFF AND SWAP1 POP DUP1 PUSH20 0xFFFFFFFFFFFFFFFFFFFFFFFFFFFFFFFFFFFFFFFF AND PUSH4 0xD0EBDBE7 DUP4 PUSH1 0x40 MLOAD DUP3 PUSH4 0xFFFFFFFF AND PUSH1 0xE0 SHL DUP2 MSTORE PUSH1 0x4 ADD PUSH3 0xD67 SWAP2 SWAP1 PUSH3 0x1AC7 JUMP JUMPDEST PUSH1 0x0 PUSH1 0x40 MLOAD DUP1 DUP4 SUB DUP2 PUSH1 0x0 DUP8 DUP1 EXTCODESIZE ISZERO DUP1 ISZERO PUSH3 0xD82 JUMPI PUSH1 0x0 DUP1 REVERT JUMPDEST POP GAS CALL ISZERO DUP1 ISZERO PUSH3 0xD97 JUMPI RETURNDATASIZE PUSH1 0x0 DUP1 RETURNDATACOPY RETURNDATASIZE PUSH1 0x0 REVERT JUMPDEST POP POP POP POP POP POP POP JUMP JUMPDEST DUP2 PUSH1 0x4 PUSH1 0x0 DUP3 DUP2 MSTORE PUSH1 0x20 ADD SWAP1 DUP2 MSTORE PUSH1 0x20 ADD PUSH1 0x0 KECCAK256 PUSH1 0x0 SWAP1 SLOAD SWAP1 PUSH2 0x100 EXP SWAP1 DIV PUSH20 0xFFFFFFFFFFFFFFFFFFFFFFFFFFFFFFFFFFFFFFFF AND PUSH20 0xFFFFFFFFFFFFFFFFFFFFFFFFFFFFFFFFFFFFFFFF AND PUSH4 0x91D14854 PUSH32 0x241ECF16D79D0F8DBFB92CBC07FE17840425976CF0667F022FE9877CAA831B08 CALLER PUSH1 0x40 MLOAD DUP4 PUSH4 0xFFFFFFFF AND PUSH1 0xE0 SHL DUP2 MSTORE PUSH1 0x4 ADD PUSH3 0xE31 SWAP3 SWAP2 SWAP1 PUSH3 0x1DCA JUMP JUMPDEST PUSH1 0x20 PUSH1 0x40 MLOAD DUP1 DUP4 SUB DUP2 DUP7 GAS STATICCALL ISZERO DUP1 ISZERO PUSH3 0xE4F JUMPI RETURNDATASIZE PUSH1 0x0 DUP1 RETURNDATACOPY RETURNDATASIZE PUSH1 0x0 REVERT JUMPDEST POP POP POP POP PUSH1 0x40 MLOAD RETURNDATASIZE PUSH1 0x1F NOT PUSH1 0x1F DUP3 ADD AND DUP3 ADD DUP1 PUSH1 0x40 MSTORE POP DUP2 ADD SWAP1 PUSH3 0xE75 SWAP2 SWAP1 PUSH3 0x1E34 JUMP JUMPDEST PUSH3 0xEB7 JUMPI PUSH1 0x40 MLOAD PUSH32 0x8C379A000000000000000000000000000000000000000000000000000000000 DUP2 MSTORE PUSH1 0x4 ADD PUSH3 0xEAE SWAP1 PUSH3 0x1EED JUMP JUMPDEST PUSH1 0x40 MLOAD DUP1 SWAP2 SUB SWAP1 REVERT JUMPDEST PUSH1 0x0 PUSH1 0x4 PUSH1 0x0 DUP6 DUP2 MSTORE PUSH1 0x20 ADD SWAP1 DUP2 MSTORE PUSH1 0x20 ADD PUSH1 0x0 KECCAK256 PUSH1 0x0 SWAP1 SLOAD SWAP1 PUSH2 0x100 EXP SWAP1 DIV PUSH20 0xFFFFFFFFFFFFFFFFFFFFFFFFFFFFFFFFFFFFFFFF AND SWAP1 POP DUP1 PUSH20 0xFFFFFFFFFFFFFFFFFFFFFFFFFFFFFFFFFFFFFFFF AND PUSH4 0xC4A796C1 DUP5 PUSH1 0x40 MLOAD DUP3 PUSH4 0xFFFFFFFF AND PUSH1 0xE0 SHL DUP2 MSTORE PUSH1 0x4 ADD PUSH3 0xF2A SWAP2 SWAP1 PUSH3 0x1AC7 JUMP JUMPDEST PUSH1 0x0 PUSH1 0x40 MLOAD DUP1 DUP4 SUB DUP2 PUSH1 0x0 DUP8 DUP1 EXTCODESIZE ISZERO DUP1 ISZERO PUSH3 0xF45 JUMPI PUSH1 0x0 DUP1 REVERT JUMPDEST POP GAS CALL ISZERO DUP1 ISZERO PUSH3 0xF5A JUMPI RETURNDATASIZE PUSH1 0x0 DUP1 RETURNDATACOPY RETURNDATASIZE PUSH1 0x0 REVERT JUMPDEST POP POP POP POP POP POP POP POP JUMP JUMPDEST PUSH3 0xF6E PUSH3 0x14EF JUMP JUMPDEST PUSH1 0x0 PUSH1 0x4 PUSH1 0x0 DUP5 DUP2 MSTORE PUSH1 0x20 ADD SWAP1 DUP2 MSTORE PUSH1 0x20 ADD PUSH1 0x0 KECCAK256 PUSH1 0x0 SWAP1 SLOAD SWAP1 PUSH2 0x100 EXP SWAP1 DIV PUSH20 0xFFFFFFFFFFFFFFFFFFFFFFFFFFFFFFFFFFFFFFFF AND SWAP1 POP PUSH1 0x0 PUSH20 0xFFFFFFFFFFFFFFFFFFFFFFFFFFFFFFFFFFFFFFFF AND DUP2 PUSH20 0xFFFFFFFFFFFFFFFFFFFFFFFFFFFFFFFFFFFFFFFF AND PUSH4 0xDFBF53AE PUSH1 0x40 MLOAD DUP2 PUSH4 0xFFFFFFFF AND PUSH1 0xE0 SHL DUP2 MSTORE PUSH1 0x4 ADD PUSH1 0x20 PUSH1 0x40 MLOAD DUP1 DUP4 SUB DUP2 DUP7 GAS STATICCALL ISZERO DUP1 ISZERO PUSH3 0x100A JUMPI RETURNDATASIZE PUSH1 0x0 DUP1 RETURNDATACOPY RETURNDATASIZE PUSH1 0x0 REVERT JUMPDEST POP POP POP POP PUSH1 0x40 MLOAD RETURNDATASIZE PUSH1 0x1F NOT PUSH1 0x1F DUP3 ADD AND DUP3 ADD DUP1 PUSH1 0x40 MSTORE POP DUP2 ADD SWAP1 PUSH3 0x1030 SWAP2 SWAP1 PUSH3 0x2530 JUMP JUMPDEST PUSH20 0xFFFFFFFFFFFFFFFFFFFFFFFFFFFFFFFFFFFFFFFF AND SUB PUSH3 0x1089 JUMPI PUSH1 0x40 MLOAD PUSH32 0x8C379A000000000000000000000000000000000000000000000000000000000 DUP2 MSTORE PUSH1 0x4 ADD PUSH3 0x1080 SWAP1 PUSH3 0x25D8 JUMP JUMPDEST PUSH1 0x40 MLOAD DUP1 SWAP2 SUB SWAP1 REVERT JUMPDEST DUP2 PUSH20 0xFFFFFFFFFFFFFFFFFFFFFFFFFFFFFFFFFFFFFFFF AND DUP2 PUSH20 0xFFFFFFFFFFFFFFFFFFFFFFFFFFFFFFFFFFFFFFFF AND PUSH4 0xDFBF53AE PUSH1 0x40 MLOAD DUP2 PUSH4 0xFFFFFFFF AND PUSH1 0xE0 SHL DUP2 MSTORE PUSH1 0x4 ADD PUSH1 0x20 PUSH1 0x40 MLOAD DUP1 DUP4 SUB DUP2 DUP7 GAS STATICCALL ISZERO DUP1 ISZERO PUSH3 0x10EC JUMPI RETURNDATASIZE PUSH1 0x0 DUP1 RETURNDATACOPY RETURNDATASIZE PUSH1 0x0 REVERT JUMPDEST POP POP POP POP PUSH1 0x40 MLOAD RETURNDATASIZE PUSH1 0x1F NOT PUSH1 0x1F DUP3 ADD AND DUP3 ADD DUP1 PUSH1 0x40 MSTORE POP DUP2 ADD SWAP1 PUSH3 0x1112 SWAP2 SWAP1 PUSH3 0x2530 JUMP JUMPDEST PUSH20 0xFFFFFFFFFFFFFFFFFFFFFFFFFFFFFFFFFFFFFFFF AND EQ PUSH3 0x116B JUMPI PUSH1 0x40 MLOAD PUSH32 0x8C379A000000000000000000000000000000000000000000000000000000000 DUP2 MSTORE PUSH1 0x4 ADD PUSH3 0x1162 SWAP1 PUSH3 0x2670 JUMP JUMPDEST PUSH1 0x40 MLOAD DUP1 SWAP2 SUB SWAP1 REVERT JUMPDEST PUSH1 0x0 DUP2 PUSH20 0xFFFFFFFFFFFFFFFFFFFFFFFFFFFFFFFFFFFFFFFF AND PUSH4 0x1E0197E2 PUSH1 0x40 MLOAD DUP2 PUSH4 0xFFFFFFFF AND PUSH1 0xE0 SHL DUP2 MSTORE PUSH1 0x4 ADD PUSH1 0x0 PUSH1 0x40 MLOAD DUP1 DUP4 SUB DUP2 DUP7 GAS STATICCALL ISZERO DUP1 ISZERO PUSH3 0x11B9 JUMPI RETURNDATASIZE PUSH1 0x0 DUP1 RETURNDATACOPY RETURNDATASIZE PUSH1 0x0 REVERT JUMPDEST POP POP POP POP PUSH1 0x40 MLOAD RETURNDATASIZE PUSH1 0x0 DUP3 RETURNDATACOPY RETURNDATASIZE PUSH1 0x1F NOT PUSH1 0x1F DUP3 ADD AND DUP3 ADD DUP1 PUSH1 0x40 MSTORE POP DUP2 ADD SWAP1 PUSH3 0x11E4 SWAP2 SWAP1 PUSH3 0x200E JUMP JUMPDEST SWAP1 SWAP2 SWAP3 SWAP4 POP SWAP1 SWAP2 SWAP3 POP SWAP1 SWAP2 POP SWAP1 POP DUP1 SWAP2 POP POP DUP1 PUSH1 0x2 PUSH1 0x0 DUP3 DUP3 SLOAD PUSH3 0x120A SWAP2 SWAP1 PUSH3 0x2222 JUMP JUMPDEST SWAP3 POP POP DUP2 SWAP1 SSTORE POP DUP3 PUSH20 0xFFFFFFFFFFFFFFFFFFFFFFFFFFFFFFFFFFFFFFFF AND PUSH2 0x8FC DUP3 SWAP1 DUP2 ISZERO MUL SWAP1 PUSH1 0x40 MLOAD PUSH1 0x0 PUSH1 0x40 MLOAD DUP1 DUP4 SUB DUP2 DUP6 DUP9 DUP9 CALL SWAP4 POP POP POP POP ISZERO DUP1 ISZERO PUSH3 0x1258 JUMPI RETURNDATASIZE PUSH1 0x0 DUP1 RETURNDATACOPY RETURNDATASIZE PUSH1 0x0 REVERT JUMPDEST POP PUSH32 0x5A29A91DE26266A33AB4FA77689E193D9659A6C21A97B43609CCE1767A54A02A DUP3 PUSH1 0x40 MLOAD PUSH3 0x128A SWAP2 SWAP1 PUSH3 0x1AC7 JUMP JUMPDEST PUSH1 0x40 MLOAD DUP1 SWAP2 SUB SWAP1 LOG1 POP POP POP POP JUMP JUMPDEST PUSH3 0x12A2 PUSH3 0x14EF JUMP JUMPDEST PUSH1 0x0 PUSH20 0xFFFFFFFFFFFFFFFFFFFFFFFFFFFFFFFFFFFFFFFF AND DUP2 PUSH20 0xFFFFFFFFFFFFFFFFFFFFFFFFFFFFFFFFFFFFFFFF AND SUB PUSH3 0x1317 JUMPI PUSH1 0x0 PUSH1 0x40 MLOAD PUSH32 0x1E4FBDF700000000000000000000000000000000000000000000000000000000 DUP2 MSTORE PUSH1 0x4 ADD PUSH3 0x130E SWAP2 SWAP1 PUSH3 0x1AC7 JUMP JUMPDEST PUSH1 0x40 MLOAD DUP1 SWAP2 SUB SWAP1 REVERT JUMPDEST PUSH3 0x1322 DUP2 PUSH3 0x157F JUMP JUMPDEST POP JUMP JUMPDEST DUP4 PUSH1 0x4 PUSH1 0x0 DUP3 DUP2 MSTORE PUSH1 0x20 ADD SWAP1 DUP2 MSTORE PUSH1 0x20 ADD PUSH1 0x0 KECCAK256 PUSH1 0x0 SWAP1 SLOAD SWAP1 PUSH2 0x100 EXP SWAP1 DIV PUSH20 0xFFFFFFFFFFFFFFFFFFFFFFFFFFFFFFFFFFFFFFFF AND PUSH20 0xFFFFFFFFFFFFFFFFFFFFFFFFFFFFFFFFFFFFFFFF AND PUSH4 0x91D14854 PUSH32 0x241ECF16D79D0F8DBFB92CBC07FE17840425976CF0667F022FE9877CAA831B08 CALLER PUSH1 0x40 MLOAD DUP4 PUSH4 0xFFFFFFFF AND PUSH1 0xE0 SHL DUP2 MSTORE PUSH1 0x4 ADD PUSH3 0x13B6 SWAP3 SWAP2 SWAP1 PUSH3 0x1DCA JUMP JUMPDEST PUSH1 0x20 PUSH1 0x40 MLOAD DUP1 DUP4 SUB DUP2 DUP7 GAS STATICCALL ISZERO DUP1 ISZERO PUSH3 0x13D4 JUMPI RETURNDATASIZE PUSH1 0x0 DUP1 RETURNDATACOPY RETURNDATASIZE PUSH1 0x0 REVERT JUMPDEST POP POP POP POP PUSH1 0x40 MLOAD RETURNDATASIZE PUSH1 0x1F NOT PUSH1 0x1F DUP3 ADD AND DUP3 ADD DUP1 PUSH1 0x40 MSTORE POP DUP2 ADD SWAP1 PUSH3 0x13FA SWAP2 SWAP1 PUSH3 0x1E34 JUMP JUMPDEST PUSH3 0x143C JUMPI PUSH1 0x40 MLOAD PUSH32 0x8C379A000000000000000000000000000000000000000000000000000000000 DUP2 MSTORE PUSH1 0x4 ADD PUSH3 0x1433 SWAP1 PUSH3 0x1EED JUMP JUMPDEST PUSH1 0x40 MLOAD DUP1 SWAP2 SUB SWAP1 REVERT JUMPDEST PUSH1 0x0 PUSH1 0x4 PUSH1 0x0 DUP8 DUP2 MSTORE PUSH1 0x20 ADD SWAP1 DUP2 MSTORE PUSH1 0x20 ADD PUSH1 0x0 KECCAK256 PUSH1 0x0 SWAP1 SLOAD SWAP1 PUSH2 0x100 EXP SWAP1 DIV PUSH20 0xFFFFFFFFFFFFFFFFFFFFFFFFFFFFFFFFFFFFFFFF AND SWAP1 POP DUP1 PUSH20 0xFFFFFFFFFFFFFFFFFFFFFFFFFFFFFFFFFFFFFFFF AND PUSH4 0xB62A0AC0 DUP7 DUP7 DUP7 PUSH1 0x40 MLOAD DUP5 PUSH4 0xFFFFFFFF AND PUSH1 0xE0 SHL DUP2 MSTORE PUSH1 0x4 ADD PUSH3 0x14B3 SWAP4 SWAP3 SWAP2 SWAP1 PUSH3 0x2771 JUMP JUMPDEST PUSH1 0x0 PUSH1 0x40 MLOAD DUP1 DUP4 SUB DUP2 PUSH1 0x0 DUP8 DUP1 EXTCODESIZE ISZERO DUP1 ISZERO PUSH3 0x14CE JUMPI PUSH1 0x0 DUP1 REVERT JUMPDEST POP GAS CALL ISZERO DUP1 ISZERO PUSH3 0x14E3 JUMPI RETURNDATASIZE PUSH1 0x0 DUP1 RETURNDATACOPY RETURNDATASIZE PUSH1 0x0 REVERT JUMPDEST POP POP POP POP POP POP POP POP POP POP JUMP JUMPDEST PUSH3 0x14F9 PUSH3 0x1643 JUMP JUMPDEST PUSH20 0xFFFFFFFFFFFFFFFFFFFFFFFFFFFFFFFFFFFFFFFF AND PUSH3 0x1519 PUSH3 0xAE4 JUMP JUMPDEST PUSH20 0xFFFFFFFFFFFFFFFFFFFFFFFFFFFFFFFFFFFFFFFF AND EQ PUSH3 0x157D JUMPI PUSH3 0x153F PUSH3 0x1643 JUMP JUMPDEST PUSH1 0x40 MLOAD PUSH32 0x118CDAA700000000000000000000000000000000000000000000000000000000 DUP2 MSTORE PUSH1 0x4 ADD PUSH3 0x1574 SWAP2 SWAP1 PUSH3 0x1AC7 JUMP JUMPDEST PUSH1 0x40 MLOAD DUP1 SWAP2 SUB SWAP1 REVERT JUMPDEST JUMP JUMPDEST PUSH1 0x0 DUP1 PUSH1 0x0 SWAP1 SLOAD SWAP1 PUSH2 0x100 EXP SWAP1 DIV PUSH20 0xFFFFFFFFFFFFFFFFFFFFFFFFFFFFFFFFFFFFFFFF AND SWAP1 POP DUP2 PUSH1 0x0 DUP1 PUSH2 0x100 EXP DUP2 SLOAD DUP2 PUSH20 0xFFFFFFFFFFFFFFFFFFFFFFFFFFFFFFFFFFFFFFFF MUL NOT AND SWAP1 DUP4 PUSH20 0xFFFFFFFFFFFFFFFFFFFFFFFFFFFFFFFFFFFFFFFF AND MUL OR SWAP1 SSTORE POP DUP2 PUSH20 0xFFFFFFFFFFFFFFFFFFFFFFFFFFFFFFFFFFFFFFFF AND DUP2 PUSH20 0xFFFFFFFFFFFFFFFFFFFFFFFFFFFFFFFFFFFFFFFF AND PUSH32 0x8BE0079C531659141344CD1FD0A4F28419497F9722A3DAAFE3B4186F6B6457E0 PUSH1 0x40 MLOAD PUSH1 0x40 MLOAD DUP1 SWAP2 SUB SWAP1 LOG3 POP POP JUMP JUMPDEST PUSH1 0x0 CALLER SWAP1 POP SWAP1 JUMP JUMPDEST PUSH2 0x30E3 DUP1 PUSH3 0x27B6 DUP4 CODECOPY ADD SWAP1 JUMP JUMPDEST PUSH1 0x0 PUSH1 0x40 MLOAD SWAP1 POP SWAP1 JUMP JUMPDEST PUSH1 0x0 DUP1 REVERT JUMPDEST PUSH1 0x0 DUP1 REVERT JUMPDEST PUSH1 0x0 DUP2 SWAP1 POP SWAP2 SWAP1 POP JUMP JUMPDEST PUSH3 0x1682 DUP2 PUSH3 0x166D JUMP JUMPDEST DUP2 EQ PUSH3 0x168E JUMPI PUSH1 0x0 DUP1 REVERT JUMPDEST POP JUMP JUMPDEST PUSH1 0x0 DUP2 CALLDATALOAD SWAP1 POP PUSH3 0x16A2 DUP2 PUSH3 0x1677 JUMP JUMPDEST SWAP3 SWAP2 POP POP JUMP JUMPDEST PUSH1 0x0 PUSH4 0xFFFFFFFF DUP3 AND SWAP1 POP SWAP2 SWAP1 POP JUMP JUMPDEST PUSH3 0x16C3 DUP2 PUSH3 0x16A8 JUMP JUMPDEST DUP2 EQ PUSH3 0x16CF JUMPI PUSH1 0x0 DUP1 REVERT JUMPDEST POP JUMP JUMPDEST PUSH1 0x0 DUP2 CALLDATALOAD SWAP1 POP PUSH3 0x16E3 DUP2 PUSH3 0x16B8 JUMP JUMPDEST SWAP3 SWAP2 POP POP JUMP JUMPDEST PUSH1 0x0 DUP1 PUSH1 0x0 PUSH1 0x60 DUP5 DUP7 SUB SLT ISZERO PUSH3 0x1705 JUMPI PUSH3 0x1704 PUSH3 0x1663 JUMP JUMPDEST JUMPDEST PUSH1 0x0 PUSH3 0x1715 DUP7 DUP3 DUP8 ADD PUSH3 0x1691 JUMP JUMPDEST SWAP4 POP POP PUSH1 0x20 PUSH3 0x1728 DUP7 DUP3 DUP8 ADD PUSH3 0x16D2 JUMP JUMPDEST SWAP3 POP POP PUSH1 0x40 PUSH3 0x173B DUP7 DUP3 DUP8 ADD PUSH3 0x16D2 JUMP JUMPDEST SWAP2 POP POP SWAP3 POP SWAP3 POP SWAP3 JUMP JUMPDEST PUSH1 0x0 DUP1 PUSH1 0x40 DUP4 DUP6 SUB SLT ISZERO PUSH3 0x175F JUMPI PUSH3 0x175E PUSH3 0x1663 JUMP JUMPDEST JUMPDEST PUSH1 0x0 PUSH3 0x176F DUP6 DUP3 DUP7 ADD PUSH3 0x1691 JUMP JUMPDEST SWAP3 POP POP PUSH1 0x20 PUSH3 0x1782 DUP6 DUP3 DUP7 ADD PUSH3 0x1691 JUMP JUMPDEST SWAP2 POP POP SWAP3 POP SWAP3 SWAP1 POP JUMP JUMPDEST PUSH1 0x0 DUP1 REVERT JUMPDEST PUSH1 0x0 DUP1 REVERT JUMPDEST PUSH1 0x0 PUSH1 0x1F NOT PUSH1 0x1F DUP4 ADD AND SWAP1 POP SWAP2 SWAP1 POP JUMP JUMPDEST PUSH32 0x4E487B7100000000000000000000000000000000000000000000000000000000 PUSH1 0x0 MSTORE PUSH1 0x41 PUSH1 0x4 MSTORE PUSH1 0x24 PUSH1 0x0 REVERT JUMPDEST PUSH3 0x17E1 DUP3 PUSH3 0x1796 JUMP JUMPDEST DUP2 ADD DUP2 DUP2 LT PUSH8 0xFFFFFFFFFFFFFFFF DUP3 GT OR ISZERO PUSH3 0x1803 JUMPI PUSH3 0x1802 PUSH3 0x17A7 JUMP JUMPDEST JUMPDEST DUP1 PUSH1 0x40 MSTORE POP POP POP JUMP JUMPDEST PUSH1 0x0 PUSH3 0x1818 PUSH3 0x1659 JUMP JUMPDEST SWAP1 POP PUSH3 0x1826 DUP3 DUP3 PUSH3 0x17D6 JUMP JUMPDEST SWAP2 SWAP1 POP JUMP JUMPDEST PUSH1 0x0 PUSH8 0xFFFFFFFFFFFFFFFF DUP3 GT ISZERO PUSH3 0x1849 JUMPI PUSH3 0x1848 PUSH3 0x17A7 JUMP JUMPDEST JUMPDEST PUSH3 0x1854 DUP3 PUSH3 0x1796 JUMP JUMPDEST SWAP1 POP PUSH1 0x20 DUP2 ADD SWAP1 POP SWAP2 SWAP1 POP JUMP JUMPDEST DUP3 DUP2 DUP4 CALLDATACOPY PUSH1 0x0 DUP4 DUP4 ADD MSTORE POP POP POP JUMP JUMPDEST PUSH1 0x0 PUSH3 0x1887 PUSH3 0x1881 DUP5 PUSH3 0x182B JUMP JUMPDEST PUSH3 0x180C JUMP JUMPDEST SWAP1 POP DUP3 DUP2 MSTORE PUSH1 0x20 DUP2 ADD DUP5 DUP5 DUP5 ADD GT ISZERO PUSH3 0x18A6 JUMPI PUSH3 0x18A5 PUSH3 0x1791 JUMP JUMPDEST JUMPDEST PUSH3 0x18B3 DUP5 DUP3 DUP6 PUSH3 0x1861 JUMP JUMPDEST POP SWAP4 SWAP3 POP POP POP JUMP JUMPDEST PUSH1 0x0 DUP3 PUSH1 0x1F DUP4 ADD SLT PUSH3 0x18D3 JUMPI PUSH3 0x18D2 PUSH3 0x178C JUMP JUMPDEST JUMPDEST DUP2 CALLDATALOAD PUSH3 0x18E5 DUP5 DUP3 PUSH1 0x20 DUP7 ADD PUSH3 0x1870 JUMP JUMPDEST SWAP2 POP POP SWAP3 SWAP2 POP POP JUMP JUMPDEST PUSH1 0x0 DUP1 PUSH1 0x0 DUP1 PUSH1 0x0 DUP1 PUSH1 0xC0 DUP8 DUP10 SUB SLT ISZERO PUSH3 0x190E JUMPI PUSH3 0x190D PUSH3 0x1663 JUMP JUMPDEST JUMPDEST PUSH1 0x0 PUSH3 0x191E DUP10 DUP3 DUP11 ADD PUSH3 0x1691 JUMP JUMPDEST SWAP7 POP POP PUSH1 0x20 DUP8 ADD CALLDATALOAD PUSH8 0xFFFFFFFFFFFFFFFF DUP2 GT ISZERO PUSH3 0x1942 JUMPI PUSH3 0x1941 PUSH3 0x1668 JUMP JUMPDEST JUMPDEST PUSH3 0x1950 DUP10 DUP3 DUP11 ADD PUSH3 0x18BB JUMP JUMPDEST SWAP6 POP POP PUSH1 0x40 PUSH3 0x1963 DUP10 DUP3 DUP11 ADD PUSH3 0x1691 JUMP JUMPDEST SWAP5 POP POP PUSH1 0x60 PUSH3 0x1976 DUP10 DUP3 DUP11 ADD PUSH3 0x1691 JUMP JUMPDEST SWAP4 POP POP PUSH1 0x80 PUSH3 0x1989 DUP10 DUP3 DUP11 ADD PUSH3 0x1691 JUMP JUMPDEST SWAP3 POP POP PUSH1 0xA0 PUSH3 0x199C DUP10 DUP3 DUP11 ADD PUSH3 0x1691 JUMP JUMPDEST SWAP2 POP POP SWAP3 SWAP6 POP SWAP3 SWAP6 POP SWAP3 SWAP6 JUMP JUMPDEST PUSH1 0x0 DUP1 PUSH1 0x0 DUP1 PUSH1 0x0 PUSH1 0xA0 DUP7 DUP9 SUB SLT ISZERO PUSH3 0x19C8 JUMPI PUSH3 0x19C7 PUSH3 0x1663 JUMP JUMPDEST JUMPDEST PUSH1 0x0 DUP7 ADD CALLDATALOAD PUSH8 0xFFFFFFFFFFFFFFFF DUP2 GT ISZERO PUSH3 0x19E9 JUMPI PUSH3 0x19E8 PUSH3 0x1668 JUMP JUMPDEST JUMPDEST PUSH3 0x19F7 DUP9 DUP3 DUP10 ADD PUSH3 0x18BB JUMP JUMPDEST SWAP6 POP POP PUSH1 0x20 PUSH3 0x1A0A DUP9 DUP3 DUP10 ADD PUSH3 0x1691 JUMP JUMPDEST SWAP5 POP POP PUSH1 0x40 PUSH3 0x1A1D DUP9 DUP3 DUP10 ADD PUSH3 0x1691 JUMP JUMPDEST SWAP4 POP POP PUSH1 0x60 PUSH3 0x1A30 DUP9 DUP3 DUP10 ADD PUSH3 0x1691 JUMP JUMPDEST SWAP3 POP POP PUSH1 0x80 PUSH3 0x1A43 DUP9 DUP3 DUP10 ADD PUSH3 0x1691 JUMP JUMPDEST SWAP2 POP POP SWAP3 SWAP6 POP SWAP3 SWAP6 SWAP1 SWAP4 POP JUMP JUMPDEST PUSH1 0x0 PUSH1 0x20 DUP3 DUP5 SUB SLT ISZERO PUSH3 0x1A69 JUMPI PUSH3 0x1A68 PUSH3 0x1663 JUMP JUMPDEST JUMPDEST PUSH1 0x0 PUSH3 0x1A79 DUP5 DUP3 DUP6 ADD PUSH3 0x1691 JUMP JUMPDEST SWAP2 POP POP SWAP3 SWAP2 POP POP JUMP JUMPDEST PUSH1 0x0 PUSH20 0xFFFFFFFFFFFFFFFFFFFFFFFFFFFFFFFFFFFFFFFF DUP3 AND SWAP1 POP SWAP2 SWAP1 POP JUMP JUMPDEST PUSH1 0x0 PUSH3 0x1AAF DUP3 PUSH3 0x1A82 JUMP JUMPDEST SWAP1 POP SWAP2 SWAP1 POP JUMP JUMPDEST PUSH3 0x1AC1 DUP2 PUSH3 0x1AA2 JUMP JUMPDEST DUP3 MSTORE POP POP JUMP JUMPDEST PUSH1 0x0 PUSH1 0x20 DUP3 ADD SWAP1 POP PUSH3 0x1ADE PUSH1 0x0 DUP4 ADD DUP5 PUSH3 0x1AB6 JUMP JUMPDEST SWAP3 SWAP2 POP POP JUMP JUMPDEST PUSH1 0x0 PUSH3 0x1AF1 DUP3 PUSH3 0x1A82 JUMP JUMPDEST SWAP1 POP SWAP2 SWAP1 POP JUMP JUMPDEST PUSH3 0x1B03 DUP2 PUSH3 0x1AE4 JUMP JUMPDEST DUP2 EQ PUSH3 0x1B0F JUMPI PUSH1 0x0 DUP1 REVERT JUMPDEST POP JUMP JUMPDEST PUSH1 0x0 DUP2 CALLDATALOAD SWAP1 POP PUSH3 0x1B23 DUP2 PUSH3 0x1AF8 JUMP JUMPDEST SWAP3 SWAP2 POP POP JUMP JUMPDEST PUSH1 0x0 PUSH1 0x20 DUP3 DUP5 SUB SLT ISZERO PUSH3 0x1B42 JUMPI PUSH3 0x1B41 PUSH3 0x1663 JUMP JUMPDEST JUMPDEST PUSH1 0x0 PUSH3 0x1B52 DUP5 DUP3 DUP6 ADD PUSH3 0x1B12 JUMP JUMPDEST SWAP2 POP POP SWAP3 SWAP2 POP POP JUMP JUMPDEST PUSH3 0x1B66 DUP2 PUSH3 0x1AA2 JUMP JUMPDEST DUP2 EQ PUSH3 0x1B72 JUMPI PUSH1 0x0 DUP1 REVERT JUMPDEST POP JUMP JUMPDEST PUSH1 0x0 DUP2 CALLDATALOAD SWAP1 POP PUSH3 0x1B86 DUP2 PUSH3 0x1B5B JUMP JUMPDEST SWAP3 SWAP2 POP POP JUMP JUMPDEST PUSH1 0x0 DUP1 PUSH1 0x40 DUP4 DUP6 SUB SLT ISZERO PUSH3 0x1BA6 JUMPI PUSH3 0x1BA5 PUSH3 0x1663 JUMP JUMPDEST JUMPDEST PUSH1 0x0 PUSH3 0x1BB6 DUP6 DUP3 DUP7 ADD PUSH3 0x1691 JUMP JUMPDEST SWAP3 POP POP PUSH1 0x20 PUSH3 0x1BC9 DUP6 DUP3 DUP7 ADD PUSH3 0x1B75 JUMP JUMPDEST SWAP2 POP POP SWAP3 POP SWAP3 SWAP1 POP JUMP JUMPDEST PUSH1 0x0 PUSH1 0x20 DUP3 DUP5 SUB SLT ISZERO PUSH3 0x1BEC JUMPI PUSH3 0x1BEB PUSH3 0x1663 JUMP JUMPDEST JUMPDEST PUSH1 0x0 PUSH3 0x1BFC DUP5 DUP3 DUP6 ADD PUSH3 0x1B75 JUMP JUMPDEST SWAP2 POP POP SWAP3 SWAP2 POP POP JUMP JUMPDEST PUSH1 0x0 PUSH8 0xFFFFFFFFFFFFFFFF DUP3 GT ISZERO PUSH3 0x1C23 JUMPI PUSH3 0x1C22 PUSH3 0x17A7 JUMP JUMPDEST JUMPDEST PUSH1 0x20 DUP3 MUL SWAP1 POP PUSH1 0x20 DUP2 ADD SWAP1 POP SWAP2 SWAP1 POP JUMP JUMPDEST PUSH1 0x0 DUP1 REVERT JUMPDEST PUSH1 0x0 PUSH3 0x1C50 PUSH3 0x1C4A DUP5 PUSH3 0x1C05 JUMP JUMPDEST PUSH3 0x180C JUMP JUMPDEST SWAP1 POP DUP1 DUP4 DUP3 MSTORE PUSH1 0x20 DUP3 ADD SWAP1 POP PUSH1 0x20 DUP5 MUL DUP4 ADD DUP6 DUP2 GT ISZERO PUSH3 0x1C76 JUMPI PUSH3 0x1C75 PUSH3 0x1C34 JUMP JUMPDEST JUMPDEST DUP4 JUMPDEST DUP2 DUP2 LT ISZERO PUSH3 0x1CA3 JUMPI DUP1 PUSH3 0x1C8E DUP9 DUP3 PUSH3 0x16D2 JUMP JUMPDEST DUP5 MSTORE PUSH1 0x20 DUP5 ADD SWAP4 POP POP PUSH1 0x20 DUP2 ADD SWAP1 POP PUSH3 0x1C78 JUMP JUMPDEST POP POP POP SWAP4 SWAP3 POP POP POP JUMP JUMPDEST PUSH1 0x0 DUP3 PUSH1 0x1F DUP4 ADD SLT PUSH3 0x1CC5 JUMPI PUSH3 0x1CC4 PUSH3 0x178C JUMP JUMPDEST JUMPDEST DUP2 CALLDATALOAD PUSH3 0x1CD7 DUP5 DUP3 PUSH1 0x20 DUP7 ADD PUSH3 0x1C39 JUMP JUMPDEST SWAP2 POP POP SWAP3 SWAP2 POP POP JUMP JUMPDEST PUSH1 0x0 PUSH1 0xFF DUP3 AND SWAP1 POP SWAP2 SWAP1 POP JUMP JUMPDEST PUSH3 0x1CF8 DUP2 PUSH3 0x1CE0 JUMP JUMPDEST DUP2 EQ PUSH3 0x1D04 JUMPI PUSH1 0x0 DUP1 REVERT JUMPDEST POP JUMP JUMPDEST PUSH1 0x0 DUP2 CALLDATALOAD SWAP1 POP PUSH3 0x1D18 DUP2 PUSH3 0x1CED JUMP JUMPDEST SWAP3 SWAP2 POP POP JUMP JUMPDEST PUSH1 0x0 DUP1 PUSH1 0x0 DUP1 PUSH1 0x80 DUP6 DUP8 SUB SLT ISZERO PUSH3 0x1D3B JUMPI PUSH3 0x1D3A PUSH3 0x1663 JUMP JUMPDEST JUMPDEST PUSH1 0x0 PUSH3 0x1D4B DUP8 DUP3 DUP9 ADD PUSH3 0x1691 JUMP JUMPDEST SWAP5 POP POP PUSH1 0x20 PUSH3 0x1D5E DUP8 DUP3 DUP9 ADD PUSH3 0x1691 JUMP JUMPDEST SWAP4 POP POP PUSH1 0x40 DUP6 ADD CALLDATALOAD PUSH8 0xFFFFFFFFFFFFFFFF DUP2 GT ISZERO PUSH3 0x1D82 JUMPI PUSH3 0x1D81 PUSH3 0x1668 JUMP JUMPDEST JUMPDEST PUSH3 0x1D90 DUP8 DUP3 DUP9 ADD PUSH3 0x1CAD JUMP JUMPDEST SWAP3 POP POP PUSH1 0x60 PUSH3 0x1DA3 DUP8 DUP3 DUP9 ADD PUSH3 0x1D07 JUMP JUMPDEST SWAP2 POP POP SWAP3 SWAP6 SWAP2 SWAP5 POP SWAP3 POP JUMP JUMPDEST PUSH1 0x0 DUP2 SWAP1 POP SWAP2 SWAP1 POP JUMP JUMPDEST PUSH3 0x1DC4 DUP2 PUSH3 0x1DAF JUMP JUMPDEST DUP3 MSTORE POP POP JUMP JUMPDEST PUSH1 0x0 PUSH1 0x40 DUP3 ADD SWAP1 POP PUSH3 0x1DE1 PUSH1 0x0 DUP4 ADD DUP6 PUSH3 0x1DB9 JUMP JUMPDEST PUSH3 0x1DF0 PUSH1 0x20 DUP4 ADD DUP5 PUSH3 0x1AB6 JUMP JUMPDEST SWAP4 SWAP3 POP POP POP JUMP JUMPDEST PUSH1 0x0 DUP2 ISZERO ISZERO SWAP1 POP SWAP2 SWAP1 POP JUMP JUMPDEST PUSH3 0x1E0E DUP2 PUSH3 0x1DF7 JUMP JUMPDEST DUP2 EQ PUSH3 0x1E1A JUMPI PUSH1 0x0 DUP1 REVERT JUMPDEST POP JUMP JUMPDEST PUSH1 0x0 DUP2 MLOAD SWAP1 POP PUSH3 0x1E2E DUP2 PUSH3 0x1E03 JUMP JUMPDEST SWAP3 SWAP2 POP POP JUMP JUMPDEST PUSH1 0x0 PUSH1 0x20 DUP3 DUP5 SUB SLT ISZERO PUSH3 0x1E4D JUMPI PUSH3 0x1E4C PUSH3 0x1663 JUMP JUMPDEST JUMPDEST PUSH1 0x0 PUSH3 0x1E5D DUP5 DUP3 DUP6 ADD PUSH3 0x1E1D JUMP JUMPDEST SWAP2 POP POP SWAP3 SWAP2 POP POP JUMP JUMPDEST PUSH1 0x0 DUP3 DUP3 MSTORE PUSH1 0x20 DUP3 ADD SWAP1 POP SWAP3 SWAP2 POP POP JUMP JUMPDEST PUSH32 0x4F6E6C79206D616E616765722063616E20646F20746869732066756E6374696F PUSH1 0x0 DUP3 ADD MSTORE PUSH32 0x6E00000000000000000000000000000000000000000000000000000000000000 PUSH1 0x20 DUP3 ADD MSTORE POP JUMP JUMPDEST PUSH1 0x0 PUSH3 0x1ED5 PUSH1 0x21 DUP4 PUSH3 0x1E66 JUMP JUMPDEST SWAP2 POP PUSH3 0x1EE2 DUP3 PUSH3 0x1E77 JUMP JUMPDEST PUSH1 0x40 DUP3 ADD SWAP1 POP SWAP2 SWAP1 POP JUMP JUMPDEST PUSH1 0x0 PUSH1 0x20 DUP3 ADD SWAP1 POP DUP2 DUP2 SUB PUSH1 0x0 DUP4 ADD MSTORE PUSH3 0x1F08 DUP2 PUSH3 0x1EC6 JUMP JUMPDEST SWAP1 POP SWAP2 SWAP1 POP JUMP JUMPDEST PUSH3 0x1F1A DUP2 PUSH3 0x16A8 JUMP JUMPDEST DUP3 MSTORE POP POP JUMP JUMPDEST PUSH1 0x0 PUSH1 0x40 DUP3 ADD SWAP1 POP PUSH3 0x1F37 PUSH1 0x0 DUP4 ADD DUP6 PUSH3 0x1F0F JUMP JUMPDEST PUSH3 0x1F46 PUSH1 0x20 DUP4 ADD DUP5 PUSH3 0x1F0F JUMP JUMPDEST SWAP4 SWAP3 POP POP POP JUMP JUMPDEST PUSH1 0x0 JUMPDEST DUP4 DUP2 LT ISZERO PUSH3 0x1F6D JUMPI DUP1 DUP3 ADD MLOAD DUP2 DUP5 ADD MSTORE PUSH1 0x20 DUP2 ADD SWAP1 POP PUSH3 0x1F50 JUMP JUMPDEST PUSH1 0x0 DUP5 DUP5 ADD MSTORE POP POP POP POP JUMP JUMPDEST PUSH1 0x0 PUSH3 0x1F90 PUSH3 0x1F8A DUP5 PUSH3 0x182B JUMP JUMPDEST PUSH3 0x180C JUMP JUMPDEST SWAP1 POP DUP3 DUP2 MSTORE PUSH1 0x20 DUP2 ADD DUP5 DUP5 DUP5 ADD GT ISZERO PUSH3 0x1FAF JUMPI PUSH3 0x1FAE PUSH3 0x1791 JUMP JUMPDEST JUMPDEST PUSH3 0x1FBC DUP5 DUP3 DUP6 PUSH3 0x1F4D JUMP JUMPDEST POP SWAP4 SWAP3 POP POP POP JUMP JUMPDEST PUSH1 0x0 DUP3 PUSH1 0x1F DUP4 ADD SLT PUSH3 0x1FDC JUMPI PUSH3 0x1FDB PUSH3 0x178C JUMP JUMPDEST JUMPDEST DUP2 MLOAD PUSH3 0x1FEE DUP5 DUP3 PUSH1 0x20 DUP7 ADD PUSH3 0x1F79 JUMP JUMPDEST SWAP2 POP POP SWAP3 SWAP2 POP POP JUMP JUMPDEST PUSH1 0x0 DUP2 MLOAD SWAP1 POP PUSH3 0x2008 DUP2 PUSH3 0x1677 JUMP JUMPDEST SWAP3 SWAP2 POP POP JUMP JUMPDEST PUSH1 0x0 DUP1 PUSH1 0x0 DUP1 PUSH1 0x0 PUSH1 0xA0 DUP7 DUP9 SUB SLT ISZERO PUSH3 0x202D JUMPI PUSH3 0x202C PUSH3 0x1663 JUMP JUMPDEST JUMPDEST PUSH1 0x0 DUP7 ADD MLOAD PUSH8 0xFFFFFFFFFFFFFFFF DUP2 GT ISZERO PUSH3 0x204E JUMPI PUSH3 0x204D PUSH3 0x1668 JUMP JUMPDEST JUMPDEST PUSH3 0x205C DUP9 DUP3 DUP10 ADD PUSH3 0x1FC4 JUMP JUMPDEST SWAP6 POP POP PUSH1 0x20 PUSH3 0x206F DUP9 DUP3 DUP10 ADD PUSH3 0x1FF7 JUMP JUMPDEST SWAP5 POP POP PUSH1 0x40 PUSH3 0x2082 DUP9 DUP3 DUP10 ADD PUSH3 0x1FF7 JUMP JUMPDEST SWAP4 POP POP PUSH1 0x60 PUSH3 0x2095 DUP9 DUP3 DUP10 ADD PUSH3 0x1FF7 JUMP JUMPDEST SWAP3 POP POP PUSH1 0x80 PUSH3 0x20A8 DUP9 DUP3 DUP10 ADD PUSH3 0x1FF7 JUMP JUMPDEST SWAP2 POP POP SWAP3 SWAP6 POP SWAP3 SWAP6 SWAP1 SWAP4 POP JUMP JUMPDEST PUSH32 0x7472616E736665722076616C756520646964206E6F74206D6174636820776974 PUSH1 0x0 DUP3 ADD MSTORE PUSH32 0x6820666565000000000000000000000000000000000000000000000000000000 PUSH1 0x20 DUP3 ADD MSTORE POP JUMP JUMPDEST PUSH1 0x0 PUSH3 0x2113 PUSH1 0x25 DUP4 PUSH3 0x1E66 JUMP JUMPDEST SWAP2 POP PUSH3 0x2120 DUP3 PUSH3 0x20B5 JUMP JUMPDEST PUSH1 0x40 DUP3 ADD SWAP1 POP SWAP2 SWAP1 POP JUMP JUMPDEST PUSH1 0x0 PUSH1 0x20 DUP3 ADD SWAP1 POP DUP2 DUP2 SUB PUSH1 0x0 DUP4 ADD MSTORE PUSH3 0x2146 DUP2 PUSH3 0x2104 JUMP JUMPDEST SWAP1 POP SWAP2 SWAP1 POP JUMP JUMPDEST PUSH3 0x2158 DUP2 PUSH3 0x166D JUMP JUMPDEST DUP3 MSTORE POP POP JUMP JUMPDEST PUSH1 0x0 PUSH1 0x40 DUP3 ADD SWAP1 POP PUSH3 0x2175 PUSH1 0x0 DUP4 ADD DUP6 PUSH3 0x1AB6 JUMP JUMPDEST PUSH3 0x2184 PUSH1 0x20 DUP4 ADD DUP5 PUSH3 0x214D JUMP JUMPDEST SWAP4 SWAP3 POP POP POP JUMP JUMPDEST PUSH1 0x0 PUSH1 0x40 DUP3 ADD SWAP1 POP PUSH3 0x21A2 PUSH1 0x0 DUP4 ADD DUP6 PUSH3 0x1AB6 JUMP JUMPDEST PUSH3 0x21B1 PUSH1 0x20 DUP4 ADD DUP5 PUSH3 0x1AB6 JUMP JUMPDEST SWAP4 SWAP3 POP POP POP JUMP JUMPDEST PUSH32 0x4E487B7100000000000000000000000000000000000000000000000000000000 PUSH1 0x0 MSTORE PUSH1 0x11 PUSH1 0x4 MSTORE PUSH1 0x24 PUSH1 0x0 REVERT JUMPDEST PUSH1 0x0 PUSH3 0x21F4 DUP3 PUSH3 0x166D JUMP JUMPDEST SWAP2 POP PUSH3 0x2201 DUP4 PUSH3 0x166D JUMP JUMPDEST SWAP3 POP DUP3 DUP3 ADD SWAP1 POP DUP1 DUP3 GT ISZERO PUSH3 0x221C JUMPI PUSH3 0x221B PUSH3 0x21B8 JUMP JUMPDEST JUMPDEST SWAP3 SWAP2 POP POP JUMP JUMPDEST PUSH1 0x0 PUSH3 0x222F DUP3 PUSH3 0x166D JUMP JUMPDEST SWAP2 POP PUSH3 0x223C DUP4 PUSH3 0x166D JUMP JUMPDEST SWAP3 POP DUP3 DUP3 SUB SWAP1 POP DUP2 DUP2 GT ISZERO PUSH3 0x2257 JUMPI PUSH3 0x2256 PUSH3 0x21B8 JUMP JUMPDEST JUMPDEST SWAP3 SWAP2 POP POP JUMP JUMPDEST PUSH32 0x4E6F7420656E6F75676820746F6B656E20746F20637265617420617761726400 PUSH1 0x0 DUP3 ADD MSTORE POP JUMP JUMPDEST PUSH1 0x0 PUSH3 0x2295 PUSH1 0x1F DUP4 PUSH3 0x1E66 JUMP JUMPDEST SWAP2 POP PUSH3 0x22A2 DUP3 PUSH3 0x225D JUMP JUMPDEST PUSH1 0x20 DUP3 ADD SWAP1 POP SWAP2 SWAP1 POP JUMP JUMPDEST PUSH1 0x0 PUSH1 0x20 DUP3 ADD SWAP1 POP DUP2 DUP2 SUB PUSH1 0x0 DUP4 ADD MSTORE PUSH3 0x22C8 DUP2 PUSH3 0x2286 JUMP JUMPDEST SWAP1 POP SWAP2 SWAP1 POP JUMP JUMPDEST PUSH1 0x0 DUP2 MLOAD SWAP1 POP SWAP2 SWAP1 POP JUMP JUMPDEST PUSH1 0x0 PUSH3 0x22E7 DUP3 PUSH3 0x22CF JUMP JUMPDEST PUSH3 0x22F3 DUP2 DUP6 PUSH3 0x1E66 JUMP JUMPDEST SWAP4 POP PUSH3 0x2305 DUP2 DUP6 PUSH1 0x20 DUP7 ADD PUSH3 0x1F4D JUMP JUMPDEST PUSH3 0x2310 DUP2 PUSH3 0x1796 JUMP JUMPDEST DUP5 ADD SWAP2 POP POP SWAP3 SWAP2 POP POP JUMP JUMPDEST PUSH1 0x0 PUSH1 0xA0 DUP3 ADD SWAP1 POP DUP2 DUP2 SUB PUSH1 0x0 DUP4 ADD MSTORE PUSH3 0x2337 DUP2 DUP9 PUSH3 0x22DA JUMP JUMPDEST SWAP1 POP PUSH3 0x2348 PUSH1 0x20 DUP4 ADD DUP8 PUSH3 0x214D JUMP JUMPDEST PUSH3 0x2357 PUSH1 0x40 DUP4 ADD DUP7 PUSH3 0x214D JUMP JUMPDEST PUSH3 0x2366 PUSH1 0x60 DUP4 ADD DUP6 PUSH3 0x214D JUMP JUMPDEST PUSH3 0x2375 PUSH1 0x80 DUP4 ADD DUP5 PUSH3 0x214D JUMP JUMPDEST SWAP7 SWAP6 POP POP POP POP POP POP JUMP JUMPDEST PUSH1 0x0 PUSH3 0x238C DUP3 PUSH3 0x166D JUMP JUMPDEST SWAP2 POP PUSH32 0xFFFFFFFFFFFFFFFFFFFFFFFFFFFFFFFFFFFFFFFFFFFFFFFFFFFFFFFFFFFFFFFF DUP3 SUB PUSH3 0x23C1 JUMPI PUSH3 0x23C0 PUSH3 0x21B8 JUMP JUMPDEST JUMPDEST PUSH1 0x1 DUP3 ADD SWAP1 POP SWAP2 SWAP1 POP JUMP JUMPDEST PUSH1 0x0 PUSH1 0x20 DUP3 ADD SWAP1 POP PUSH3 0x23E3 PUSH1 0x0 DUP4 ADD DUP5 PUSH3 0x214D JUMP JUMPDEST SWAP3 SWAP2 POP POP JUMP JUMPDEST PUSH32 0x436F6E74726163742062616C616E63652068617320746F206265206D6F726520 PUSH1 0x0 DUP3 ADD MSTORE PUSH32 0x7468616E20746F74616C20617761726400000000000000000000000000000000 PUSH1 0x20 DUP3 ADD MSTORE POP JUMP JUMPDEST PUSH1 0x0 PUSH3 0x2447 PUSH1 0x30 DUP4 PUSH3 0x1E66 JUMP JUMPDEST SWAP2 POP PUSH3 0x2454 DUP3 PUSH3 0x23E9 JUMP JUMPDEST PUSH1 0x40 DUP3 ADD SWAP1 POP SWAP2 SWAP1 POP JUMP JUMPDEST PUSH1 0x0 PUSH1 0x20 DUP3 ADD SWAP1 POP DUP2 DUP2 SUB PUSH1 0x0 DUP4 ADD MSTORE PUSH3 0x247A DUP2 PUSH3 0x2438 JUMP JUMPDEST SWAP1 POP SWAP2 SWAP1 POP JUMP JUMPDEST PUSH32 0x4F6E6C7920726566657265652063616E20646F20746869732066756E6374696F PUSH1 0x0 DUP3 ADD MSTORE PUSH32 0x6E00000000000000000000000000000000000000000000000000000000000000 PUSH1 0x20 DUP3 ADD MSTORE POP JUMP JUMPDEST PUSH1 0x0 PUSH3 0x24DF PUSH1 0x21 DUP4 PUSH3 0x1E66 JUMP JUMPDEST SWAP2 POP PUSH3 0x24EC DUP3 PUSH3 0x2481 JUMP JUMPDEST PUSH1 0x40 DUP3 ADD SWAP1 POP SWAP2 SWAP1 POP JUMP JUMPDEST PUSH1 0x0 PUSH1 0x20 DUP3 ADD SWAP1 POP DUP2 DUP2 SUB PUSH1 0x0 DUP4 ADD MSTORE PUSH3 0x2512 DUP2 PUSH3 0x24D0 JUMP JUMPDEST SWAP1 POP SWAP2 SWAP1 POP JUMP JUMPDEST PUSH1 0x0 DUP2 MLOAD SWAP1 POP PUSH3 0x252A DUP2 PUSH3 0x1B5B JUMP JUMPDEST SWAP3 SWAP2 POP POP JUMP JUMPDEST PUSH1 0x0 PUSH1 0x20 DUP3 DUP5 SUB SLT ISZERO PUSH3 0x2549 JUMPI PUSH3 0x2548 PUSH3 0x1663 JUMP JUMPDEST JUMPDEST PUSH1 0x0 PUSH3 0x2559 DUP5 DUP3 DUP6 ADD PUSH3 0x2519 JUMP JUMPDEST SWAP2 POP POP SWAP3 SWAP2 POP POP JUMP JUMPDEST PUSH32 0x5468697320746F75726E616D656E7420646964206E6F7420686176652077696E PUSH1 0x0 DUP3 ADD MSTORE PUSH32 0x6E65720000000000000000000000000000000000000000000000000000000000 PUSH1 0x20 DUP3 ADD MSTORE POP JUMP JUMPDEST PUSH1 0x0 PUSH3 0x25C0 PUSH1 0x23 DUP4 PUSH3 0x1E66 JUMP JUMPDEST SWAP2 POP PUSH3 0x25CD DUP3 PUSH3 0x2562 JUMP JUMPDEST PUSH1 0x40 DUP3 ADD SWAP1 POP SWAP2 SWAP1 POP JUMP JUMPDEST PUSH1 0x0 PUSH1 0x20 DUP3 ADD SWAP1 POP DUP2 DUP2 SUB PUSH1 0x0 DUP4 ADD MSTORE PUSH3 0x25F3 DUP2 PUSH3 0x25B1 JUMP JUMPDEST SWAP1 POP SWAP2 SWAP1 POP JUMP JUMPDEST PUSH32 0x54686973206164647265737320617265206E6F742077696E6E6572206F662074 PUSH1 0x0 DUP3 ADD MSTORE PUSH32 0x68697320746F75726E616D656E74000000000000000000000000000000000000 PUSH1 0x20 DUP3 ADD MSTORE POP JUMP JUMPDEST PUSH1 0x0 PUSH3 0x2658 PUSH1 0x2E DUP4 PUSH3 0x1E66 JUMP JUMPDEST SWAP2 POP PUSH3 0x2665 DUP3 PUSH3 0x25FA JUMP JUMPDEST PUSH1 0x40 DUP3 ADD SWAP1 POP SWAP2 SWAP1 POP JUMP JUMPDEST PUSH1 0x0 PUSH1 0x20 DUP3 ADD SWAP1 POP DUP2 DUP2 SUB PUSH1 0x0 DUP4 ADD MSTORE PUSH3 0x268B DUP2 PUSH3 0x2649 JUMP JUMPDEST SWAP1 POP SWAP2 SWAP1 POP JUMP JUMPDEST PUSH1 0x0 DUP2 MLOAD SWAP1 POP SWAP2 SWAP1 POP JUMP JUMPDEST PUSH1 0x0 DUP3 DUP3 MSTORE PUSH1 0x20 DUP3 ADD SWAP1 POP SWAP3 SWAP2 POP POP JUMP JUMPDEST PUSH1 0x0 DUP2 SWAP1 POP PUSH1 0x20 DUP3 ADD SWAP1 POP SWAP2 SWAP1 POP JUMP JUMPDEST PUSH3 0x26C9 DUP2 PUSH3 0x16A8 JUMP JUMPDEST DUP3 MSTORE POP POP JUMP JUMPDEST PUSH1 0x0 PUSH3 0x26DD DUP4 DUP4 PUSH3 0x26BE JUMP JUMPDEST PUSH1 0x20 DUP4 ADD SWAP1 POP SWAP3 SWAP2 POP POP JUMP JUMPDEST PUSH1 0x0 PUSH1 0x20 DUP3 ADD SWAP1 POP SWAP2 SWAP1 POP JUMP JUMPDEST PUSH1 0x0 PUSH3 0x2703 DUP3 PUSH3 0x2692 JUMP JUMPDEST PUSH3 0x270F DUP2 DUP6 PUSH3 0x269D JUMP JUMPDEST SWAP4 POP PUSH3 0x271C DUP4 PUSH3 0x26AE JUMP JUMPDEST DUP1 PUSH1 0x0 JUMPDEST DUP4 DUP2 LT ISZERO PUSH3 0x2753 JUMPI DUP2 MLOAD PUSH3 0x2737 DUP9 DUP3 PUSH3 0x26CF JUMP JUMPDEST SWAP8 POP PUSH3 0x2744 DUP4 PUSH3 0x26E9 JUMP JUMPDEST SWAP3 POP POP PUSH1 0x1 DUP2 ADD SWAP1 POP PUSH3 0x2720 JUMP JUMPDEST POP DUP6 SWAP4 POP POP POP POP SWAP3 SWAP2 POP POP JUMP JUMPDEST PUSH3 0x276B DUP2 PUSH3 0x1CE0 JUMP JUMPDEST DUP3 MSTORE POP POP JUMP JUMPDEST PUSH1 0x0 PUSH1 0x60 DUP3 ADD SWAP1 POP PUSH3 0x2788 PUSH1 0x0 DUP4 ADD DUP7 PUSH3 0x214D JUMP JUMPDEST DUP2 DUP2 SUB PUSH1 0x20 DUP4 ADD MSTORE PUSH3 0x279C DUP2 DUP6 PUSH3 0x26F6 JUMP JUMPDEST SWAP1 POP PUSH3 0x27AD PUSH1 0x40 DUP4 ADD DUP5 PUSH3 0x2760 JUMP JUMPDEST SWAP5 SWAP4 POP POP POP POP JUMP INVALID PUSH1 0x80 PUSH1 0x40 MSTORE CALLVALUE DUP1 ISZERO PUSH3 0x11 JUMPI PUSH1 0x0 DUP1 REVERT JUMPDEST POP PUSH1 0x40 MLOAD PUSH3 0x30E3 CODESIZE SUB DUP1 PUSH3 0x30E3 DUP4 CODECOPY DUP2 DUP2 ADD PUSH1 0x40 MSTORE DUP2 ADD SWAP1 PUSH3 0x37 SWAP2 SWAP1 PUSH3 0x505 JUMP JUMPDEST PUSH3 0x69 PUSH32 0x241ECF16D79D0F8DBFB92CBC07FE17840425976CF0667F022FE9877CAA831B08 CALLER PUSH3 0x1C2 PUSH1 0x20 SHL PUSH1 0x20 SHR JUMP JUMPDEST POP PUSH3 0x7F PUSH1 0x0 DUP1 SHL CALLER PUSH3 0x1C2 PUSH1 0x20 SHL PUSH1 0x20 SHR JUMP JUMPDEST POP TIMESTAMP DUP5 GT PUSH3 0xC5 JUMPI PUSH1 0x40 MLOAD PUSH32 0x8C379A000000000000000000000000000000000000000000000000000000000 DUP2 MSTORE PUSH1 0x4 ADD PUSH3 0xBC SWAP1 PUSH3 0x633 JUMP JUMPDEST PUSH1 0x40 MLOAD DUP1 SWAP2 SUB SWAP1 REVERT JUMPDEST DUP4 DUP4 GT PUSH3 0x10A JUMPI PUSH1 0x40 MLOAD PUSH32 0x8C379A000000000000000000000000000000000000000000000000000000000 DUP2 MSTORE PUSH1 0x4 ADD PUSH3 0x101 SWAP1 PUSH3 0x6CB JUMP JUMPDEST PUSH1 0x40 MLOAD DUP1 SWAP2 SUB SWAP1 REVERT JUMPDEST PUSH1 0x40 MLOAD DUP1 PUSH1 0xA0 ADD PUSH1 0x40 MSTORE DUP1 DUP7 DUP2 MSTORE PUSH1 0x20 ADD DUP6 DUP2 MSTORE PUSH1 0x20 ADD DUP5 DUP2 MSTORE PUSH1 0x20 ADD DUP4 DUP2 MSTORE PUSH1 0x20 ADD DUP3 DUP2 MSTORE POP PUSH1 0x3 PUSH1 0x0 DUP3 ADD MLOAD DUP2 PUSH1 0x0 ADD SWAP1 DUP2 PUSH3 0x14A SWAP2 SWAP1 PUSH3 0x92E JUMP JUMPDEST POP PUSH1 0x20 DUP3 ADD MLOAD DUP2 PUSH1 0x1 ADD SSTORE PUSH1 0x40 DUP3 ADD MLOAD DUP2 PUSH1 0x2 ADD SSTORE PUSH1 0x60 DUP3 ADD MLOAD DUP2 PUSH1 0x3 ADD SSTORE PUSH1 0x80 DUP3 ADD MLOAD DUP2 PUSH1 0x4 ADD SSTORE SWAP1 POP POP PUSH32 0x3B74D2C591A501617CEC92C77AEBCF079BDF90CEDF6F9C583CAD47A2D516F0DE DUP6 DUP6 DUP6 DUP6 DUP6 PUSH1 0x40 MLOAD PUSH3 0x1AF SWAP6 SWAP5 SWAP4 SWAP3 SWAP2 SWAP1 PUSH3 0xA67 JUMP JUMPDEST PUSH1 0x40 MLOAD DUP1 SWAP2 SUB SWAP1 LOG1 POP POP POP POP POP PUSH3 0xACB JUMP JUMPDEST PUSH1 0x0 PUSH3 0x1D6 DUP4 DUP4 PUSH3 0x2C5 PUSH1 0x20 SHL PUSH1 0x20 SHR JUMP JUMPDEST PUSH3 0x2BA JUMPI PUSH1 0x1 PUSH1 0x0 DUP1 DUP6 DUP2 MSTORE PUSH1 0x20 ADD SWAP1 DUP2 MSTORE PUSH1 0x20 ADD PUSH1 0x0 KECCAK256 PUSH1 0x0 ADD PUSH1 0x0 DUP5 PUSH20 0xFFFFFFFFFFFFFFFFFFFFFFFFFFFFFFFFFFFFFFFF AND PUSH20 0xFFFFFFFFFFFFFFFFFFFFFFFFFFFFFFFFFFFFFFFF AND DUP2 MSTORE PUSH1 0x20 ADD SWAP1 DUP2 MSTORE PUSH1 0x20 ADD PUSH1 0x0 KECCAK256 PUSH1 0x0 PUSH2 0x100 EXP DUP2 SLOAD DUP2 PUSH1 0xFF MUL NOT AND SWAP1 DUP4 ISZERO ISZERO MUL OR SWAP1 SSTORE POP PUSH3 0x256 PUSH3 0x32F PUSH1 0x20 SHL PUSH1 0x20 SHR JUMP JUMPDEST PUSH20 0xFFFFFFFFFFFFFFFFFFFFFFFFFFFFFFFFFFFFFFFF AND DUP3 PUSH20 0xFFFFFFFFFFFFFFFFFFFFFFFFFFFFFFFFFFFFFFFF AND DUP5 PUSH32 0x2F8788117E7EFF1D82E926EC794901D17C78024A50270940304540A733656F0D PUSH1 0x40 MLOAD PUSH1 0x40 MLOAD DUP1 SWAP2 SUB SWAP1 LOG4 PUSH1 0x1 SWAP1 POP PUSH3 0x2BF JUMP JUMPDEST PUSH1 0x0 SWAP1 POP JUMPDEST SWAP3 SWAP2 POP POP JUMP JUMPDEST PUSH1 0x0 DUP1 PUSH1 0x0 DUP5 DUP2 MSTORE PUSH1 0x20 ADD SWAP1 DUP2 MSTORE PUSH1 0x20 ADD PUSH1 0x0 KECCAK256 PUSH1 0x0 ADD PUSH1 0x0 DUP4 PUSH20 0xFFFFFFFFFFFFFFFFFFFFFFFFFFFFFFFFFFFFFFFF AND PUSH20 0xFFFFFFFFFFFFFFFFFFFFFFFFFFFFFFFFFFFFFFFF AND DUP2 MSTORE PUSH1 0x20 ADD SWAP1 DUP2 MSTORE PUSH1 0x20 ADD PUSH1 0x0 KECCAK256 PUSH1 0x0 SWAP1 SLOAD SWAP1 PUSH2 0x100 EXP SWAP1 DIV PUSH1 0xFF AND SWAP1 POP SWAP3 SWAP2 POP POP JUMP JUMPDEST PUSH1 0x0 CALLER SWAP1 POP SWAP1 JUMP JUMPDEST PUSH1 0x0 PUSH1 0x40 MLOAD SWAP1 POP SWAP1 JUMP JUMPDEST PUSH1 0x0 DUP1 REVERT JUMPDEST PUSH1 0x0 DUP1 REVERT JUMPDEST PUSH1 0x0 DUP1 REVERT JUMPDEST PUSH1 0x0 DUP1 REVERT JUMPDEST PUSH1 0x0 PUSH1 0x1F NOT PUSH1 0x1F DUP4 ADD AND SWAP1 POP SWAP2 SWAP1 POP JUMP JUMPDEST PUSH32 0x4E487B7100000000000000000000000000000000000000000000000000000000 PUSH1 0x0 MSTORE PUSH1 0x41 PUSH1 0x4 MSTORE PUSH1 0x24 PUSH1 0x0 REVERT JUMPDEST PUSH3 0x3A0 DUP3 PUSH3 0x355 JUMP JUMPDEST DUP2 ADD DUP2 DUP2 LT PUSH8 0xFFFFFFFFFFFFFFFF DUP3 GT OR ISZERO PUSH3 0x3C2 JUMPI PUSH3 0x3C1 PUSH3 0x366 JUMP JUMPDEST JUMPDEST DUP1 PUSH1 0x40 MSTORE POP POP POP JUMP JUMPDEST PUSH1 0x0 PUSH3 0x3D7 PUSH3 0x337 JUMP JUMPDEST SWAP1 POP PUSH3 0x3E5 DUP3 DUP3 PUSH3 0x395 JUMP JUMPDEST SWAP2 SWAP1 POP JUMP JUMPDEST PUSH1 0x0 PUSH8 0xFFFFFFFFFFFFFFFF DUP3 GT ISZERO PUSH3 0x408 JUMPI PUSH3 0x407 PUSH3 0x366 JUMP JUMPDEST JUMPDEST PUSH3 0x413 DUP3 PUSH3 0x355 JUMP JUMPDEST SWAP1 POP PUSH1 0x20 DUP2 ADD SWAP1 POP SWAP2 SWAP1 POP JUMP JUMPDEST PUSH1 0x0 JUMPDEST DUP4 DUP2 LT ISZERO PUSH3 0x440 JUMPI DUP1 DUP3 ADD MLOAD DUP2 DUP5 ADD MSTORE PUSH1 0x20 DUP2 ADD SWAP1 POP PUSH3 0x423 JUMP JUMPDEST PUSH1 0x0 DUP5 DUP5 ADD MSTORE POP POP POP POP JUMP JUMPDEST PUSH1 0x0 PUSH3 0x463 PUSH3 0x45D DUP5 PUSH3 0x3EA JUMP JUMPDEST PUSH3 0x3CB JUMP JUMPDEST SWAP1 POP DUP3 DUP2 MSTORE PUSH1 0x20 DUP2 ADD DUP5 DUP5 DUP5 ADD GT ISZERO PUSH3 0x482 JUMPI PUSH3 0x481 PUSH3 0x350 JUMP JUMPDEST JUMPDEST PUSH3 0x48F DUP5 DUP3 DUP6 PUSH3 0x420 JUMP JUMPDEST POP SWAP4 SWAP3 POP POP POP JUMP JUMPDEST PUSH1 0x0 DUP3 PUSH1 0x1F DUP4 ADD SLT PUSH3 0x4AF JUMPI PUSH3 0x4AE PUSH3 0x34B JUMP JUMPDEST JUMPDEST DUP2 MLOAD PUSH3 0x4C1 DUP5 DUP3 PUSH1 0x20 DUP7 ADD PUSH3 0x44C JUMP JUMPDEST SWAP2 POP POP SWAP3 SWAP2 POP POP JUMP JUMPDEST PUSH1 0x0 DUP2 SWAP1 POP SWAP2 SWAP1 POP JUMP JUMPDEST PUSH3 0x4DF DUP2 PUSH3 0x4CA JUMP JUMPDEST DUP2 EQ PUSH3 0x4EB JUMPI PUSH1 0x0 DUP1 REVERT JUMPDEST POP JUMP JUMPDEST PUSH1 0x0 DUP2 MLOAD SWAP1 POP PUSH3 0x4FF DUP2 PUSH3 0x4D4 JUMP JUMPDEST SWAP3 SWAP2 POP POP JUMP JUMPDEST PUSH1 0x0 DUP1 PUSH1 0x0 DUP1 PUSH1 0x0 PUSH1 0xA0 DUP7 DUP9 SUB SLT ISZERO PUSH3 0x524 JUMPI PUSH3 0x523 PUSH3 0x341 JUMP JUMPDEST JUMPDEST PUSH1 0x0 DUP7 ADD MLOAD PUSH8 0xFFFFFFFFFFFFFFFF DUP2 GT ISZERO PUSH3 0x545 JUMPI PUSH3 0x544 PUSH3 0x346 JUMP JUMPDEST JUMPDEST PUSH3 0x553 DUP9 DUP3 DUP10 ADD PUSH3 0x497 JUMP JUMPDEST SWAP6 POP POP PUSH1 0x20 PUSH3 0x566 DUP9 DUP3 DUP10 ADD PUSH3 0x4EE JUMP JUMPDEST SWAP5 POP POP PUSH1 0x40 PUSH3 0x579 DUP9 DUP3 DUP10 ADD PUSH3 0x4EE JUMP JUMPDEST SWAP4 POP POP PUSH1 0x60 PUSH3 0x58C DUP9 DUP3 DUP10 ADD PUSH3 0x4EE JUMP JUMPDEST SWAP3 POP POP PUSH1 0x80 PUSH3 0x59F DUP9 DUP3 DUP10 ADD PUSH3 0x4EE JUMP JUMPDEST SWAP2 POP POP SWAP3 SWAP6 POP SWAP3 SWAP6 SWAP1 SWAP4 POP JUMP JUMPDEST PUSH1 0x0 DUP3 DUP3 MSTORE PUSH1 0x20 DUP3 ADD SWAP1 POP SWAP3 SWAP2 POP POP JUMP JUMPDEST PUSH32 0x546F75726E616D656E742068617320746F207374617274206174207468652066 PUSH1 0x0 DUP3 ADD MSTORE PUSH32 0x7574757265000000000000000000000000000000000000000000000000000000 PUSH1 0x20 DUP3 ADD MSTORE POP JUMP JUMPDEST PUSH1 0x0 PUSH3 0x61B PUSH1 0x25 DUP4 PUSH3 0x5AC JUMP JUMPDEST SWAP2 POP PUSH3 0x628 DUP3 PUSH3 0x5BD JUMP JUMPDEST PUSH1 0x40 DUP3 ADD SWAP1 POP SWAP2 SWAP1 POP JUMP JUMPDEST PUSH1 0x0 PUSH1 0x20 DUP3 ADD SWAP1 POP DUP2 DUP2 SUB PUSH1 0x0 DUP4 ADD MSTORE PUSH3 0x64E DUP2 PUSH3 0x60C JUMP JUMPDEST SWAP1 POP SWAP2 SWAP1 POP JUMP JUMPDEST PUSH32 0x546F75726E616D656E742068617320746F20656E642061667465722073746172 PUSH1 0x0 DUP3 ADD MSTORE PUSH32 0x7400000000000000000000000000000000000000000000000000000000000000 PUSH1 0x20 DUP3 ADD MSTORE POP JUMP JUMPDEST PUSH1 0x0 PUSH3 0x6B3 PUSH1 0x21 DUP4 PUSH3 0x5AC JUMP JUMPDEST SWAP2 POP PUSH3 0x6C0 DUP3 PUSH3 0x655 JUMP JUMPDEST PUSH1 0x40 DUP3 ADD SWAP1 POP SWAP2 SWAP1 POP JUMP JUMPDEST PUSH1 0x0 PUSH1 0x20 DUP3 ADD SWAP1 POP DUP2 DUP2 SUB PUSH1 0x0 DUP4 ADD MSTORE PUSH3 0x6E6 DUP2 PUSH3 0x6A4 JUMP JUMPDEST SWAP1 POP SWAP2 SWAP1 POP JUMP JUMPDEST PUSH1 0x0 DUP2 MLOAD SWAP1 POP SWAP2 SWAP1 POP JUMP JUMPDEST PUSH32 0x4E487B7100000000000000000000000000000000000000000000000000000000 PUSH1 0x0 MSTORE PUSH1 0x22 PUSH1 0x4 MSTORE PUSH1 0x24 PUSH1 0x0 REVERT JUMPDEST PUSH1 0x0 PUSH1 0x2 DUP3 DIV SWAP1 POP PUSH1 0x1 DUP3 AND DUP1 PUSH3 0x740 JUMPI PUSH1 0x7F DUP3 AND SWAP2 POP JUMPDEST PUSH1 0x20 DUP3 LT DUP2 SUB PUSH3 0x756 JUMPI PUSH3 0x755 PUSH3 0x6F8 JUMP JUMPDEST JUMPDEST POP SWAP2 SWAP1 POP JUMP JUMPDEST PUSH1 0x0 DUP2 SWAP1 POP DUP2 PUSH1 0x0 MSTORE PUSH1 0x20 PUSH1 0x0 KECCAK256 SWAP1 POP SWAP2 SWAP1 POP JUMP JUMPDEST PUSH1 0x0 PUSH1 0x20 PUSH1 0x1F DUP4 ADD DIV SWAP1 POP SWAP2 SWAP1 POP JUMP JUMPDEST PUSH1 0x0 DUP3 DUP3 SHL SWAP1 POP SWAP3 SWAP2 POP POP JUMP JUMPDEST PUSH1 0x0 PUSH1 0x8 DUP4 MUL PUSH3 0x7C0 PUSH32 0xFFFFFFFFFFFFFFFFFFFFFFFFFFFFFFFFFFFFFFFFFFFFFFFFFFFFFFFFFFFFFFFF DUP3 PUSH3 0x781 JUMP JUMPDEST PUSH3 0x7CC DUP7 DUP4 PUSH3 0x781 JUMP JUMPDEST SWAP6 POP DUP1 NOT DUP5 AND SWAP4 POP DUP1 DUP7 AND DUP5 OR SWAP3 POP POP POP SWAP4 SWAP3 POP POP POP JUMP JUMPDEST PUSH1 0x0 DUP2 SWAP1 POP SWAP2 SWAP1 POP JUMP JUMPDEST PUSH1 0x0 PUSH3 0x80F PUSH3 0x809 PUSH3 0x803 DUP5 PUSH3 0x4CA JUMP JUMPDEST PUSH3 0x7E4 JUMP JUMPDEST PUSH3 0x4CA JUMP JUMPDEST SWAP1 POP SWAP2 SWAP1 POP JUMP JUMPDEST PUSH1 0x0 DUP2 SWAP1 POP SWAP2 SWAP1 POP JUMP JUMPDEST PUSH3 0x82B DUP4 PUSH3 0x7EE JUMP JUMPDEST PUSH3 0x843 PUSH3 0x83A DUP3 PUSH3 0x816 JUMP JUMPDEST DUP5 DUP5 SLOAD PUSH3 0x78E JUMP JUMPDEST DUP3 SSTORE POP POP POP POP JUMP JUMPDEST PUSH1 0x0 SWAP1 JUMP JUMPDEST PUSH3 0x85A PUSH3 0x84B JUMP JUMPDEST PUSH3 0x867 DUP2 DUP5 DUP5 PUSH3 0x820 JUMP JUMPDEST POP POP POP JUMP JUMPDEST JUMPDEST DUP2 DUP2 LT ISZERO PUSH3 0x88F JUMPI PUSH3 0x883 PUSH1 0x0 DUP3 PUSH3 0x850 JUMP JUMPDEST PUSH1 0x1 DUP2 ADD SWAP1 POP PUSH3 0x86D JUMP JUMPDEST POP POP JUMP JUMPDEST PUSH1 0x1F DUP3 GT ISZERO PUSH3 0x8DE JUMPI PUSH3 0x8A8 DUP2 PUSH3 0x75C JUMP JUMPDEST PUSH3 0x8B3 DUP5 PUSH3 0x771 JUMP JUMPDEST DUP2 ADD PUSH1 0x20 DUP6 LT ISZERO PUSH3 0x8C3 JUMPI DUP2 SWAP1 POP JUMPDEST PUSH3 0x8DB PUSH3 0x8D2 DUP6 PUSH3 0x771 JUMP JUMPDEST DUP4 ADD DUP3 PUSH3 0x86C JUMP JUMPDEST POP POP JUMPDEST POP POP POP JUMP JUMPDEST PUSH1 0x0 DUP3 DUP3 SHR SWAP1 POP SWAP3 SWAP2 POP POP JUMP JUMPDEST PUSH1 0x0 PUSH3 0x903 PUSH1 0x0 NOT DUP5 PUSH1 0x8 MUL PUSH3 0x8E3 JUMP JUMPDEST NOT DUP1 DUP4 AND SWAP2 POP POP SWAP3 SWAP2 POP POP JUMP JUMPDEST PUSH1 0x0 PUSH3 0x91E DUP4 DUP4 PUSH3 0x8F0 JUMP JUMPDEST SWAP2 POP DUP3 PUSH1 0x2 MUL DUP3 OR SWAP1 POP SWAP3 SWAP2 POP POP JUMP JUMPDEST PUSH3 0x939 DUP3 PUSH3 0x6ED JUMP JUMPDEST PUSH8 0xFFFFFFFFFFFFFFFF DUP2 GT ISZERO PUSH3 0x955 JUMPI PUSH3 0x954 PUSH3 0x366 JUMP JUMPDEST JUMPDEST PUSH3 0x961 DUP3 SLOAD PUSH3 0x727 JUMP JUMPDEST PUSH3 0x96E DUP3 DUP3 DUP6 PUSH3 0x893 JUMP JUMPDEST PUSH1 0x0 PUSH1 0x20 SWAP1 POP PUSH1 0x1F DUP4 GT PUSH1 0x1 DUP2 EQ PUSH3 0x9A6 JUMPI PUSH1 0x0 DUP5 ISZERO PUSH3 0x991 JUMPI DUP3 DUP8 ADD MLOAD SWAP1 POP JUMPDEST PUSH3 0x99D DUP6 DUP3 PUSH3 0x910 JUMP JUMPDEST DUP7 SSTORE POP PUSH3 0xA0D JUMP JUMPDEST PUSH1 0x1F NOT DUP5 AND PUSH3 0x9B6 DUP7 PUSH3 0x75C JUMP JUMPDEST PUSH1 0x0 JUMPDEST DUP3 DUP2 LT ISZERO PUSH3 0x9E0 JUMPI DUP5 DUP10 ADD MLOAD DUP3 SSTORE PUSH1 0x1 DUP3 ADD SWAP2 POP PUSH1 0x20 DUP6 ADD SWAP5 POP PUSH1 0x20 DUP2 ADD SWAP1 POP PUSH3 0x9B9 JUMP JUMPDEST DUP7 DUP4 LT ISZERO PUSH3 0xA00 JUMPI DUP5 DUP10 ADD MLOAD PUSH3 0x9FC PUSH1 0x1F DUP10 AND DUP3 PUSH3 0x8F0 JUMP JUMPDEST DUP4 SSTORE POP JUMPDEST PUSH1 0x1 PUSH1 0x2 DUP9 MUL ADD DUP9 SSTORE POP POP POP JUMPDEST POP POP POP POP POP POP JUMP JUMPDEST PUSH1 0x0 PUSH3 0xA22 DUP3 PUSH3 0x6ED JUMP JUMPDEST PUSH3 0xA2E DUP2 DUP6 PUSH3 0x5AC JUMP JUMPDEST SWAP4 POP PUSH3 0xA40 DUP2 DUP6 PUSH1 0x20 DUP7 ADD PUSH3 0x420 JUMP JUMPDEST PUSH3 0xA4B DUP2 PUSH3 0x355 JUMP JUMPDEST DUP5 ADD SWAP2 POP POP SWAP3 SWAP2 POP POP JUMP JUMPDEST PUSH3 0xA61 DUP2 PUSH3 0x4CA JUMP JUMPDEST DUP3 MSTORE POP POP JUMP JUMPDEST PUSH1 0x0 PUSH1 0xA0 DUP3 ADD SWAP1 POP DUP2 DUP2 SUB PUSH1 0x0 DUP4 ADD MSTORE PUSH3 0xA83 DUP2 DUP9 PUSH3 0xA15 JUMP JUMPDEST SWAP1 POP PUSH3 0xA94 PUSH1 0x20 DUP4 ADD DUP8 PUSH3 0xA56 JUMP JUMPDEST PUSH3 0xAA3 PUSH1 0x40 DUP4 ADD DUP7 PUSH3 0xA56 JUMP JUMPDEST PUSH3 0xAB2 PUSH1 0x60 DUP4 ADD DUP6 PUSH3 0xA56 JUMP JUMPDEST PUSH3 0xAC1 PUSH1 0x80 DUP4 ADD DUP5 PUSH3 0xA56 JUMP JUMPDEST SWAP7 SWAP6 POP POP POP POP POP POP JUMP JUMPDEST PUSH2 0x2608 DUP1 PUSH3 0xADB PUSH1 0x0 CODECOPY PUSH1 0x0 RETURN INVALID PUSH1 0x80 PUSH1 0x40 MSTORE CALLVALUE DUP1 ISZERO PUSH2 0x10 JUMPI PUSH1 0x0 DUP1 REVERT JUMPDEST POP PUSH1 0x4 CALLDATASIZE LT PUSH2 0x142 JUMPI PUSH1 0x0 CALLDATALOAD PUSH1 0xE0 SHR DUP1 PUSH4 0x91D14854 GT PUSH2 0xB8 JUMPI DUP1 PUSH4 0xD0EBDBE7 GT PUSH2 0x7C JUMPI DUP1 PUSH4 0xD0EBDBE7 EQ PUSH2 0x367 JUMPI DUP1 PUSH4 0xD547741F EQ PUSH2 0x383 JUMPI DUP1 PUSH4 0xD9FCA769 EQ PUSH2 0x39F JUMPI DUP1 PUSH4 0xDFBF53AE EQ PUSH2 0x3BB JUMPI DUP1 PUSH4 0xEC87621C EQ PUSH2 0x3D9 JUMPI DUP1 PUSH4 0xF77FC801 EQ PUSH2 0x3F7 JUMPI PUSH2 0x142 JUMP JUMPDEST DUP1 PUSH4 0x91D14854 EQ PUSH2 0x2C3 JUMPI DUP1 PUSH4 0xA217FDDF EQ PUSH2 0x2F3 JUMPI DUP1 PUSH4 0xAF74BC14 EQ PUSH2 0x311 JUMPI DUP1 PUSH4 0xB62A0AC0 EQ PUSH2 0x32F JUMPI DUP1 PUSH4 0xC4A796C1 EQ PUSH2 0x34B JUMPI PUSH2 0x142 JUMP JUMPDEST DUP1 PUSH4 0x248A9CA3 GT PUSH2 0x10A JUMPI DUP1 PUSH4 0x248A9CA3 EQ PUSH2 0x1EF JUMPI DUP1 PUSH4 0x2F2FF15D EQ PUSH2 0x21F JUMPI DUP1 PUSH4 0x36568ABE EQ PUSH2 0x23B JUMPI DUP1 PUSH4 0x4768D4EF EQ PUSH2 0x257 JUMPI DUP1 PUSH4 0x79C4264B EQ PUSH2 0x289 JUMPI DUP1 PUSH4 0x8BEE4D3E EQ PUSH2 0x2A7 JUMPI PUSH2 0x142 JUMP JUMPDEST DUP1 PUSH4 0x14892A4 EQ PUSH2 0x147 JUMPI DUP1 PUSH4 0x1FFC9A7 EQ PUSH2 0x163 JUMPI DUP1 PUSH4 0xCA31D3A EQ PUSH2 0x193 JUMPI DUP1 PUSH4 0x16C30EBC EQ PUSH2 0x1AF JUMPI DUP1 PUSH4 0x1E0197E2 EQ PUSH2 0x1CD JUMPI JUMPDEST PUSH1 0x0 DUP1 REVERT JUMPDEST PUSH2 0x161 PUSH1 0x4 DUP1 CALLDATASIZE SUB DUP2 ADD SWAP1 PUSH2 0x15C SWAP2 SWAP1 PUSH2 0x153C JUMP JUMPDEST PUSH2 0x427 JUMP JUMPDEST STOP JUMPDEST PUSH2 0x17D PUSH1 0x4 DUP1 CALLDATASIZE SUB DUP2 ADD SWAP1 PUSH2 0x178 SWAP2 SWAP1 PUSH2 0x15D4 JUMP JUMPDEST PUSH2 0x5EA JUMP JUMPDEST PUSH1 0x40 MLOAD PUSH2 0x18A SWAP2 SWAP1 PUSH2 0x161C JUMP JUMPDEST PUSH1 0x40 MLOAD DUP1 SWAP2 SUB SWAP1 RETURN JUMPDEST PUSH2 0x1AD PUSH1 0x4 DUP1 CALLDATASIZE SUB DUP2 ADD SWAP1 PUSH2 0x1A8 SWAP2 SWAP1 PUSH2 0x1673 JUMP JUMPDEST PUSH2 0x664 JUMP JUMPDEST STOP JUMPDEST PUSH2 0x1B7 PUSH2 0x6C7 JUMP JUMPDEST PUSH1 0x40 MLOAD PUSH2 0x1C4 SWAP2 SWAP1 PUSH2 0x16CC JUMP JUMPDEST PUSH1 0x40 MLOAD DUP1 SWAP2 SUB SWAP1 RETURN JUMPDEST PUSH2 0x1D5 PUSH2 0x6EB JUMP JUMPDEST PUSH1 0x40 MLOAD PUSH2 0x1E6 SWAP6 SWAP5 SWAP4 SWAP3 SWAP2 SWAP1 PUSH2 0x1786 JUMP JUMPDEST PUSH1 0x40 MLOAD DUP1 SWAP2 SUB SWAP1 RETURN JUMPDEST PUSH2 0x209 PUSH1 0x4 DUP1 CALLDATASIZE SUB DUP2 ADD SWAP1 PUSH2 0x204 SWAP2 SWAP1 PUSH2 0x180C JUMP JUMPDEST PUSH2 0x797 JUMP JUMPDEST PUSH1 0x40 MLOAD PUSH2 0x216 SWAP2 SWAP1 PUSH2 0x16CC JUMP JUMPDEST PUSH1 0x40 MLOAD DUP1 SWAP2 SUB SWAP1 RETURN JUMPDEST PUSH2 0x239 PUSH1 0x4 DUP1 CALLDATASIZE SUB DUP2 ADD SWAP1 PUSH2 0x234 SWAP2 SWAP1 PUSH2 0x1839 JUMP JUMPDEST PUSH2 0x7B6 JUMP JUMPDEST STOP JUMPDEST PUSH2 0x255 PUSH1 0x4 DUP1 CALLDATASIZE SUB DUP2 ADD SWAP1 PUSH2 0x250 SWAP2 SWAP1 PUSH2 0x1839 JUMP JUMPDEST PUSH2 0x7D8 JUMP JUMPDEST STOP JUMPDEST PUSH2 0x271 PUSH1 0x4 DUP1 CALLDATASIZE SUB DUP2 ADD SWAP1 PUSH2 0x26C SWAP2 SWAP1 PUSH2 0x1879 JUMP JUMPDEST PUSH2 0x853 JUMP JUMPDEST PUSH1 0x40 MLOAD PUSH2 0x280 SWAP4 SWAP3 SWAP2 SWAP1 PUSH2 0x18B5 JUMP JUMPDEST PUSH1 0x40 MLOAD DUP1 SWAP2 SUB SWAP1 RETURN JUMPDEST PUSH2 0x291 PUSH2 0x8AD JUMP JUMPDEST PUSH1 0x40 MLOAD PUSH2 0x29E SWAP2 SWAP1 PUSH2 0x18EC JUMP JUMPDEST PUSH1 0x40 MLOAD DUP1 SWAP2 SUB SWAP1 RETURN JUMPDEST PUSH2 0x2C1 PUSH1 0x4 DUP1 CALLDATASIZE SUB DUP2 ADD SWAP1 PUSH2 0x2BC SWAP2 SWAP1 PUSH2 0x1A3C JUMP JUMPDEST PUSH2 0x8B3 JUMP JUMPDEST STOP JUMPDEST PUSH2 0x2DD PUSH1 0x4 DUP1 CALLDATASIZE SUB DUP2 ADD SWAP1 PUSH2 0x2D8 SWAP2 SWAP1 PUSH2 0x1839 JUMP JUMPDEST PUSH2 0xA3C JUMP JUMPDEST PUSH1 0x40 MLOAD PUSH2 0x2EA SWAP2 SWAP1 PUSH2 0x161C JUMP JUMPDEST PUSH1 0x40 MLOAD DUP1 SWAP2 SUB SWAP1 RETURN JUMPDEST PUSH2 0x2FB PUSH2 0xAA6 JUMP JUMPDEST PUSH1 0x40 MLOAD PUSH2 0x308 SWAP2 SWAP1 PUSH2 0x16CC JUMP JUMPDEST PUSH1 0x40 MLOAD DUP1 SWAP2 SUB SWAP1 RETURN JUMPDEST PUSH2 0x319 PUSH2 0xAAD JUMP JUMPDEST PUSH1 0x40 MLOAD PUSH2 0x326 SWAP2 SWAP1 PUSH2 0x16CC JUMP JUMPDEST PUSH1 0x40 MLOAD DUP1 SWAP2 SUB SWAP1 RETURN JUMPDEST PUSH2 0x349 PUSH1 0x4 DUP1 CALLDATASIZE SUB DUP2 ADD SWAP1 PUSH2 0x344 SWAP2 SWAP1 PUSH2 0x1BD4 JUMP JUMPDEST PUSH2 0xAD1 JUMP JUMPDEST STOP JUMPDEST PUSH2 0x365 PUSH1 0x4 DUP1 CALLDATASIZE SUB DUP2 ADD SWAP1 PUSH2 0x360 SWAP2 SWAP1 PUSH2 0x1C43 JUMP JUMPDEST PUSH2 0xB37 JUMP JUMPDEST STOP JUMPDEST PUSH2 0x381 PUSH1 0x4 DUP1 CALLDATASIZE SUB DUP2 ADD SWAP1 PUSH2 0x37C SWAP2 SWAP1 PUSH2 0x1C43 JUMP JUMPDEST PUSH2 0xB73 JUMP JUMPDEST STOP JUMPDEST PUSH2 0x39D PUSH1 0x4 DUP1 CALLDATASIZE SUB DUP2 ADD SWAP1 PUSH2 0x398 SWAP2 SWAP1 PUSH2 0x1839 JUMP JUMPDEST PUSH2 0xBAF JUMP JUMPDEST STOP JUMPDEST PUSH2 0x3B9 PUSH1 0x4 DUP1 CALLDATASIZE SUB DUP2 ADD SWAP1 PUSH2 0x3B4 SWAP2 SWAP1 PUSH2 0x1C43 JUMP JUMPDEST PUSH2 0xBD1 JUMP JUMPDEST STOP JUMPDEST PUSH2 0x3C3 PUSH2 0xCA1 JUMP JUMPDEST PUSH1 0x40 MLOAD PUSH2 0x3D0 SWAP2 SWAP1 PUSH2 0x1C7F JUMP JUMPDEST PUSH1 0x40 MLOAD DUP1 SWAP2 SUB SWAP1 RETURN JUMPDEST PUSH2 0x3E1 PUSH2 0xCC7 JUMP JUMPDEST PUSH1 0x40 MLOAD PUSH2 0x3EE SWAP2 SWAP1 PUSH2 0x16CC JUMP JUMPDEST PUSH1 0x40 MLOAD DUP1 SWAP2 SUB SWAP1 RETURN JUMPDEST PUSH2 0x411 PUSH1 0x4 DUP1 CALLDATASIZE SUB DUP2 ADD SWAP1 PUSH2 0x40C SWAP2 SWAP1 PUSH2 0x1C9A JUMP JUMPDEST PUSH2 0xCEB JUMP JUMPDEST PUSH1 0x40 MLOAD PUSH2 0x41E SWAP2 SWAP1 PUSH2 0x1C7F JUMP JUMPDEST PUSH1 0x40 MLOAD DUP1 SWAP2 SUB SWAP1 RETURN JUMPDEST PUSH1 0x0 DUP1 SHL PUSH2 0x434 DUP2 PUSH2 0xD1E JUMP JUMPDEST TIMESTAMP PUSH1 0x3 PUSH1 0x1 ADD SLOAD GT PUSH2 0x47B JUMPI PUSH1 0x40 MLOAD PUSH32 0x8C379A000000000000000000000000000000000000000000000000000000000 DUP2 MSTORE PUSH1 0x4 ADD PUSH2 0x472 SWAP1 PUSH2 0x1D13 JUMP JUMPDEST PUSH1 0x40 MLOAD DUP1 SWAP2 SUB SWAP1 REVERT JUMPDEST PUSH2 0x4A5 PUSH32 0xCE04D177CFE9F73A7157BDA35B0ADD7251966AD70509CEAEF76AD7D5E6C45042 DUP5 PUSH2 0xA3C JUMP JUMPDEST ISZERO PUSH2 0x4E5 JUMPI PUSH1 0x40 MLOAD PUSH32 0x8C379A000000000000000000000000000000000000000000000000000000000 DUP2 MSTORE PUSH1 0x4 ADD PUSH2 0x4DC SWAP1 PUSH2 0x1D7F JUMP JUMPDEST PUSH1 0x40 MLOAD DUP1 SWAP2 SUB SWAP1 REVERT JUMPDEST PUSH1 0x9 PUSH1 0x0 DUP2 DUP2 SWAP1 SLOAD SWAP1 PUSH2 0x100 EXP SWAP1 DIV PUSH4 0xFFFFFFFF AND DUP1 SWAP3 SWAP2 SWAP1 PUSH2 0x507 SWAP1 PUSH2 0x1DCE JUMP JUMPDEST SWAP2 SWAP1 PUSH2 0x100 EXP DUP2 SLOAD DUP2 PUSH4 0xFFFFFFFF MUL NOT AND SWAP1 DUP4 PUSH4 0xFFFFFFFF AND MUL OR SWAP1 SSTORE POP POP PUSH2 0x550 PUSH32 0xCE04D177CFE9F73A7157BDA35B0ADD7251966AD70509CEAEF76AD7D5E6C45042 DUP5 PUSH2 0xD32 JUMP JUMPDEST POP PUSH1 0x0 DUP3 PUSH2 0x3E8 PUSH1 0x9 PUSH1 0x0 SWAP1 SLOAD SWAP1 PUSH2 0x100 EXP SWAP1 DIV PUSH4 0xFFFFFFFF AND PUSH2 0x574 SWAP2 SWAP1 PUSH2 0x1DFA JUMP JUMPDEST PUSH4 0xFFFFFFFF AND PUSH2 0x584 SWAP2 SWAP1 PUSH2 0x1E37 JUMP JUMPDEST SWAP1 POP DUP4 PUSH1 0x8 PUSH1 0x0 DUP4 PUSH4 0xFFFFFFFF AND PUSH4 0xFFFFFFFF AND DUP2 MSTORE PUSH1 0x20 ADD SWAP1 DUP2 MSTORE PUSH1 0x20 ADD PUSH1 0x0 KECCAK256 PUSH1 0x0 PUSH2 0x100 EXP DUP2 SLOAD DUP2 PUSH20 0xFFFFFFFFFFFFFFFFFFFFFFFFFFFFFFFFFFFFFFFF MUL NOT AND SWAP1 DUP4 PUSH20 0xFFFFFFFFFFFFFFFFFFFFFFFFFFFFFFFFFFFFFFFF AND MUL OR SWAP1 SSTORE POP POP POP POP POP JUMP JUMPDEST PUSH1 0x0 PUSH32 0x7965DB0B00000000000000000000000000000000000000000000000000000000 PUSH28 0xFFFFFFFFFFFFFFFFFFFFFFFFFFFFFFFFFFFFFFFFFFFFFFFFFFFFFFFF NOT AND DUP3 PUSH28 0xFFFFFFFFFFFFFFFFFFFFFFFFFFFFFFFFFFFFFFFFFFFFFFFFFFFFFFFF NOT AND EQ DUP1 PUSH2 0x65D JUMPI POP PUSH2 0x65C DUP3 PUSH2 0xE23 JUMP JUMPDEST JUMPDEST SWAP1 POP SWAP2 SWAP1 POP JUMP JUMPDEST PUSH1 0x0 DUP1 SHL PUSH2 0x671 DUP2 PUSH2 0xD1E JUMP JUMPDEST TIMESTAMP PUSH1 0x3 PUSH1 0x2 ADD SLOAD GT PUSH2 0x6B8 JUMPI PUSH1 0x40 MLOAD PUSH32 0x8C379A000000000000000000000000000000000000000000000000000000000 DUP2 MSTORE PUSH1 0x4 ADD PUSH2 0x6AF SWAP1 PUSH2 0x1EB7 JUMP JUMPDEST PUSH1 0x40 MLOAD DUP1 SWAP2 SUB SWAP1 REVERT JUMPDEST PUSH2 0x6C2 DUP4 DUP4 PUSH2 0xE8D JUMP JUMPDEST POP POP POP JUMP JUMPDEST PUSH32 0xCE04D177CFE9F73A7157BDA35B0ADD7251966AD70509CEAEF76AD7D5E6C45042 DUP2 JUMP JUMPDEST PUSH1 0x3 DUP1 PUSH1 0x0 ADD DUP1 SLOAD PUSH2 0x6FC SWAP1 PUSH2 0x1F06 JUMP JUMPDEST DUP1 PUSH1 0x1F ADD PUSH1 0x20 DUP1 SWAP2 DIV MUL PUSH1 0x20 ADD PUSH1 0x40 MLOAD SWAP1 DUP2 ADD PUSH1 0x40 MSTORE DUP1 SWAP3 SWAP2 SWAP1 DUP2 DUP2 MSTORE PUSH1 0x20 ADD DUP3 DUP1 SLOAD PUSH2 0x728 SWAP1 PUSH2 0x1F06 JUMP JUMPDEST DUP1 ISZERO PUSH2 0x775 JUMPI DUP1 PUSH1 0x1F LT PUSH2 0x74A JUMPI PUSH2 0x100 DUP1 DUP4 SLOAD DIV MUL DUP4 MSTORE SWAP2 PUSH1 0x20 ADD SWAP2 PUSH2 0x775 JUMP JUMPDEST DUP3 ADD SWAP2 SWAP1 PUSH1 0x0 MSTORE PUSH1 0x20 PUSH1 0x0 KECCAK256 SWAP1 JUMPDEST DUP2 SLOAD DUP2 MSTORE SWAP1 PUSH1 0x1 ADD SWAP1 PUSH1 0x20 ADD DUP1 DUP4 GT PUSH2 0x758 JUMPI DUP3 SWAP1 SUB PUSH1 0x1F AND DUP3 ADD SWAP2 JUMPDEST POP POP POP POP POP SWAP1 DUP1 PUSH1 0x1 ADD SLOAD SWAP1 DUP1 PUSH1 0x2 ADD SLOAD SWAP1 DUP1 PUSH1 0x3 ADD SLOAD SWAP1 DUP1 PUSH1 0x4 ADD SLOAD SWAP1 POP DUP6 JUMP JUMPDEST PUSH1 0x0 DUP1 PUSH1 0x0 DUP4 DUP2 MSTORE PUSH1 0x20 ADD SWAP1 DUP2 MSTORE PUSH1 0x20 ADD PUSH1 0x0 KECCAK256 PUSH1 0x1 ADD SLOAD SWAP1 POP SWAP2 SWAP1 POP JUMP JUMPDEST PUSH2 0x7BF DUP3 PUSH2 0x797 JUMP JUMPDEST PUSH2 0x7C8 DUP2 PUSH2 0xD1E JUMP JUMPDEST PUSH2 0x7D2 DUP4 DUP4 PUSH2 0xD32 JUMP JUMPDEST POP POP POP POP JUMP JUMPDEST PUSH2 0x7E0 PUSH2 0x104D JUMP JUMPDEST PUSH20 0xFFFFFFFFFFFFFFFFFFFFFFFFFFFFFFFFFFFFFFFF AND DUP2 PUSH20 0xFFFFFFFFFFFFFFFFFFFFFFFFFFFFFFFFFFFFFFFF AND EQ PUSH2 0x844 JUMPI PUSH1 0x40 MLOAD PUSH32 0x6697B23200000000000000000000000000000000000000000000000000000000 DUP2 MSTORE PUSH1 0x4 ADD PUSH1 0x40 MLOAD DUP1 SWAP2 SUB SWAP1 REVERT JUMPDEST PUSH2 0x84E DUP3 DUP3 PUSH2 0x1055 JUMP JUMPDEST POP POP POP JUMP JUMPDEST PUSH1 0x2 PUSH1 0x20 MSTORE DUP1 PUSH1 0x0 MSTORE PUSH1 0x40 PUSH1 0x0 KECCAK256 PUSH1 0x0 SWAP2 POP SWAP1 POP DUP1 PUSH1 0x0 ADD PUSH1 0x0 SWAP1 SLOAD SWAP1 PUSH2 0x100 EXP SWAP1 DIV PUSH4 0xFFFFFFFF AND SWAP1 DUP1 PUSH1 0x0 ADD PUSH1 0x4 SWAP1 SLOAD SWAP1 PUSH2 0x100 EXP SWAP1 DIV PUSH4 0xFFFFFFFF AND SWAP1 DUP1 PUSH1 0x2 ADD PUSH1 0x0 SWAP1 SLOAD SWAP1 PUSH2 0x100 EXP SWAP1 DIV PUSH4 0xFFFFFFFF AND SWAP1 POP DUP4 JUMP JUMPDEST PUSH1 0x1 SLOAD DUP2 JUMP JUMPDEST PUSH1 0x0 DUP1 SHL PUSH2 0x8C0 DUP2 PUSH2 0xD1E JUMP JUMPDEST TIMESTAMP PUSH1 0x3 PUSH1 0x1 ADD SLOAD GT PUSH2 0x907 JUMPI PUSH1 0x40 MLOAD PUSH32 0x8C379A000000000000000000000000000000000000000000000000000000000 DUP2 MSTORE PUSH1 0x4 ADD PUSH2 0x8FE SWAP1 PUSH2 0x1D13 JUMP JUMPDEST PUSH1 0x40 MLOAD DUP1 SWAP2 SUB SWAP1 REVERT JUMPDEST TIMESTAMP DUP6 GT PUSH2 0x949 JUMPI PUSH1 0x40 MLOAD PUSH32 0x8C379A000000000000000000000000000000000000000000000000000000000 DUP2 MSTORE PUSH1 0x4 ADD PUSH2 0x940 SWAP1 PUSH2 0x1FA9 JUMP JUMPDEST PUSH1 0x40 MLOAD DUP1 SWAP2 SUB SWAP1 REVERT JUMPDEST DUP5 DUP5 GT PUSH2 0x98B JUMPI PUSH1 0x40 MLOAD PUSH32 0x8C379A000000000000000000000000000000000000000000000000000000000 DUP2 MSTORE PUSH1 0x4 ADD PUSH2 0x982 SWAP1 PUSH2 0x203B JUMP JUMPDEST PUSH1 0x40 MLOAD DUP1 SWAP2 SUB SWAP1 REVERT JUMPDEST PUSH1 0x40 MLOAD DUP1 PUSH1 0xA0 ADD PUSH1 0x40 MSTORE DUP1 DUP8 DUP2 MSTORE PUSH1 0x20 ADD DUP7 DUP2 MSTORE PUSH1 0x20 ADD DUP6 DUP2 MSTORE PUSH1 0x20 ADD DUP5 DUP2 MSTORE PUSH1 0x20 ADD DUP4 DUP2 MSTORE POP PUSH1 0x3 PUSH1 0x0 DUP3 ADD MLOAD DUP2 PUSH1 0x0 ADD SWAP1 DUP2 PUSH2 0x9C9 SWAP2 SWAP1 PUSH2 0x2207 JUMP JUMPDEST POP PUSH1 0x20 DUP3 ADD MLOAD DUP2 PUSH1 0x1 ADD SSTORE PUSH1 0x40 DUP3 ADD MLOAD DUP2 PUSH1 0x2 ADD SSTORE PUSH1 0x60 DUP3 ADD MLOAD DUP2 PUSH1 0x3 ADD SSTORE PUSH1 0x80 DUP3 ADD MLOAD DUP2 PUSH1 0x4 ADD SSTORE SWAP1 POP POP PUSH32 0x3B74D2C591A501617CEC92C77AEBCF079BDF90CEDF6F9C583CAD47A2D516F0DE DUP7 DUP7 DUP7 DUP7 DUP7 PUSH1 0x40 MLOAD PUSH2 0xA2C SWAP6 SWAP5 SWAP4 SWAP3 SWAP2 SWAP1 PUSH2 0x1786 JUMP JUMPDEST PUSH1 0x40 MLOAD DUP1 SWAP2 SUB SWAP1 LOG1 POP POP POP POP POP POP JUMP JUMPDEST PUSH1 0x0 DUP1 PUSH1 0x0 DUP5 DUP2 MSTORE PUSH1 0x20 ADD SWAP1 DUP2 MSTORE PUSH1 0x20 ADD PUSH1 0x0 KECCAK256 PUSH1 0x0 ADD PUSH1 0x0 DUP4 PUSH20 0xFFFFFFFFFFFFFFFFFFFFFFFFFFFFFFFFFFFFFFFF AND PUSH20 0xFFFFFFFFFFFFFFFFFFFFFFFFFFFFFFFFFFFFFFFF AND DUP2 MSTORE PUSH1 0x20 ADD SWAP1 DUP2 MSTORE PUSH1 0x20 ADD PUSH1 0x0 KECCAK256 PUSH1 0x0 SWAP1 SLOAD SWAP1 PUSH2 0x100 EXP SWAP1 DIV PUSH1 0xFF AND SWAP1 POP SWAP3 SWAP2 POP POP JUMP JUMPDEST PUSH1 0x0 DUP1 SHL DUP2 JUMP JUMPDEST PUSH32 0xAEF88082B8671E875D97D0D6C81D06FB9E76F97B3AD7523A55A378E5298AEEEE DUP2 JUMP JUMPDEST PUSH1 0x0 DUP1 SHL PUSH2 0xADE DUP2 PUSH2 0xD1E JUMP JUMPDEST TIMESTAMP PUSH1 0x3 PUSH1 0x1 ADD SLOAD GT ISZERO PUSH2 0xB26 JUMPI PUSH1 0x40 MLOAD PUSH32 0x8C379A000000000000000000000000000000000000000000000000000000000 DUP2 MSTORE PUSH1 0x4 ADD PUSH2 0xB1D SWAP1 PUSH2 0x2325 JUMP JUMPDEST PUSH1 0x40 MLOAD DUP1 SWAP2 SUB SWAP1 REVERT JUMPDEST PUSH2 0xB31 DUP5 DUP5 DUP5 PUSH2 0x1147 JUMP JUMPDEST POP POP POP POP JUMP JUMPDEST PUSH1 0x0 DUP1 SHL PUSH2 0xB44 DUP2 PUSH2 0xD1E JUMP JUMPDEST PUSH2 0xB6E PUSH32 0xAEF88082B8671E875D97D0D6C81D06FB9E76F97B3AD7523A55A378E5298AEEEE DUP4 PUSH2 0xD32 JUMP JUMPDEST POP POP POP JUMP JUMPDEST PUSH1 0x0 DUP1 SHL PUSH2 0xB80 DUP2 PUSH2 0xD1E JUMP JUMPDEST PUSH2 0xBAA PUSH32 0x241ECF16D79D0F8DBFB92CBC07FE17840425976CF0667F022FE9877CAA831B08 DUP4 PUSH2 0xD32 JUMP JUMPDEST POP POP POP JUMP JUMPDEST PUSH2 0xBB8 DUP3 PUSH2 0x797 JUMP JUMPDEST PUSH2 0xBC1 DUP2 PUSH2 0xD1E JUMP JUMPDEST PUSH2 0xBCB DUP4 DUP4 PUSH2 0x1055 JUMP JUMPDEST POP POP POP POP JUMP JUMPDEST PUSH1 0x0 DUP1 SHL PUSH2 0xBDE DUP2 PUSH2 0xD1E JUMP JUMPDEST TIMESTAMP PUSH1 0x3 PUSH1 0x2 ADD SLOAD LT PUSH2 0xC25 JUMPI PUSH1 0x40 MLOAD PUSH32 0x8C379A000000000000000000000000000000000000000000000000000000000 DUP2 MSTORE PUSH1 0x4 ADD PUSH2 0xC1C SWAP1 PUSH2 0x2391 JUMP JUMPDEST PUSH1 0x40 MLOAD DUP1 SWAP2 SUB SWAP1 REVERT JUMPDEST DUP2 PUSH1 0x9 PUSH1 0x4 PUSH2 0x100 EXP DUP2 SLOAD DUP2 PUSH20 0xFFFFFFFFFFFFFFFFFFFFFFFFFFFFFFFFFFFFFFFF MUL NOT AND SWAP1 DUP4 PUSH20 0xFFFFFFFFFFFFFFFFFFFFFFFFFFFFFFFFFFFFFFFF AND MUL OR SWAP1 SSTORE POP PUSH32 0x12BEAD0C51E5C766FB9CBD4B33032A5FAD309C1929A6BAA8A80DB13134D16A23 DUP3 PUSH1 0x40 MLOAD PUSH2 0xC95 SWAP2 SWAP1 PUSH2 0x1C7F JUMP JUMPDEST PUSH1 0x40 MLOAD DUP1 SWAP2 SUB SWAP1 LOG1 POP POP JUMP JUMPDEST PUSH1 0x9 PUSH1 0x4 SWAP1 SLOAD SWAP1 PUSH2 0x100 EXP SWAP1 DIV PUSH20 0xFFFFFFFFFFFFFFFFFFFFFFFFFFFFFFFFFFFFFFFF AND DUP2 JUMP JUMPDEST PUSH32 0x241ECF16D79D0F8DBFB92CBC07FE17840425976CF0667F022FE9877CAA831B08 DUP2 JUMP JUMPDEST PUSH1 0x8 PUSH1 0x20 MSTORE DUP1 PUSH1 0x0 MSTORE PUSH1 0x40 PUSH1 0x0 KECCAK256 PUSH1 0x0 SWAP2 POP SLOAD SWAP1 PUSH2 0x100 EXP SWAP1 DIV PUSH20 0xFFFFFFFFFFFFFFFFFFFFFFFFFFFFFFFFFFFFFFFF AND DUP2 JUMP JUMPDEST PUSH2 0xD2F DUP2 PUSH2 0xD2A PUSH2 0x104D JUMP JUMPDEST PUSH2 0x1376 JUMP JUMPDEST POP JUMP JUMPDEST PUSH1 0x0 PUSH2 0xD3E DUP4 DUP4 PUSH2 0xA3C JUMP JUMPDEST PUSH2 0xE18 JUMPI PUSH1 0x1 PUSH1 0x0 DUP1 DUP6 DUP2 MSTORE PUSH1 0x20 ADD SWAP1 DUP2 MSTORE PUSH1 0x20 ADD PUSH1 0x0 KECCAK256 PUSH1 0x0 ADD PUSH1 0x0 DUP5 PUSH20 0xFFFFFFFFFFFFFFFFFFFFFFFFFFFFFFFFFFFFFFFF AND PUSH20 0xFFFFFFFFFFFFFFFFFFFFFFFFFFFFFFFFFFFFFFFF AND DUP2 MSTORE PUSH1 0x20 ADD SWAP1 DUP2 MSTORE PUSH1 0x20 ADD PUSH1 0x0 KECCAK256 PUSH1 0x0 PUSH2 0x100 EXP DUP2 SLOAD DUP2 PUSH1 0xFF MUL NOT AND SWAP1 DUP4 ISZERO ISZERO MUL OR SWAP1 SSTORE POP PUSH2 0xDB5 PUSH2 0x104D JUMP JUMPDEST PUSH20 0xFFFFFFFFFFFFFFFFFFFFFFFFFFFFFFFFFFFFFFFF AND DUP3 PUSH20 0xFFFFFFFFFFFFFFFFFFFFFFFFFFFFFFFFFFFFFFFF AND DUP5 PUSH32 0x2F8788117E7EFF1D82E926EC794901D17C78024A50270940304540A733656F0D PUSH1 0x40 MLOAD PUSH1 0x40 MLOAD DUP1 SWAP2 SUB SWAP1 LOG4 PUSH1 0x1 SWAP1 POP PUSH2 0xE1D JUMP JUMPDEST PUSH1 0x0 SWAP1 POP JUMPDEST SWAP3 SWAP2 POP POP JUMP JUMPDEST PUSH1 0x0 PUSH32 0x1FFC9A700000000000000000000000000000000000000000000000000000000 PUSH28 0xFFFFFFFFFFFFFFFFFFFFFFFFFFFFFFFFFFFFFFFFFFFFFFFFFFFFFFFF NOT AND DUP3 PUSH28 0xFFFFFFFFFFFFFFFFFFFFFFFFFFFFFFFFFFFFFFFFFFFFFFFFFFFFFFFF NOT AND EQ SWAP1 POP SWAP2 SWAP1 POP JUMP JUMPDEST PUSH1 0x1 PUSH1 0x0 DUP2 SLOAD DUP1 SWAP3 SWAP2 SWAP1 PUSH2 0xEA0 SWAP1 PUSH2 0x23B1 JUMP JUMPDEST SWAP2 SWAP1 POP SSTORE POP PUSH1 0x0 DUP3 PUSH4 0xFFFFFFFF AND EQ ISZERO DUP1 PUSH2 0xEC2 JUMPI POP PUSH1 0x0 DUP2 PUSH4 0xFFFFFFFF AND EQ ISZERO JUMPDEST PUSH2 0xF01 JUMPI PUSH1 0x40 MLOAD PUSH32 0x8C379A000000000000000000000000000000000000000000000000000000000 DUP2 MSTORE PUSH1 0x4 ADD PUSH2 0xEF8 SWAP1 PUSH2 0x2445 JUMP JUMPDEST PUSH1 0x40 MLOAD DUP1 SWAP2 SUB SWAP1 REVERT JUMPDEST DUP1 PUSH4 0xFFFFFFFF AND DUP3 PUSH4 0xFFFFFFFF AND SUB PUSH2 0xF4F JUMPI PUSH1 0x40 MLOAD PUSH32 0x8C379A000000000000000000000000000000000000000000000000000000000 DUP2 MSTORE PUSH1 0x4 ADD PUSH2 0xF46 SWAP1 PUSH2 0x24B1 JUMP JUMPDEST PUSH1 0x40 MLOAD DUP1 SWAP2 SUB SWAP1 REVERT JUMPDEST DUP2 PUSH1 0x2 PUSH1 0x0 PUSH1 0x1 SLOAD DUP2 MSTORE PUSH1 0x20 ADD SWAP1 DUP2 MSTORE PUSH1 0x20 ADD PUSH1 0x0 KECCAK256 PUSH1 0x0 ADD PUSH1 0x0 PUSH2 0x100 EXP DUP2 SLOAD DUP2 PUSH4 0xFFFFFFFF MUL NOT AND SWAP1 DUP4 PUSH4 0xFFFFFFFF AND MUL OR SWAP1 SSTORE POP DUP1 PUSH1 0x2 PUSH1 0x0 PUSH1 0x1 SLOAD DUP2 MSTORE PUSH1 0x20 ADD SWAP1 DUP2 MSTORE PUSH1 0x20 ADD PUSH1 0x0 KECCAK256 PUSH1 0x0 ADD PUSH1 0x4 PUSH2 0x100 EXP DUP2 SLOAD DUP2 PUSH4 0xFFFFFFFF MUL NOT AND SWAP1 DUP4 PUSH4 0xFFFFFFFF AND MUL OR SWAP1 SSTORE POP PUSH1 0x0 DUP3 PUSH4 0xFFFFFFFF AND SUB PUSH2 0x1003 JUMPI DUP1 PUSH1 0x2 PUSH1 0x0 PUSH1 0x1 SLOAD DUP2 MSTORE PUSH1 0x20 ADD SWAP1 DUP2 MSTORE PUSH1 0x20 ADD PUSH1 0x0 KECCAK256 PUSH1 0x2 ADD PUSH1 0x0 PUSH2 0x100 EXP DUP2 SLOAD DUP2 PUSH4 0xFFFFFFFF MUL NOT AND SWAP1 DUP4 PUSH4 0xFFFFFFFF AND MUL OR SWAP1 SSTORE POP JUMPDEST PUSH1 0x0 DUP2 PUSH4 0xFFFFFFFF AND SUB PUSH2 0x1049 JUMPI DUP2 PUSH1 0x2 PUSH1 0x0 PUSH1 0x1 SLOAD DUP2 MSTORE PUSH1 0x20 ADD SWAP1 DUP2 MSTORE PUSH1 0x20 ADD PUSH1 0x0 KECCAK256 PUSH1 0x2 ADD PUSH1 0x0 PUSH2 0x100 EXP DUP2 SLOAD DUP2 PUSH4 0xFFFFFFFF MUL NOT AND SWAP1 DUP4 PUSH4 0xFFFFFFFF AND MUL OR SWAP1 SSTORE POP JUMPDEST POP POP JUMP JUMPDEST PUSH1 0x0 CALLER SWAP1 POP SWAP1 JUMP JUMPDEST PUSH1 0x0 PUSH2 0x1061 DUP4 DUP4 PUSH2 0xA3C JUMP JUMPDEST ISZERO PUSH2 0x113C JUMPI PUSH1 0x0 DUP1 PUSH1 0x0 DUP6 DUP2 MSTORE PUSH1 0x20 ADD SWAP1 DUP2 MSTORE PUSH1 0x20 ADD PUSH1 0x0 KECCAK256 PUSH1 0x0 ADD PUSH1 0x0 DUP5 PUSH20 0xFFFFFFFFFFFFFFFFFFFFFFFFFFFFFFFFFFFFFFFF AND PUSH20 0xFFFFFFFFFFFFFFFFFFFFFFFFFFFFFFFFFFFFFFFF AND DUP2 MSTORE PUSH1 0x20 ADD SWAP1 DUP2 MSTORE PUSH1 0x20 ADD PUSH1 0x0 KECCAK256 PUSH1 0x0 PUSH2 0x100 EXP DUP2 SLOAD DUP2 PUSH1 0xFF MUL NOT AND SWAP1 DUP4 ISZERO ISZERO MUL OR SWAP1 SSTORE POP PUSH2 0x10D9 PUSH2 0x104D JUMP JUMPDEST PUSH20 0xFFFFFFFFFFFFFFFFFFFFFFFFFFFFFFFFFFFFFFFF AND DUP3 PUSH20 0xFFFFFFFFFFFFFFFFFFFFFFFFFFFFFFFFFFFFFFFF AND DUP5 PUSH32 0xF6391F5C32D9C69D2A47EA670B442974B53935D1EDC7FD64EB21E047A839171B PUSH1 0x40 MLOAD PUSH1 0x40 MLOAD DUP1 SWAP2 SUB SWAP1 LOG4 PUSH1 0x1 SWAP1 POP PUSH2 0x1141 JUMP JUMPDEST PUSH1 0x0 SWAP1 POP JUMPDEST SWAP3 SWAP2 POP POP JUMP JUMPDEST PUSH1 0x0 PUSH1 0x2 PUSH1 0x0 DUP6 DUP2 MSTORE PUSH1 0x20 ADD SWAP1 DUP2 MSTORE PUSH1 0x20 ADD PUSH1 0x0 KECCAK256 PUSH1 0x2 ADD PUSH1 0x0 SWAP1 SLOAD SWAP1 PUSH2 0x100 EXP SWAP1 DIV PUSH4 0xFFFFFFFF AND PUSH4 0xFFFFFFFF AND EQ PUSH2 0x11B6 JUMPI PUSH1 0x40 MLOAD PUSH32 0x8C379A000000000000000000000000000000000000000000000000000000000 DUP2 MSTORE PUSH1 0x4 ADD PUSH2 0x11AD SWAP1 PUSH2 0x251D JUMP JUMPDEST PUSH1 0x40 MLOAD DUP1 SWAP2 SUB SWAP1 REVERT JUMPDEST PUSH1 0x0 DUP2 PUSH1 0xFF AND GT DUP1 ISZERO PUSH2 0x11CD JUMPI POP PUSH1 0x3 DUP2 PUSH1 0xFF AND GT ISZERO JUMPDEST PUSH2 0x120C JUMPI PUSH1 0x40 MLOAD PUSH32 0x8C379A000000000000000000000000000000000000000000000000000000000 DUP2 MSTORE PUSH1 0x4 ADD PUSH2 0x1203 SWAP1 PUSH2 0x2589 JUMP JUMPDEST PUSH1 0x40 MLOAD DUP1 SWAP2 SUB SWAP1 REVERT JUMPDEST PUSH1 0x2 PUSH1 0x0 DUP5 DUP2 MSTORE PUSH1 0x20 ADD SWAP1 DUP2 MSTORE PUSH1 0x20 ADD PUSH1 0x0 KECCAK256 PUSH1 0x1 ADD PUSH1 0x40 MLOAD DUP1 PUSH1 0x40 ADD PUSH1 0x40 MSTORE DUP1 DUP5 DUP2 MSTORE PUSH1 0x20 ADD DUP4 PUSH1 0xFF AND DUP2 MSTORE POP SWAP1 DUP1 PUSH1 0x1 DUP2 SLOAD ADD DUP1 DUP3 SSTORE DUP1 SWAP2 POP POP PUSH1 0x1 SWAP1 SUB SWAP1 PUSH1 0x0 MSTORE PUSH1 0x20 PUSH1 0x0 KECCAK256 SWAP1 PUSH1 0x2 MUL ADD PUSH1 0x0 SWAP1 SWAP2 SWAP1 SWAP2 SWAP1 SWAP2 POP PUSH1 0x0 DUP3 ADD MLOAD DUP2 PUSH1 0x0 ADD SWAP1 DUP1 MLOAD SWAP1 PUSH1 0x20 ADD SWAP1 PUSH2 0x127F SWAP3 SWAP2 SWAP1 PUSH2 0x13C7 JUMP JUMPDEST POP PUSH1 0x20 DUP3 ADD MLOAD DUP2 PUSH1 0x1 ADD PUSH1 0x0 PUSH2 0x100 EXP DUP2 SLOAD DUP2 PUSH1 0xFF MUL NOT AND SWAP1 DUP4 PUSH1 0xFF AND MUL OR SWAP1 SSTORE POP POP POP PUSH1 0x1 DUP2 PUSH1 0xFF AND SUB PUSH2 0x130A JUMPI PUSH1 0x2 PUSH1 0x0 DUP5 DUP2 MSTORE PUSH1 0x20 ADD SWAP1 DUP2 MSTORE PUSH1 0x20 ADD PUSH1 0x0 KECCAK256 PUSH1 0x0 ADD PUSH1 0x0 SWAP1 SLOAD SWAP1 PUSH2 0x100 EXP SWAP1 DIV PUSH4 0xFFFFFFFF AND PUSH1 0x2 PUSH1 0x0 DUP6 DUP2 MSTORE PUSH1 0x20 ADD SWAP1 DUP2 MSTORE PUSH1 0x20 ADD PUSH1 0x0 KECCAK256 PUSH1 0x2 ADD PUSH1 0x0 PUSH2 0x100 EXP DUP2 SLOAD DUP2 PUSH4 0xFFFFFFFF MUL NOT AND SWAP1 DUP4 PUSH4 0xFFFFFFFF AND MUL OR SWAP1 SSTORE POP JUMPDEST PUSH1 0x3 DUP2 PUSH1 0xFF AND SUB PUSH2 0x1371 JUMPI PUSH1 0x2 PUSH1 0x0 DUP5 DUP2 MSTORE PUSH1 0x20 ADD SWAP1 DUP2 MSTORE PUSH1 0x20 ADD PUSH1 0x0 KECCAK256 PUSH1 0x0 ADD PUSH1 0x4 SWAP1 SLOAD SWAP1 PUSH2 0x100 EXP SWAP1 DIV PUSH4 0xFFFFFFFF AND PUSH1 0x2 PUSH1 0x0 DUP6 DUP2 MSTORE PUSH1 0x20 ADD SWAP1 DUP2 MSTORE PUSH1 0x20 ADD PUSH1 0x0 KECCAK256 PUSH1 0x2 ADD PUSH1 0x0 PUSH2 0x100 EXP DUP2 SLOAD DUP2 PUSH4 0xFFFFFFFF MUL NOT AND SWAP1 DUP4 PUSH4 0xFFFFFFFF AND MUL OR SWAP1 SSTORE POP JUMPDEST POP POP POP JUMP JUMPDEST PUSH2 0x1380 DUP3 DUP3 PUSH2 0xA3C JUMP JUMPDEST PUSH2 0x13C3 JUMPI DUP1 DUP3 PUSH1 0x40 MLOAD PUSH32 0xE2517D3F00000000000000000000000000000000000000000000000000000000 DUP2 MSTORE PUSH1 0x4 ADD PUSH2 0x13BA SWAP3 SWAP2 SWAP1 PUSH2 0x25A9 JUMP JUMPDEST PUSH1 0x40 MLOAD DUP1 SWAP2 SUB SWAP1 REVERT JUMPDEST POP POP JUMP JUMPDEST DUP3 DUP1 SLOAD DUP3 DUP3 SSTORE SWAP1 PUSH1 0x0 MSTORE PUSH1 0x20 PUSH1 0x0 KECCAK256 SWAP1 PUSH1 0x7 ADD PUSH1 0x8 SWAP1 DIV DUP2 ADD SWAP3 DUP3 ISZERO PUSH2 0x1466 JUMPI SWAP2 PUSH1 0x20 MUL DUP3 ADD PUSH1 0x0 JUMPDEST DUP4 DUP3 GT ISZERO PUSH2 0x1434 JUMPI DUP4 MLOAD DUP4 DUP3 PUSH2 0x100 EXP DUP2 SLOAD DUP2 PUSH4 0xFFFFFFFF MUL NOT AND SWAP1 DUP4 PUSH4 0xFFFFFFFF AND MUL OR SWAP1 SSTORE POP SWAP3 PUSH1 0x20 ADD SWAP3 PUSH1 0x4 ADD PUSH1 0x20 DUP2 PUSH1 0x3 ADD DIV SWAP3 DUP4 ADD SWAP3 PUSH1 0x1 SUB MUL PUSH2 0x13F0 JUMP JUMPDEST DUP1 ISZERO PUSH2 0x1464 JUMPI DUP3 DUP2 PUSH2 0x100 EXP DUP2 SLOAD SWAP1 PUSH4 0xFFFFFFFF MUL NOT AND SWAP1 SSTORE PUSH1 0x4 ADD PUSH1 0x20 DUP2 PUSH1 0x3 ADD DIV SWAP3 DUP4 ADD SWAP3 PUSH1 0x1 SUB MUL PUSH2 0x1434 JUMP JUMPDEST POP JUMPDEST POP SWAP1 POP PUSH2 0x1473 SWAP2 SWAP1 PUSH2 0x1477 JUMP JUMPDEST POP SWAP1 JUMP JUMPDEST JUMPDEST DUP1 DUP3 GT ISZERO PUSH2 0x1490 JUMPI PUSH1 0x0 DUP2 PUSH1 0x0 SWAP1 SSTORE POP PUSH1 0x1 ADD PUSH2 0x1478 JUMP JUMPDEST POP SWAP1 JUMP JUMPDEST PUSH1 0x0 PUSH1 0x40 MLOAD SWAP1 POP SWAP1 JUMP JUMPDEST PUSH1 0x0 DUP1 REVERT JUMPDEST PUSH1 0x0 DUP1 REVERT JUMPDEST PUSH1 0x0 PUSH20 0xFFFFFFFFFFFFFFFFFFFFFFFFFFFFFFFFFFFFFFFF DUP3 AND SWAP1 POP SWAP2 SWAP1 POP JUMP JUMPDEST PUSH1 0x0 PUSH2 0x14D3 DUP3 PUSH2 0x14A8 JUMP JUMPDEST SWAP1 POP SWAP2 SWAP1 POP JUMP JUMPDEST PUSH2 0x14E3 DUP2 PUSH2 0x14C8 JUMP JUMPDEST DUP2 EQ PUSH2 0x14EE JUMPI PUSH1 0x0 DUP1 REVERT JUMPDEST POP JUMP JUMPDEST PUSH1 0x0 DUP2 CALLDATALOAD SWAP1 POP PUSH2 0x1500 DUP2 PUSH2 0x14DA JUMP JUMPDEST SWAP3 SWAP2 POP POP JUMP JUMPDEST PUSH1 0x0 DUP2 SWAP1 POP SWAP2 SWAP1 POP JUMP JUMPDEST PUSH2 0x1519 DUP2 PUSH2 0x1506 JUMP JUMPDEST DUP2 EQ PUSH2 0x1524 JUMPI PUSH1 0x0 DUP1 REVERT JUMPDEST POP JUMP JUMPDEST PUSH1 0x0 DUP2 CALLDATALOAD SWAP1 POP PUSH2 0x1536 DUP2 PUSH2 0x1510 JUMP JUMPDEST SWAP3 SWAP2 POP POP JUMP JUMPDEST PUSH1 0x0 DUP1 PUSH1 0x40 DUP4 DUP6 SUB SLT ISZERO PUSH2 0x1553 JUMPI PUSH2 0x1552 PUSH2 0x149E JUMP JUMPDEST JUMPDEST PUSH1 0x0 PUSH2 0x1561 DUP6 DUP3 DUP7 ADD PUSH2 0x14F1 JUMP JUMPDEST SWAP3 POP POP PUSH1 0x20 PUSH2 0x1572 DUP6 DUP3 DUP7 ADD PUSH2 0x1527 JUMP JUMPDEST SWAP2 POP POP SWAP3 POP SWAP3 SWAP1 POP JUMP JUMPDEST PUSH1 0x0 PUSH32 0xFFFFFFFF00000000000000000000000000000000000000000000000000000000 DUP3 AND SWAP1 POP SWAP2 SWAP1 POP JUMP JUMPDEST PUSH2 0x15B1 DUP2 PUSH2 0x157C JUMP JUMPDEST DUP2 EQ PUSH2 0x15BC JUMPI PUSH1 0x0 DUP1 REVERT JUMPDEST POP JUMP JUMPDEST PUSH1 0x0 DUP2 CALLDATALOAD SWAP1 POP PUSH2 0x15CE DUP2 PUSH2 0x15A8 JUMP JUMPDEST SWAP3 SWAP2 POP POP JUMP JUMPDEST PUSH1 0x0 PUSH1 0x20 DUP3 DUP5 SUB SLT ISZERO PUSH2 0x15EA JUMPI PUSH2 0x15E9 PUSH2 0x149E JUMP JUMPDEST JUMPDEST PUSH1 0x0 PUSH2 0x15F8 DUP5 DUP3 DUP6 ADD PUSH2 0x15BF JUMP JUMPDEST SWAP2 POP POP SWAP3 SWAP2 POP POP JUMP JUMPDEST PUSH1 0x0 DUP2 ISZERO ISZERO SWAP1 POP SWAP2 SWAP1 POP JUMP JUMPDEST PUSH2 0x1616 DUP2 PUSH2 0x1601 JUMP JUMPDEST DUP3 MSTORE POP POP JUMP JUMPDEST PUSH1 0x0 PUSH1 0x20 DUP3 ADD SWAP1 POP PUSH2 0x1631 PUSH1 0x0 DUP4 ADD DUP5 PUSH2 0x160D JUMP JUMPDEST SWAP3 SWAP2 POP POP JUMP JUMPDEST PUSH1 0x0 PUSH4 0xFFFFFFFF DUP3 AND SWAP1 POP SWAP2 SWAP1 POP JUMP JUMPDEST PUSH2 0x1650 DUP2 PUSH2 0x1637 JUMP JUMPDEST DUP2 EQ PUSH2 0x165B JUMPI PUSH1 0x0 DUP1 REVERT JUMPDEST POP JUMP JUMPDEST PUSH1 0x0 DUP2 CALLDATALOAD SWAP1 POP PUSH2 0x166D DUP2 PUSH2 0x1647 JUMP JUMPDEST SWAP3 SWAP2 POP POP JUMP JUMPDEST PUSH1 0x0 DUP1 PUSH1 0x40 DUP4 DUP6 SUB SLT ISZERO PUSH2 0x168A JUMPI PUSH2 0x1689 PUSH2 0x149E JUMP JUMPDEST JUMPDEST PUSH1 0x0 PUSH2 0x1698 DUP6 DUP3 DUP7 ADD PUSH2 0x165E JUMP JUMPDEST SWAP3 POP POP PUSH1 0x20 PUSH2 0x16A9 DUP6 DUP3 DUP7 ADD PUSH2 0x165E JUMP JUMPDEST SWAP2 POP POP SWAP3 POP SWAP3 SWAP1 POP JUMP JUMPDEST PUSH1 0x0 DUP2 SWAP1 POP SWAP2 SWAP1 POP JUMP JUMPDEST PUSH2 0x16C6 DUP2 PUSH2 0x16B3 JUMP JUMPDEST DUP3 MSTORE POP POP JUMP JUMPDEST PUSH1 0x0 PUSH1 0x20 DUP3 ADD SWAP1 POP PUSH2 0x16E1 PUSH1 0x0 DUP4 ADD DUP5 PUSH2 0x16BD JUMP JUMPDEST SWAP3 SWAP2 POP POP JUMP JUMPDEST PUSH1 0x0 DUP2 MLOAD SWAP1 POP SWAP2 SWAP1 POP JUMP JUMPDEST PUSH1 0x0 DUP3 DUP3 MSTORE PUSH1 0x20 DUP3 ADD SWAP1 POP SWAP3 SWAP2 POP POP JUMP JUMPDEST PUSH1 0x0 JUMPDEST DUP4 DUP2 LT ISZERO PUSH2 0x1721 JUMPI DUP1 DUP3 ADD MLOAD DUP2 DUP5 ADD MSTORE PUSH1 0x20 DUP2 ADD SWAP1 POP PUSH2 0x1706 JUMP JUMPDEST PUSH1 0x0 DUP5 DUP5 ADD MSTORE POP POP POP POP JUMP JUMPDEST PUSH1 0x0 PUSH1 0x1F NOT PUSH1 0x1F DUP4 ADD AND SWAP1 POP SWAP2 SWAP1 POP JUMP JUMPDEST PUSH1 0x0 PUSH2 0x1749 DUP3 PUSH2 0x16E7 JUMP JUMPDEST PUSH2 0x1753 DUP2 DUP6 PUSH2 0x16F2 JUMP JUMPDEST SWAP4 POP PUSH2 0x1763 DUP2 DUP6 PUSH1 0x20 DUP7 ADD PUSH2 0x1703 JUMP JUMPDEST PUSH2 0x176C DUP2 PUSH2 0x172D JUMP JUMPDEST DUP5 ADD SWAP2 POP POP SWAP3 SWAP2 POP POP JUMP JUMPDEST PUSH2 0x1780 DUP2 PUSH2 0x1506 JUMP JUMPDEST DUP3 MSTORE POP POP JUMP JUMPDEST PUSH1 0x0 PUSH1 0xA0 DUP3 ADD SWAP1 POP DUP2 DUP2 SUB PUSH1 0x0 DUP4 ADD MSTORE PUSH2 0x17A0 DUP2 DUP9 PUSH2 0x173E JUMP JUMPDEST SWAP1 POP PUSH2 0x17AF PUSH1 0x20 DUP4 ADD DUP8 PUSH2 0x1777 JUMP JUMPDEST PUSH2 0x17BC PUSH1 0x40 DUP4 ADD DUP7 PUSH2 0x1777 JUMP JUMPDEST PUSH2 0x17C9 PUSH1 0x60 DUP4 ADD DUP6 PUSH2 0x1777 JUMP JUMPDEST PUSH2 0x17D6 PUSH1 0x80 DUP4 ADD DUP5 PUSH2 0x1777 JUMP JUMPDEST SWAP7 SWAP6 POP POP POP POP POP POP JUMP JUMPDEST PUSH2 0x17E9 DUP2 PUSH2 0x16B3 JUMP JUMPDEST DUP2 EQ PUSH2 0x17F4 JUMPI PUSH1 0x0 DUP1 REVERT JUMPDEST POP JUMP JUMPDEST PUSH1 0x0 DUP2 CALLDATALOAD SWAP1 POP PUSH2 0x1806 DUP2 PUSH2 0x17E0 JUMP JUMPDEST SWAP3 SWAP2 POP POP JUMP JUMPDEST PUSH1 0x0 PUSH1 0x20 DUP3 DUP5 SUB SLT ISZERO PUSH2 0x1822 JUMPI PUSH2 0x1821 PUSH2 0x149E JUMP JUMPDEST JUMPDEST PUSH1 0x0 PUSH2 0x1830 DUP5 DUP3 DUP6 ADD PUSH2 0x17F7 JUMP JUMPDEST SWAP2 POP POP SWAP3 SWAP2 POP POP JUMP JUMPDEST PUSH1 0x0 DUP1 PUSH1 0x40 DUP4 DUP6 SUB SLT ISZERO PUSH2 0x1850 JUMPI PUSH2 0x184F PUSH2 0x149E JUMP JUMPDEST JUMPDEST PUSH1 0x0 PUSH2 0x185E DUP6 DUP3 DUP7 ADD PUSH2 0x17F7 JUMP JUMPDEST SWAP3 POP POP PUSH1 0x20 PUSH2 0x186F DUP6 DUP3 DUP7 ADD PUSH2 0x14F1 JUMP JUMPDEST SWAP2 POP POP SWAP3 POP SWAP3 SWAP1 POP JUMP JUMPDEST PUSH1 0x0 PUSH1 0x20 DUP3 DUP5 SUB SLT ISZERO PUSH2 0x188F JUMPI PUSH2 0x188E PUSH2 0x149E JUMP JUMPDEST JUMPDEST PUSH1 0x0 PUSH2 0x189D DUP5 DUP3 DUP6 ADD PUSH2 0x1527 JUMP JUMPDEST SWAP2 POP POP SWAP3 SWAP2 POP POP JUMP JUMPDEST PUSH2 0x18AF DUP2 PUSH2 0x1637 JUMP JUMPDEST DUP3 MSTORE POP POP JUMP JUMPDEST PUSH1 0x0 PUSH1 0x60 DUP3 ADD SWAP1 POP PUSH2 0x18CA PUSH1 0x0 DUP4 ADD DUP7 PUSH2 0x18A6 JUMP JUMPDEST PUSH2 0x18D7 PUSH1 0x20 DUP4 ADD DUP6 PUSH2 0x18A6 JUMP JUMPDEST PUSH2 0x18E4 PUSH1 0x40 DUP4 ADD DUP5 PUSH2 0x18A6 JUMP JUMPDEST SWAP5 SWAP4 POP POP POP POP JUMP JUMPDEST PUSH1 0x0 PUSH1 0x20 DUP3 ADD SWAP1 POP PUSH2 0x1901 PUSH1 0x0 DUP4 ADD DUP5 PUSH2 0x1777 JUMP JUMPDEST SWAP3 SWAP2 POP POP JUMP JUMPDEST PUSH1 0x0 DUP1 REVERT JUMPDEST PUSH1 0x0 DUP1 REVERT JUMPDEST PUSH32 0x4E487B7100000000000000000000000000000000000000000000000000000000 PUSH1 0x0 MSTORE PUSH1 0x41 PUSH1 0x4 MSTORE PUSH1 0x24 PUSH1 0x0 REVERT JUMPDEST PUSH2 0x1949 DUP3 PUSH2 0x172D JUMP JUMPDEST DUP2 ADD DUP2 DUP2 LT PUSH8 0xFFFFFFFFFFFFFFFF DUP3 GT OR ISZERO PUSH2 0x1968 JUMPI PUSH2 0x1967 PUSH2 0x1911 JUMP JUMPDEST JUMPDEST DUP1 PUSH1 0x40 MSTORE POP POP POP JUMP JUMPDEST PUSH1 0x0 PUSH2 0x197B PUSH2 0x1494 JUMP JUMPDEST SWAP1 POP PUSH2 0x1987 DUP3 DUP3 PUSH2 0x1940 JUMP JUMPDEST SWAP2 SWAP1 POP JUMP JUMPDEST PUSH1 0x0 PUSH8 0xFFFFFFFFFFFFFFFF DUP3 GT ISZERO PUSH2 0x19A7 JUMPI PUSH2 0x19A6 PUSH2 0x1911 JUMP JUMPDEST JUMPDEST PUSH2 0x19B0 DUP3 PUSH2 0x172D JUMP JUMPDEST SWAP1 POP PUSH1 0x20 DUP2 ADD SWAP1 POP SWAP2 SWAP1 POP JUMP JUMPDEST DUP3 DUP2 DUP4 CALLDATACOPY PUSH1 0x0 DUP4 DUP4 ADD MSTORE POP POP POP JUMP JUMPDEST PUSH1 0x0 PUSH2 0x19DF PUSH2 0x19DA DUP5 PUSH2 0x198C JUMP JUMPDEST PUSH2 0x1971 JUMP JUMPDEST SWAP1 POP DUP3 DUP2 MSTORE PUSH1 0x20 DUP2 ADD DUP5 DUP5 DUP5 ADD GT ISZERO PUSH2 0x19FB JUMPI PUSH2 0x19FA PUSH2 0x190C JUMP JUMPDEST JUMPDEST PUSH2 0x1A06 DUP5 DUP3 DUP6 PUSH2 0x19BD JUMP JUMPDEST POP SWAP4 SWAP3 POP POP POP JUMP JUMPDEST PUSH1 0x0 DUP3 PUSH1 0x1F DUP4 ADD SLT PUSH2 0x1A23 JUMPI PUSH2 0x1A22 PUSH2 0x1907 JUMP JUMPDEST JUMPDEST DUP2 CALLDATALOAD PUSH2 0x1A33 DUP5 DUP3 PUSH1 0x20 DUP7 ADD PUSH2 0x19CC JUMP JUMPDEST SWAP2 POP POP SWAP3 SWAP2 POP POP JUMP JUMPDEST PUSH1 0x0 DUP1 PUSH1 0x0 DUP1 PUSH1 0x0 PUSH1 0xA0 DUP7 DUP9 SUB SLT ISZERO PUSH2 0x1A58 JUMPI PUSH2 0x1A57 PUSH2 0x149E JUMP JUMPDEST JUMPDEST PUSH1 0x0 DUP7 ADD CALLDATALOAD PUSH8 0xFFFFFFFFFFFFFFFF DUP2 GT ISZERO PUSH2 0x1A76 JUMPI PUSH2 0x1A75 PUSH2 0x14A3 JUMP JUMPDEST JUMPDEST PUSH2 0x1A82 DUP9 DUP3 DUP10 ADD PUSH2 0x1A0E JUMP JUMPDEST SWAP6 POP POP PUSH1 0x20 PUSH2 0x1A93 DUP9 DUP3 DUP10 ADD PUSH2 0x1527 JUMP JUMPDEST SWAP5 POP POP PUSH1 0x40 PUSH2 0x1AA4 DUP9 DUP3 DUP10 ADD PUSH2 0x1527 JUMP JUMPDEST SWAP4 POP POP PUSH1 0x60 PUSH2 0x1AB5 DUP9 DUP3 DUP10 ADD PUSH2 0x1527 JUMP JUMPDEST SWAP3 POP POP PUSH1 0x80 PUSH2 0x1AC6 DUP9 DUP3 DUP10 ADD PUSH2 0x1527 JUMP JUMPDEST SWAP2 POP POP SWAP3 SWAP6 POP SWAP3 SWAP6 SWAP1 SWAP4 POP JUMP JUMPDEST PUSH1 0x0 PUSH8 0xFFFFFFFFFFFFFFFF DUP3 GT ISZERO PUSH2 0x1AEE JUMPI PUSH2 0x1AED PUSH2 0x1911 JUMP JUMPDEST JUMPDEST PUSH1 0x20 DUP3 MUL SWAP1 POP PUSH1 0x20 DUP2 ADD SWAP1 POP SWAP2 SWAP1 POP JUMP JUMPDEST PUSH1 0x0 DUP1 REVERT JUMPDEST PUSH1 0x0 PUSH2 0x1B17 PUSH2 0x1B12 DUP5 PUSH2 0x1AD3 JUMP JUMPDEST PUSH2 0x1971 JUMP JUMPDEST SWAP1 POP DUP1 DUP4 DUP3 MSTORE PUSH1 0x20 DUP3 ADD SWAP1 POP PUSH1 0x20 DUP5 MUL DUP4 ADD DUP6 DUP2 GT ISZERO PUSH2 0x1B3A JUMPI PUSH2 0x1B39 PUSH2 0x1AFF JUMP JUMPDEST JUMPDEST DUP4 JUMPDEST DUP2 DUP2 LT ISZERO PUSH2 0x1B63 JUMPI DUP1 PUSH2 0x1B4F DUP9 DUP3 PUSH2 0x165E JUMP JUMPDEST DUP5 MSTORE PUSH1 0x20 DUP5 ADD SWAP4 POP POP PUSH1 0x20 DUP2 ADD SWAP1 POP PUSH2 0x1B3C JUMP JUMPDEST POP POP POP SWAP4 SWAP3 POP POP POP JUMP JUMPDEST PUSH1 0x0 DUP3 PUSH1 0x1F DUP4 ADD SLT PUSH2 0x1B82 JUMPI PUSH2 0x1B81 PUSH2 0x1907 JUMP JUMPDEST JUMPDEST DUP2 CALLDATALOAD PUSH2 0x1B92 DUP5 DUP3 PUSH1 0x20 DUP7 ADD PUSH2 0x1B04 JUMP JUMPDEST SWAP2 POP POP SWAP3 SWAP2 POP POP JUMP JUMPDEST PUSH1 0x0 PUSH1 0xFF DUP3 AND SWAP1 POP SWAP2 SWAP1 POP JUMP JUMPDEST PUSH2 0x1BB1 DUP2 PUSH2 0x1B9B JUMP JUMPDEST DUP2 EQ PUSH2 0x1BBC JUMPI PUSH1 0x0 DUP1 REVERT JUMPDEST POP JUMP JUMPDEST PUSH1 0x0 DUP2 CALLDATALOAD SWAP1 POP PUSH2 0x1BCE DUP2 PUSH2 0x1BA8 JUMP JUMPDEST SWAP3 SWAP2 POP POP JUMP JUMPDEST PUSH1 0x0 DUP1 PUSH1 0x0 PUSH1 0x60 DUP5 DUP7 SUB SLT ISZERO PUSH2 0x1BED JUMPI PUSH2 0x1BEC PUSH2 0x149E JUMP JUMPDEST JUMPDEST PUSH1 0x0 PUSH2 0x1BFB DUP7 DUP3 DUP8 ADD PUSH2 0x1527 JUMP JUMPDEST SWAP4 POP POP PUSH1 0x20 DUP5 ADD CALLDATALOAD PUSH8 0xFFFFFFFFFFFFFFFF DUP2 GT ISZERO PUSH2 0x1C1C JUMPI PUSH2 0x1C1B PUSH2 0x14A3 JUMP JUMPDEST JUMPDEST PUSH2 0x1C28 DUP7 DUP3 DUP8 ADD PUSH2 0x1B6D JUMP JUMPDEST SWAP3 POP POP PUSH1 0x40 PUSH2 0x1C39 DUP7 DUP3 DUP8 ADD PUSH2 0x1BBF JUMP JUMPDEST SWAP2 POP POP SWAP3 POP SWAP3 POP SWAP3 JUMP JUMPDEST PUSH1 0x0 PUSH1 0x20 DUP3 DUP5 SUB SLT ISZERO PUSH2 0x1C59 JUMPI PUSH2 0x1C58 PUSH2 0x149E JUMP JUMPDEST JUMPDEST PUSH1 0x0 PUSH2 0x1C67 DUP5 DUP3 DUP6 ADD PUSH2 0x14F1 JUMP JUMPDEST SWAP2 POP POP SWAP3 SWAP2 POP POP JUMP JUMPDEST PUSH2 0x1C79 DUP2 PUSH2 0x14C8 JUMP JUMPDEST DUP3 MSTORE POP POP JUMP JUMPDEST PUSH1 0x0 PUSH1 0x20 DUP3 ADD SWAP1 POP PUSH2 0x1C94 PUSH1 0x0 DUP4 ADD DUP5 PUSH2 0x1C70 JUMP JUMPDEST SWAP3 SWAP2 POP POP JUMP JUMPDEST PUSH1 0x0 PUSH1 0x20 DUP3 DUP5 SUB SLT ISZERO PUSH2 0x1CB0 JUMPI PUSH2 0x1CAF PUSH2 0x149E JUMP JUMPDEST JUMPDEST PUSH1 0x0 PUSH2 0x1CBE DUP5 DUP3 DUP6 ADD PUSH2 0x165E JUMP JUMPDEST SWAP2 POP POP SWAP3 SWAP2 POP POP JUMP JUMPDEST PUSH32 0x546F75726E616D656E742068617320616C647265616479207374617274656400 PUSH1 0x0 DUP3 ADD MSTORE POP JUMP JUMPDEST PUSH1 0x0 PUSH2 0x1CFD PUSH1 0x1F DUP4 PUSH2 0x16F2 JUMP JUMPDEST SWAP2 POP PUSH2 0x1D08 DUP3 PUSH2 0x1CC7 JUMP JUMPDEST PUSH1 0x20 DUP3 ADD SWAP1 POP SWAP2 SWAP1 POP JUMP JUMPDEST PUSH1 0x0 PUSH1 0x20 DUP3 ADD SWAP1 POP DUP2 DUP2 SUB PUSH1 0x0 DUP4 ADD MSTORE PUSH2 0x1D2C DUP2 PUSH2 0x1CF0 JUMP JUMPDEST SWAP1 POP SWAP2 SWAP1 POP JUMP JUMPDEST PUSH32 0x54686973206164647265737320697320616C726561647920706C617965720000 PUSH1 0x0 DUP3 ADD MSTORE POP JUMP JUMPDEST PUSH1 0x0 PUSH2 0x1D69 PUSH1 0x1E DUP4 PUSH2 0x16F2 JUMP JUMPDEST SWAP2 POP PUSH2 0x1D74 DUP3 PUSH2 0x1D33 JUMP JUMPDEST PUSH1 0x20 DUP3 ADD SWAP1 POP SWAP2 SWAP1 POP JUMP JUMPDEST PUSH1 0x0 PUSH1 0x20 DUP3 ADD SWAP1 POP DUP2 DUP2 SUB PUSH1 0x0 DUP4 ADD MSTORE PUSH2 0x1D98 DUP2 PUSH2 0x1D5C JUMP JUMPDEST SWAP1 POP SWAP2 SWAP1 POP JUMP JUMPDEST PUSH32 0x4E487B7100000000000000000000000000000000000000000000000000000000 PUSH1 0x0 MSTORE PUSH1 0x11 PUSH1 0x4 MSTORE PUSH1 0x24 PUSH1 0x0 REVERT JUMPDEST PUSH1 0x0 PUSH2 0x1DD9 DUP3 PUSH2 0x1637 JUMP JUMPDEST SWAP2 POP PUSH4 0xFFFFFFFF DUP3 SUB PUSH2 0x1DEF JUMPI PUSH2 0x1DEE PUSH2 0x1D9F JUMP JUMPDEST JUMPDEST PUSH1 0x1 DUP3 ADD SWAP1 POP SWAP2 SWAP1 POP JUMP JUMPDEST PUSH1 0x0 PUSH2 0x1E05 DUP3 PUSH2 0x1637 JUMP JUMPDEST SWAP2 POP PUSH2 0x1E10 DUP4 PUSH2 0x1637 JUMP JUMPDEST SWAP3 POP DUP3 DUP3 MUL PUSH2 0x1E1E DUP2 PUSH2 0x1637 JUMP JUMPDEST SWAP2 POP DUP1 DUP3 EQ PUSH2 0x1E30 JUMPI PUSH2 0x1E2F PUSH2 0x1D9F JUMP JUMPDEST JUMPDEST POP SWAP3 SWAP2 POP POP JUMP JUMPDEST PUSH1 0x0 PUSH2 0x1E42 DUP3 PUSH2 0x1506 JUMP JUMPDEST SWAP2 POP PUSH2 0x1E4D DUP4 PUSH2 0x1506 JUMP JUMPDEST SWAP3 POP DUP3 DUP3 ADD SWAP1 POP DUP1 DUP3 GT ISZERO PUSH2 0x1E65 JUMPI PUSH2 0x1E64 PUSH2 0x1D9F JUMP JUMPDEST JUMPDEST SWAP3 SWAP2 POP POP JUMP JUMPDEST PUSH32 0x546F75726E616D656E742068617320616C64726561647920656E646564000000 PUSH1 0x0 DUP3 ADD MSTORE POP JUMP JUMPDEST PUSH1 0x0 PUSH2 0x1EA1 PUSH1 0x1D DUP4 PUSH2 0x16F2 JUMP JUMPDEST SWAP2 POP PUSH2 0x1EAC DUP3 PUSH2 0x1E6B JUMP JUMPDEST PUSH1 0x20 DUP3 ADD SWAP1 POP SWAP2 SWAP1 POP JUMP JUMPDEST PUSH1 0x0 PUSH1 0x20 DUP3 ADD SWAP1 POP DUP2 DUP2 SUB PUSH1 0x0 DUP4 ADD MSTORE PUSH2 0x1ED0 DUP2 PUSH2 0x1E94 JUMP JUMPDEST SWAP1 POP SWAP2 SWAP1 POP JUMP JUMPDEST PUSH32 0x4E487B7100000000000000000000000000000000000000000000000000000000 PUSH1 0x0 MSTORE PUSH1 0x22 PUSH1 0x4 MSTORE PUSH1 0x24 PUSH1 0x0 REVERT JUMPDEST PUSH1 0x0 PUSH1 0x2 DUP3 DIV SWAP1 POP PUSH1 0x1 DUP3 AND DUP1 PUSH2 0x1F1E JUMPI PUSH1 0x7F DUP3 AND SWAP2 POP JUMPDEST PUSH1 0x20 DUP3 LT DUP2 SUB PUSH2 0x1F31 JUMPI PUSH2 0x1F30 PUSH2 0x1ED7 JUMP JUMPDEST JUMPDEST POP SWAP2 SWAP1 POP JUMP JUMPDEST PUSH32 0x546F75726E616D656E742068617320746F207374617274206174207468652066 PUSH1 0x0 DUP3 ADD MSTORE PUSH32 0x7574757265000000000000000000000000000000000000000000000000000000 PUSH1 0x20 DUP3 ADD MSTORE POP JUMP JUMPDEST PUSH1 0x0 PUSH2 0x1F93 PUSH1 0x25 DUP4 PUSH2 0x16F2 JUMP JUMPDEST SWAP2 POP PUSH2 0x1F9E DUP3 PUSH2 0x1F37 JUMP JUMPDEST PUSH1 0x40 DUP3 ADD SWAP1 POP SWAP2 SWAP1 POP JUMP JUMPDEST PUSH1 0x0 PUSH1 0x20 DUP3 ADD SWAP1 POP DUP2 DUP2 SUB PUSH1 0x0 DUP4 ADD MSTORE PUSH2 0x1FC2 DUP2 PUSH2 0x1F86 JUMP JUMPDEST SWAP1 POP SWAP2 SWAP1 POP JUMP JUMPDEST PUSH32 0x546F75726E616D656E742068617320746F20656E642061667465722073746172 PUSH1 0x0 DUP3 ADD MSTORE PUSH32 0x7400000000000000000000000000000000000000000000000000000000000000 PUSH1 0x20 DUP3 ADD MSTORE POP JUMP JUMPDEST PUSH1 0x0 PUSH2 0x2025 PUSH1 0x21 DUP4 PUSH2 0x16F2 JUMP JUMPDEST SWAP2 POP PUSH2 0x2030 DUP3 PUSH2 0x1FC9 JUMP JUMPDEST PUSH1 0x40 DUP3 ADD SWAP1 POP SWAP2 SWAP1 POP JUMP JUMPDEST PUSH1 0x0 PUSH1 0x20 DUP3 ADD SWAP1 POP DUP2 DUP2 SUB PUSH1 0x0 DUP4 ADD MSTORE PUSH2 0x2054 DUP2 PUSH2 0x2018 JUMP JUMPDEST SWAP1 POP SWAP2 SWAP1 POP JUMP JUMPDEST PUSH1 0x0 DUP2 SWAP1 POP DUP2 PUSH1 0x0 MSTORE PUSH1 0x20 PUSH1 0x0 KECCAK256 SWAP1 POP SWAP2 SWAP1 POP JUMP JUMPDEST PUSH1 0x0 PUSH1 0x20 PUSH1 0x1F DUP4 ADD DIV SWAP1 POP SWAP2 SWAP1 POP JUMP JUMPDEST PUSH1 0x0 DUP3 DUP3 SHL SWAP1 POP SWAP3 SWAP2 POP POP JUMP JUMPDEST PUSH1 0x0 PUSH1 0x8 DUP4 MUL PUSH2 0x20BD PUSH32 0xFFFFFFFFFFFFFFFFFFFFFFFFFFFFFFFFFFFFFFFFFFFFFFFFFFFFFFFFFFFFFFFF DUP3 PUSH2 0x2080 JUMP JUMPDEST PUSH2 0x20C7 DUP7 DUP4 PUSH2 0x2080 JUMP JUMPDEST SWAP6 POP DUP1 NOT DUP5 AND SWAP4 POP DUP1 DUP7 AND DUP5 OR SWAP3 POP POP POP SWAP4 SWAP3 POP POP POP JUMP JUMPDEST PUSH1 0x0 DUP2 SWAP1 POP SWAP2 SWAP1 POP JUMP JUMPDEST PUSH1 0x0 PUSH2 0x2104 PUSH2 0x20FF PUSH2 0x20FA DUP5 PUSH2 0x1506 JUMP JUMPDEST PUSH2 0x20DF JUMP JUMPDEST PUSH2 0x1506 JUMP JUMPDEST SWAP1 POP SWAP2 SWAP1 POP JUMP JUMPDEST PUSH1 0x0 DUP2 SWAP1 POP SWAP2 SWAP1 POP JUMP JUMPDEST PUSH2 0x211E DUP4 PUSH2 0x20E9 JUMP JUMPDEST PUSH2 0x2132 PUSH2 0x212A DUP3 PUSH2 0x210B JUMP JUMPDEST DUP5 DUP5 SLOAD PUSH2 0x208D JUMP JUMPDEST DUP3 SSTORE POP POP POP POP JUMP JUMPDEST PUSH1 0x0 SWAP1 JUMP JUMPDEST PUSH2 0x2147 PUSH2 0x213A JUMP JUMPDEST PUSH2 0x2152 DUP2 DUP5 DUP5 PUSH2 0x2115 JUMP JUMPDEST POP POP POP JUMP JUMPDEST JUMPDEST DUP2 DUP2 LT ISZERO PUSH2 0x2176 JUMPI PUSH2 0x216B PUSH1 0x0 DUP3 PUSH2 0x213F JUMP JUMPDEST PUSH1 0x1 DUP2 ADD SWAP1 POP PUSH2 0x2158 JUMP JUMPDEST POP POP JUMP JUMPDEST PUSH1 0x1F DUP3 GT ISZERO PUSH2 0x21BB JUMPI PUSH2 0x218C DUP2 PUSH2 0x205B JUMP JUMPDEST PUSH2 0x2195 DUP5 PUSH2 0x2070 JUMP JUMPDEST DUP2 ADD PUSH1 0x20 DUP6 LT ISZERO PUSH2 0x21A4 JUMPI DUP2 SWAP1 POP JUMPDEST PUSH2 0x21B8 PUSH2 0x21B0 DUP6 PUSH2 0x2070 JUMP JUMPDEST DUP4 ADD DUP3 PUSH2 0x2157 JUMP JUMPDEST POP POP JUMPDEST POP POP POP JUMP JUMPDEST PUSH1 0x0 DUP3 DUP3 SHR SWAP1 POP SWAP3 SWAP2 POP POP JUMP JUMPDEST PUSH1 0x0 PUSH2 0x21DE PUSH1 0x0 NOT DUP5 PUSH1 0x8 MUL PUSH2 0x21C0 JUMP JUMPDEST NOT DUP1 DUP4 AND SWAP2 POP POP SWAP3 SWAP2 POP POP JUMP JUMPDEST PUSH1 0x0 PUSH2 0x21F7 DUP4 DUP4 PUSH2 0x21CD JUMP JUMPDEST SWAP2 POP DUP3 PUSH1 0x2 MUL DUP3 OR SWAP1 POP SWAP3 SWAP2 POP POP JUMP JUMPDEST PUSH2 0x2210 DUP3 PUSH2 0x16E7 JUMP JUMPDEST PUSH8 0xFFFFFFFFFFFFFFFF DUP2 GT ISZERO PUSH2 0x2229 JUMPI PUSH2 0x2228 PUSH2 0x1911 JUMP JUMPDEST JUMPDEST PUSH2 0x2233 DUP3 SLOAD PUSH2 0x1F06 JUMP JUMPDEST PUSH2 0x223E DUP3 DUP3 DUP6 PUSH2 0x217A JUMP JUMPDEST PUSH1 0x0 PUSH1 0x20 SWAP1 POP PUSH1 0x1F DUP4 GT PUSH1 0x1 DUP2 EQ PUSH2 0x2271 JUMPI PUSH1 0x0 DUP5 ISZERO PUSH2 0x225F JUMPI DUP3 DUP8 ADD MLOAD SWAP1 POP JUMPDEST PUSH2 0x2269 DUP6 DUP3 PUSH2 0x21EB JUMP JUMPDEST DUP7 SSTORE POP PUSH2 0x22D1 JUMP JUMPDEST PUSH1 0x1F NOT DUP5 AND PUSH2 0x227F DUP7 PUSH2 0x205B JUMP JUMPDEST PUSH1 0x0 JUMPDEST DUP3 DUP2 LT ISZERO PUSH2 0x22A7 JUMPI DUP5 DUP10 ADD MLOAD DUP3 SSTORE PUSH1 0x1 DUP3 ADD SWAP2 POP PUSH1 0x20 DUP6 ADD SWAP5 POP PUSH1 0x20 DUP2 ADD SWAP1 POP PUSH2 0x2282 JUMP JUMPDEST DUP7 DUP4 LT ISZERO PUSH2 0x22C4 JUMPI DUP5 DUP10 ADD MLOAD PUSH2 0x22C0 PUSH1 0x1F DUP10 AND DUP3 PUSH2 0x21CD JUMP JUMPDEST DUP4 SSTORE POP JUMPDEST PUSH1 0x1 PUSH1 0x2 DUP9 MUL ADD DUP9 SSTORE POP POP POP JUMPDEST POP POP POP POP POP POP JUMP JUMPDEST PUSH32 0x546F75726E616D656E7420646964206E6F742073746172740000000000000000 PUSH1 0x0 DUP3 ADD MSTORE POP JUMP JUMPDEST PUSH1 0x0 PUSH2 0x230F PUSH1 0x18 DUP4 PUSH2 0x16F2 JUMP JUMPDEST SWAP2 POP PUSH2 0x231A DUP3 PUSH2 0x22D9 JUMP JUMPDEST PUSH1 0x20 DUP3 ADD SWAP1 POP SWAP2 SWAP1 POP JUMP JUMPDEST PUSH1 0x0 PUSH1 0x20 DUP3 ADD SWAP1 POP DUP2 DUP2 SUB PUSH1 0x0 DUP4 ADD MSTORE PUSH2 0x233E DUP2 PUSH2 0x2302 JUMP JUMPDEST SWAP1 POP SWAP2 SWAP1 POP JUMP JUMPDEST PUSH32 0x546F75726E616D656E7420646964206E6F7420656E6400000000000000000000 PUSH1 0x0 DUP3 ADD MSTORE POP JUMP JUMPDEST PUSH1 0x0 PUSH2 0x237B PUSH1 0x16 DUP4 PUSH2 0x16F2 JUMP JUMPDEST SWAP2 POP PUSH2 0x2386 DUP3 PUSH2 0x2345 JUMP JUMPDEST PUSH1 0x20 DUP3 ADD SWAP1 POP SWAP2 SWAP1 POP JUMP JUMPDEST PUSH1 0x0 PUSH1 0x20 DUP3 ADD SWAP1 POP DUP2 DUP2 SUB PUSH1 0x0 DUP4 ADD MSTORE PUSH2 0x23AA DUP2 PUSH2 0x236E JUMP JUMPDEST SWAP1 POP SWAP2 SWAP1 POP JUMP JUMPDEST PUSH1 0x0 PUSH2 0x23BC DUP3 PUSH2 0x1506 JUMP JUMPDEST SWAP2 POP PUSH32 0xFFFFFFFFFFFFFFFFFFFFFFFFFFFFFFFFFFFFFFFFFFFFFFFFFFFFFFFFFFFFFFFF DUP3 SUB PUSH2 0x23EE JUMPI PUSH2 0x23ED PUSH2 0x1D9F JUMP JUMPDEST JUMPDEST PUSH1 0x1 DUP3 ADD SWAP1 POP SWAP2 SWAP1 POP JUMP JUMPDEST PUSH32 0x506C6179657220706F736974696F6E2063616E206E6F74206265207A65726F00 PUSH1 0x0 DUP3 ADD MSTORE POP JUMP JUMPDEST PUSH1 0x0 PUSH2 0x242F PUSH1 0x1F DUP4 PUSH2 0x16F2 JUMP JUMPDEST SWAP2 POP PUSH2 0x243A DUP3 PUSH2 0x23F9 JUMP JUMPDEST PUSH1 0x20 DUP3 ADD SWAP1 POP SWAP2 SWAP1 POP JUMP JUMPDEST PUSH1 0x0 PUSH1 0x20 DUP3 ADD SWAP1 POP DUP2 DUP2 SUB PUSH1 0x0 DUP4 ADD MSTORE PUSH2 0x245E DUP2 PUSH2 0x2422 JUMP JUMPDEST SWAP1 POP SWAP2 SWAP1 POP JUMP JUMPDEST PUSH32 0x4F7665726C617020706F736974696F6E00000000000000000000000000000000 PUSH1 0x0 DUP3 ADD MSTORE POP JUMP JUMPDEST PUSH1 0x0 PUSH2 0x249B PUSH1 0x10 DUP4 PUSH2 0x16F2 JUMP JUMPDEST SWAP2 POP PUSH2 0x24A6 DUP3 PUSH2 0x2465 JUMP JUMPDEST PUSH1 0x20 DUP3 ADD SWAP1 POP SWAP2 SWAP1 POP JUMP JUMPDEST PUSH1 0x0 PUSH1 0x20 DUP3 ADD SWAP1 POP DUP2 DUP2 SUB PUSH1 0x0 DUP4 ADD MSTORE PUSH2 0x24CA DUP2 PUSH2 0x248E JUMP JUMPDEST SWAP1 POP SWAP2 SWAP1 POP JUMP JUMPDEST PUSH32 0x4D6174636820616C726561647920686173207468652077696E6E657200000000 PUSH1 0x0 DUP3 ADD MSTORE POP JUMP JUMPDEST PUSH1 0x0 PUSH2 0x2507 PUSH1 0x1C DUP4 PUSH2 0x16F2 JUMP JUMPDEST SWAP2 POP PUSH2 0x2512 DUP3 PUSH2 0x24D1 JUMP JUMPDEST PUSH1 0x20 DUP3 ADD SWAP1 POP SWAP2 SWAP1 POP JUMP JUMPDEST PUSH1 0x0 PUSH1 0x20 DUP3 ADD SWAP1 POP DUP2 DUP2 SUB PUSH1 0x0 DUP4 ADD MSTORE PUSH2 0x2536 DUP2 PUSH2 0x24FA JUMP JUMPDEST SWAP1 POP SWAP2 SWAP1 POP JUMP JUMPDEST PUSH32 0x57726F6E672074797065206F6620726573756C74000000000000000000000000 PUSH1 0x0 DUP3 ADD MSTORE POP JUMP JUMPDEST PUSH1 0x0 PUSH2 0x2573 PUSH1 0x14 DUP4 PUSH2 0x16F2 JUMP JUMPDEST SWAP2 POP PUSH2 0x257E DUP3 PUSH2 0x253D JUMP JUMPDEST PUSH1 0x20 DUP3 ADD SWAP1 POP SWAP2 SWAP1 POP JUMP JUMPDEST PUSH1 0x0 PUSH1 0x20 DUP3 ADD SWAP1 POP DUP2 DUP2 SUB PUSH1 0x0 DUP4 ADD MSTORE PUSH2 0x25A2 DUP2 PUSH2 0x2566 JUMP JUMPDEST SWAP1 POP SWAP2 SWAP1 POP JUMP JUMPDEST PUSH1 0x0 PUSH1 0x40 DUP3 ADD SWAP1 POP PUSH2 0x25BE PUSH1 0x0 DUP4 ADD DUP6 PUSH2 0x1C70 JUMP JUMPDEST PUSH2 0x25CB PUSH1 0x20 DUP4 ADD DUP5 PUSH2 0x16BD JUMP JUMPDEST SWAP4 SWAP3 POP POP POP JUMP INVALID LOG2 PUSH5 0x6970667358 0x22 SLT KECCAK256 TLOAD MSIZE 0xF7 0xD2 LT 0xBC 0xEE PUSH18 0x49D98023B34F9DCB5B80CDFAAF1672ED531F PUSH8 0x816D5930A164736F PUSH13 0x63430008180033A26469706673 PC 0x22 SLT KECCAK256 0xD5 ADDRESS 0x4D DUP16 EXTCODESIZE 0xD0 PUSH20 0xA8A68979DF0E7223B4C44D3E533DFF30112B833B GASLIMIT 0x2A 0xBE DUP12 LOG0 PUSH5 0x736F6C6343 STOP ADDMOD XOR STOP CALLER "},"methodIdentifiers":{"createNewTournament(string,uint256,uint256,uint256,uint256)":"80220efd","editTournament(uint256,string,uint256,uint256,uint256,uint256)":"6159d2e6","joinTournament(uint256,uint256)":"5875c61c","owner()":"8da5cb5b","renounceOwnership()":"715018a6","setGame(uint256,uint256,uint32[],uint8)":"fcfb350d","setManagerTournament(uint256,address)":"b3d2efe1","setMatch(uint256,uint32,uint32)":"203ee514","setRefereeTournament(uint256,address)":"b5c99c40","setWinnerTournament(uint256,address)":"a97d17e6","setWithdrawWallet(address)":"9373f432","transferOwnership(address)":"f2fde38b","withdrawAward(uint256,address)":"df9de105","withdrawTournamentFee(uint256)":"84f89fa8"}}}}}